{
  "contractName": "Base",
  "abi": [
    {
      "inputs": [],
      "stateMutability": "payable",
      "type": "constructor"
    },
    {
      "anonymous": false,
      "inputs": [
        {
          "indexed": false,
          "internalType": "uint256",
          "name": "sku",
          "type": "uint256"
        }
      ],
      "name": "Delivered",
      "type": "event"
    },
    {
      "anonymous": false,
      "inputs": [
        {
          "indexed": false,
          "internalType": "uint256",
          "name": "sku",
          "type": "uint256"
        }
      ],
      "name": "Harvested",
      "type": "event"
    },
    {
      "anonymous": false,
      "inputs": [
        {
          "indexed": false,
          "internalType": "uint256",
          "name": "sku",
          "type": "uint256"
        }
      ],
      "name": "OnSale",
      "type": "event"
    },
    {
      "anonymous": false,
      "inputs": [
        {
          "indexed": false,
          "internalType": "uint256",
          "name": "sku",
          "type": "uint256"
        }
      ],
      "name": "Produced",
      "type": "event"
    },
    {
      "anonymous": false,
      "inputs": [
        {
          "indexed": false,
          "internalType": "uint256",
          "name": "sku",
          "type": "uint256"
        }
      ],
      "name": "ReadyForShipping",
      "type": "event"
    },
    {
      "anonymous": false,
      "inputs": [
        {
          "indexed": false,
          "internalType": "uint256",
          "name": "sku",
          "type": "uint256"
        }
      ],
      "name": "Sold",
      "type": "event"
    },
    {
      "inputs": [
        {
          "internalType": "string",
          "name": "_name",
          "type": "string"
        },
        {
          "internalType": "uint256",
          "name": "_price",
          "type": "uint256"
        }
      ],
      "name": "plantSoy",
      "outputs": [],
      "stateMutability": "nonpayable",
      "type": "function"
    },
    {
      "inputs": [
        {
          "internalType": "uint256",
          "name": "_sku",
          "type": "uint256"
        }
      ],
      "name": "checkSoy",
      "outputs": [],
      "stateMutability": "nonpayable",
      "type": "function"
    },
    {
      "inputs": [
        {
          "internalType": "uint256",
          "name": "_sku",
          "type": "uint256"
        }
      ],
      "name": "harvestSoy",
      "outputs": [],
      "stateMutability": "nonpayable",
      "type": "function"
    },
    {
      "inputs": [
        {
          "internalType": "uint256",
          "name": "_sku",
          "type": "uint256"
        }
      ],
      "name": "orderSoy",
      "outputs": [],
      "stateMutability": "payable",
      "type": "function"
    },
    {
      "inputs": [
        {
          "internalType": "uint256",
          "name": "_sku",
          "type": "uint256"
        }
      ],
      "name": "shipSoy",
      "outputs": [],
      "stateMutability": "nonpayable",
      "type": "function"
    },
    {
      "inputs": [
        {
          "internalType": "uint256",
          "name": "_sku",
          "type": "uint256"
        }
      ],
      "name": "fetchSoy",
      "outputs": [],
      "stateMutability": "nonpayable",
      "type": "function"
    },
    {
      "inputs": [
        {
          "internalType": "uint256",
          "name": "_sku",
          "type": "uint256"
        }
      ],
      "name": "deliverSoy",
      "outputs": [],
      "stateMutability": "nonpayable",
      "type": "function"
    },
    {
      "inputs": [
        {
          "internalType": "string",
          "name": "_name",
          "type": "string"
        },
        {
          "internalType": "uint256",
          "name": "_soySku",
          "type": "uint256"
        },
        {
          "internalType": "uint256",
          "name": "_price",
          "type": "uint256"
        }
      ],
      "name": "makeTofu",
      "outputs": [],
      "stateMutability": "nonpayable",
      "type": "function"
    },
    {
      "inputs": [
        {
          "internalType": "uint256",
          "name": "_sku",
          "type": "uint256"
        }
      ],
      "name": "orderTofu",
      "outputs": [],
      "stateMutability": "payable",
      "type": "function"
    },
    {
      "inputs": [
        {
          "internalType": "uint256",
          "name": "_sku",
          "type": "uint256"
        }
      ],
      "name": "shipTofu",
      "outputs": [],
      "stateMutability": "nonpayable",
      "type": "function"
    },
    {
      "inputs": [
        {
          "internalType": "uint256",
          "name": "_sku",
          "type": "uint256"
        }
      ],
      "name": "fetchTofu",
      "outputs": [],
      "stateMutability": "nonpayable",
      "type": "function"
    },
    {
      "inputs": [
        {
          "internalType": "uint256",
          "name": "_sku",
          "type": "uint256"
        }
      ],
      "name": "deliverTofu",
      "outputs": [],
      "stateMutability": "nonpayable",
      "type": "function"
    },
    {
      "inputs": [
        {
          "internalType": "uint256",
          "name": "_sku",
          "type": "uint256"
        }
      ],
      "name": "putTofuOnSale",
      "outputs": [],
      "stateMutability": "nonpayable",
      "type": "function"
    },
    {
      "inputs": [
        {
          "internalType": "uint256",
          "name": "_sku",
          "type": "uint256"
        }
      ],
      "name": "buyTofu",
      "outputs": [],
      "stateMutability": "payable",
      "type": "function"
    }
  ],
  "bytecode": "0x6080604052336000806101000a81548173ffffffffffffffffffffffffffffffffffffffff021916908373ffffffffffffffffffffffffffffffffffffffff16021790555060006001819055506064600281905550612435806100636000396000f3fe6080604052600436106100dd5760003560e01c8063722bacaa1161007f578063d2c6ff5911610059578063d2c6ff5914610262578063dbae6b651461027e578063f6243ee6146102a7578063fd6e6705146102d0576100dd565b8063722bacaa146101e757806384ce3bbb1461021057806390d3065714610239576100dd565b806340fcbf74116100bb57806340fcbf7414610150578063430f02591461016c57806369bed1a1146101955780636c008cd3146101be576100dd565b80630f8360ac146100e2578063141705181461010b5780631e61cb4314610134575b600080fd5b3480156100ee57600080fd5b5061010960048036038101906101049190611e42565b6102f9565b005b34801561011757600080fd5b50610132600480360381019061012d9190611e42565b6104a6565b005b61014e60048036038101906101499190611e42565b6105cb565b005b61016a60048036038101906101659190611e42565b6108e8565b005b34801561017857600080fd5b50610193600480360381019061018e9190611e42565b610b99565b005b3480156101a157600080fd5b506101bc60048036038101906101b79190611e42565b610d46565b005b3480156101ca57600080fd5b506101e560048036038101906101e09190611e42565b610ef3565b005b3480156101f357600080fd5b5061020e60048036038101906102099190611e42565b6110a0565b005b34801561021c57600080fd5b5061023760048036038101906102329190611fb5565b6110e2565b005b34801561024557600080fd5b50610260600480360381019061025b9190611e42565b611515565b005b61027c60048036038101906102779190611e42565b61158e565b005b34801561028a57600080fd5b506102a560048036038101906102a09190611e42565b611876565b005b3480156102b357600080fd5b506102ce60048036038101906102c99190612024565b611a22565b005b3480156102dc57600080fd5b506102f760048036038101906102f29190611e42565b611c26565b005b80600380600781111561030f5761030e612080565b5b6003600084815260200190815260200160002060030160009054906101000a900460ff16600781111561034557610344612080565b5b14610385576040517f08c379a000000000000000000000000000000000000000000000000000000000815260040161037c9061210c565b60405180910390fd5b6003600084815260200190815260200160002060030160019054906101000a900473ffffffffffffffffffffffffffffffffffffffff168073ffffffffffffffffffffffffffffffffffffffff163373ffffffffffffffffffffffffffffffffffffffff161461042a576040517f08c379a00000000000000000000000000000000000000000000000000000000081526004016104219061219e565b60405180910390fd5b60046003600086815260200190815260200160002060030160006101000a81548160ff0219169083600781111561046457610463612080565b5b02179055507fb0f262e603193ef3ed2b0b01b78396d7870e77697078825ae3728169b4913d858460405161049891906121cd565b60405180910390a150505050565b8060028060068111156104bc576104bb612080565b5b6004600084815260200190815260200160002060030160009054906101000a900460ff1660068111156104f2576104f1612080565b5b14610532576040517f08c379a000000000000000000000000000000000000000000000000000000000815260040161052990612234565b60405180910390fd5b336004600085815260200190815260200160002060040160006101000a81548173ffffffffffffffffffffffffffffffffffffffff021916908373ffffffffffffffffffffffffffffffffffffffff16021790555060036004600085815260200190815260200160002060030160006101000a81548160ff021916908360068111156105c1576105c0612080565b5b0217905550505050565b8060028060078111156105e1576105e0612080565b5b6003600084815260200190815260200160002060030160009054906101000a900460ff16600781111561061757610616612080565b5b14610657576040517f08c379a000000000000000000000000000000000000000000000000000000000815260040161064e9061210c565b60405180910390fd5b6003600084815260200190815260200160002060020154803410156106b1576040517f08c379a00000000000000000000000000000000000000000000000000000000081526004016106a8906122c6565b60405180910390fd5b836000339050600060036000888152602001908152602001600020600201549050816003600089815260200190815260200160002060050160006101000a81548173ffffffffffffffffffffffffffffffffffffffff021916908373ffffffffffffffffffffffffffffffffffffffff160217905550600380600089815260200190815260200160002060030160006101000a81548160ff021916908360078111156107605761075f612080565b5b021790555060006107a6600360008a815260200190815260200160002060030160019054906101000a900473ffffffffffffffffffffffffffffffffffffffff16611d4b565b90508073ffffffffffffffffffffffffffffffffffffffff166108fc839081150290604051600060405180830381858888f193505050501580156107ee573d6000803e3d6000fd5b507f92f64ca637d023f354075a4be751b169c1a8a9ccb6d33cdd0cb35205439957278860405161081e91906121cd565b60405180910390a1505050600060036000838152602001908152602001600020600201549050600081346108529190612315565b905060006108956003600086815260200190815260200160002060050160009054906101000a900473ffffffffffffffffffffffffffffffffffffffff16611d4b565b90508073ffffffffffffffffffffffffffffffffffffffff166108fc839081150290604051600060405180830381858888f193505050501580156108dd573d6000803e3d6000fd5b505050505050505050565b8060008060068111156108fe576108fd612080565b5b6004600084815260200190815260200160002060030160009054906101000a900460ff16600681111561093457610933612080565b5b14610974576040517f08c379a000000000000000000000000000000000000000000000000000000000815260040161096b90612234565b60405180910390fd5b6004600084815260200190815260200160002060020154803410156109ce576040517f08c379a00000000000000000000000000000000000000000000000000000000081526004016109c5906122c6565b60405180910390fd5b836000339050600060046000888152602001908152602001600020600201549050816004600089815260200190815260200160002060050160006101000a81548173ffffffffffffffffffffffffffffffffffffffff021916908373ffffffffffffffffffffffffffffffffffffffff16021790555060016004600089815260200190815260200160002060030160006101000a81548160ff02191690836006811115610a7e57610a7d612080565b5b02179055506000610ac4600460008a815260200190815260200160002060030160019054906101000a900473ffffffffffffffffffffffffffffffffffffffff16611d4b565b90508073ffffffffffffffffffffffffffffffffffffffff166108fc839081150290604051600060405180830381858888f19350505050158015610b0c573d6000803e3d6000fd5b5050505060006004600083815260200190815260200160002060020154905060008134610b399190612315565b90506000610b4633611d4b565b90508073ffffffffffffffffffffffffffffffffffffffff166108fc839081150290604051600060405180830381858888f19350505050158015610b8e573d6000803e3d6000fd5b505050505050505050565b806001806006811115610baf57610bae612080565b5b6004600084815260200190815260200160002060030160009054906101000a900460ff166006811115610be557610be4612080565b5b14610c25576040517f08c379a0000000000000000000000000000000000000000000000000000000008152600401610c1c90612234565b60405180910390fd5b6004600084815260200190815260200160002060030160019054906101000a900473ffffffffffffffffffffffffffffffffffffffff168073ffffffffffffffffffffffffffffffffffffffff163373ffffffffffffffffffffffffffffffffffffffff1614610cca576040517f08c379a0000000000000000000000000000000000000000000000000000000008152600401610cc19061219e565b60405180910390fd5b60026004600086815260200190815260200160002060030160006101000a81548160ff02191690836006811115610d0457610d03612080565b5b02179055507fb0f262e603193ef3ed2b0b01b78396d7870e77697078825ae3728169b4913d8584604051610d3891906121cd565b60405180910390a150505050565b806004806006811115610d5c57610d5b612080565b5b6004600084815260200190815260200160002060030160009054906101000a900460ff166006811115610d9257610d91612080565b5b14610dd2576040517f08c379a0000000000000000000000000000000000000000000000000000000008152600401610dc990612234565b60405180910390fd5b6004600084815260200190815260200160002060050160009054906101000a900473ffffffffffffffffffffffffffffffffffffffff168073ffffffffffffffffffffffffffffffffffffffff163373ffffffffffffffffffffffffffffffffffffffff1614610e77576040517f08c379a0000000000000000000000000000000000000000000000000000000008152600401610e6e9061219e565b60405180910390fd5b60056004600086815260200190815260200160002060030160006101000a81548160ff02191690836006811115610eb157610eb0612080565b5b02179055507f6826140490b8e3cb7f1acaadc491af2c8803ed6a350ed83565db9fe625e1afe784604051610ee591906121cd565b60405180910390a150505050565b806005806007811115610f0957610f08612080565b5b6003600084815260200190815260200160002060030160009054906101000a900460ff166007811115610f3f57610f3e612080565b5b14610f7f576040517f08c379a0000000000000000000000000000000000000000000000000000000008152600401610f769061210c565b60405180910390fd5b6003600084815260200190815260200160002060040160009054906101000a900473ffffffffffffffffffffffffffffffffffffffff168073ffffffffffffffffffffffffffffffffffffffff163373ffffffffffffffffffffffffffffffffffffffff1614611024576040517f08c379a000000000000000000000000000000000000000000000000000000000815260040161101b9061219e565b60405180910390fd5b60066003600086815260200190815260200160002060030160006101000a81548160ff0219169083600781111561105e5761105d612080565b5b02179055507ffcc296b8bdd64e3f1d1faadef50cb2d6550f645316330fe57cb1dd7e0612ead08460405161109291906121cd565b60405180910390a150505050565b60016003600083815260200190815260200160002060030160006101000a81548160ff021916908360078111156110da576110d9612080565b5b021790555050565b8160068060078111156110f8576110f7612080565b5b6003600084815260200190815260200160002060030160009054906101000a900460ff16600781111561112e5761112d612080565b5b1461116e576040517f08c379a00000000000000000000000000000000000000000000000000000000081526004016111659061210c565b60405180910390fd5b6003600085815260200190815260200160002060050160009054906101000a900473ffffffffffffffffffffffffffffffffffffffff168073ffffffffffffffffffffffffffffffffffffffff163373ffffffffffffffffffffffffffffffffffffffff1614611213576040517f08c379a000000000000000000000000000000000000000000000000000000000815260040161120a9061219e565b60405180910390fd5b60016002546112229190612349565b60028190555060076003600087815260200190815260200160002060030160006101000a81548160ff0219169083600781111561126257611261612080565b5b021790555060025460036000878152602001908152602001600020600601819055506040518061012001604052808781526020016002548152602001858152602001600060068111156112b8576112b7612080565b5b81526020013373ffffffffffffffffffffffffffffffffffffffff168152602001600073ffffffffffffffffffffffffffffffffffffffff168152602001600073ffffffffffffffffffffffffffffffffffffffff168152602001600073ffffffffffffffffffffffffffffffffffffffff168152602001868152506004600060025481526020019081526020016000206000820151816000019080519060200190611365929190611d55565b50602082015181600101556040820151816002015560608201518160030160006101000a81548160ff021916908360068111156113a5576113a4612080565b5b021790555060808201518160030160016101000a81548173ffffffffffffffffffffffffffffffffffffffff021916908373ffffffffffffffffffffffffffffffffffffffff16021790555060a08201518160040160006101000a81548173ffffffffffffffffffffffffffffffffffffffff021916908373ffffffffffffffffffffffffffffffffffffffff16021790555060c08201518160050160006101000a81548173ffffffffffffffffffffffffffffffffffffffff021916908373ffffffffffffffffffffffffffffffffffffffff16021790555060e08201518160060160006101000a81548173ffffffffffffffffffffffffffffffffffffffff021916908373ffffffffffffffffffffffffffffffffffffffff16021790555061010082015181600701559050507f9d1715437821cd9a90cba5d1a68995c308d9ad9afc754ed9a1cff429760796e660025460405161150591906121cd565b60405180910390a1505050505050565b7f8e55ccfc9778ff8eba1646d765cf1982537ce0f9257054a17b48aad7452501838160405161154491906121cd565b60405180910390a160026003600083815260200190815260200160002060030160006101000a81548160ff0219169083600781111561158657611585612080565b5b021790555050565b8060058060068111156115a4576115a3612080565b5b6004600084815260200190815260200160002060030160009054906101000a900460ff1660068111156115da576115d9612080565b5b1461161a576040517f08c379a000000000000000000000000000000000000000000000000000000000815260040161161190612234565b60405180910390fd5b600460008481526020019081526020016000206002015480341015611674576040517f08c379a000000000000000000000000000000000000000000000000000000000815260040161166b906122c6565b60405180910390fd5b836000339050600060046000888152602001908152602001600020600201549050816004600089815260200190815260200160002060060160006101000a81548173ffffffffffffffffffffffffffffffffffffffff021916908373ffffffffffffffffffffffffffffffffffffffff16021790555060066004600089815260200190815260200160002060030160006101000a81548160ff0219169083600681111561172457611723612080565b5b0217905550600061176a600460008a815260200190815260200160002060050160009054906101000a900473ffffffffffffffffffffffffffffffffffffffff16611d4b565b90508073ffffffffffffffffffffffffffffffffffffffff166108fc839081150290604051600060405180830381858888f193505050501580156117b2573d6000803e3d6000fd5b507f92f64ca637d023f354075a4be751b169c1a8a9ccb6d33cdd0cb3520543995727886040516117e291906121cd565b60405180910390a1505050600060046000838152602001908152602001600020600201549050600081346118169190612315565b9050600061182333611d4b565b90508073ffffffffffffffffffffffffffffffffffffffff166108fc839081150290604051600060405180830381858888f1935050505015801561186b573d6000803e3d6000fd5b505050505050505050565b80600380600681111561188c5761188b612080565b5b6004600084815260200190815260200160002060030160009054906101000a900460ff1660068111156118c2576118c1612080565b5b14611902576040517f08c379a00000000000000000000000000000000000000000000000000000000081526004016118f990612234565b60405180910390fd5b6004600084815260200190815260200160002060040160009054906101000a900473ffffffffffffffffffffffffffffffffffffffff168073ffffffffffffffffffffffffffffffffffffffff163373ffffffffffffffffffffffffffffffffffffffff16146119a7576040517f08c379a000000000000000000000000000000000000000000000000000000000815260040161199e9061219e565b60405180910390fd5b600480600086815260200190815260200160002060030160006101000a81548160ff021916908360068111156119e0576119df612080565b5b02179055507ffcc296b8bdd64e3f1d1faadef50cb2d6550f645316330fe57cb1dd7e0612ead084604051611a1491906121cd565b60405180910390a150505050565b60018054611a309190612349565b600181905550604051806101000160405280838152602001600154815260200182815260200160006007811115611a6a57611a69612080565b5b81526020013373ffffffffffffffffffffffffffffffffffffffff168152602001600073ffffffffffffffffffffffffffffffffffffffff168152602001600073ffffffffffffffffffffffffffffffffffffffff16815260200160008152506003600060015481526020019081526020016000206000820151816000019080519060200190611afb929190611d55565b50602082015181600101556040820151816002015560608201518160030160006101000a81548160ff02191690836007811115611b3b57611b3a612080565b5b021790555060808201518160030160016101000a81548173ffffffffffffffffffffffffffffffffffffffff021916908373ffffffffffffffffffffffffffffffffffffffff16021790555060a08201518160040160006101000a81548173ffffffffffffffffffffffffffffffffffffffff021916908373ffffffffffffffffffffffffffffffffffffffff16021790555060c08201518160050160006101000a81548173ffffffffffffffffffffffffffffffffffffffff021916908373ffffffffffffffffffffffffffffffffffffffff16021790555060e082015181600601559050505050565b806004806007811115611c3c57611c3b612080565b5b6003600084815260200190815260200160002060030160009054906101000a900460ff166007811115611c7257611c71612080565b5b14611cb2576040517f08c379a0000000000000000000000000000000000000000000000000000000008152600401611ca99061210c565b60405180910390fd5b336003600085815260200190815260200160002060040160006101000a81548173ffffffffffffffffffffffffffffffffffffffff021916908373ffffffffffffffffffffffffffffffffffffffff16021790555060056003600085815260200190815260200160002060030160006101000a81548160ff02191690836007811115611d4157611d40612080565b5b0217905550505050565b6000819050919050565b828054611d61906123ce565b90600052602060002090601f016020900481019282611d835760008555611dca565b82601f10611d9c57805160ff1916838001178555611dca565b82800160010185558215611dca579182015b82811115611dc9578251825591602001919060010190611dae565b5b509050611dd79190611ddb565b5090565b5b80821115611df4576000816000905550600101611ddc565b5090565b6000604051905090565b600080fd5b600080fd5b6000819050919050565b611e1f81611e0c565b8114611e2a57600080fd5b50565b600081359050611e3c81611e16565b92915050565b600060208284031215611e5857611e57611e02565b5b6000611e6684828501611e2d565b91505092915050565b600080fd5b600080fd5b6000601f19601f8301169050919050565b7f4e487b7100000000000000000000000000000000000000000000000000000000600052604160045260246000fd5b611ec282611e79565b810181811067ffffffffffffffff82111715611ee157611ee0611e8a565b5b80604052505050565b6000611ef4611df8565b9050611f008282611eb9565b919050565b600067ffffffffffffffff821115611f2057611f1f611e8a565b5b611f2982611e79565b9050602081019050919050565b82818337600083830152505050565b6000611f58611f5384611f05565b611eea565b905082815260208101848484011115611f7457611f73611e74565b5b611f7f848285611f36565b509392505050565b600082601f830112611f9c57611f9b611e6f565b5b8135611fac848260208601611f45565b91505092915050565b600080600060608486031215611fce57611fcd611e02565b5b600084013567ffffffffffffffff811115611fec57611feb611e07565b5b611ff886828701611f87565b935050602061200986828701611e2d565b925050604061201a86828701611e2d565b9150509250925092565b6000806040838503121561203b5761203a611e02565b5b600083013567ffffffffffffffff81111561205957612058611e07565b5b61206585828601611f87565b925050602061207685828601611e2d565b9150509250929050565b7f4e487b7100000000000000000000000000000000000000000000000000000000600052602160045260246000fd5b600082825260208201905092915050565b7f54686520736f79207374617465206973206e6f7420636f727265637400000000600082015250565b60006120f6601c836120af565b9150612101826120c0565b602082019050919050565b60006020820190508181036000830152612125816120e9565b9050919050565b7f546865206d6573736167652073656e646572206973206e6f742074686520657860008201527f7065637465642061646472657373000000000000000000000000000000000000602082015250565b6000612188602e836120af565b91506121938261212c565b604082019050919050565b600060208201905081810360008301526121b78161217b565b9050919050565b6121c781611e0c565b82525050565b60006020820190506121e260008301846121be565b92915050565b7f54686520746f6675207374617465206973206e6f7420636f7272656374000000600082015250565b600061221e601d836120af565b9150612229826121e8565b602082019050919050565b6000602082019050818103600083015261224d81612211565b9050919050565b7f546865206d65737361676520646f6573206e6f7420636f6e7461696e20656e6f60008201527f7567682045746865720000000000000000000000000000000000000000000000602082015250565b60006122b06029836120af565b91506122bb82612254565b604082019050919050565b600060208201905081810360008301526122df816122a3565b9050919050565b7f4e487b7100000000000000000000000000000000000000000000000000000000600052601160045260246000fd5b600061232082611e0c565b915061232b83611e0c565b92508282101561233e5761233d6122e6565b5b828203905092915050565b600061235482611e0c565b915061235f83611e0c565b9250827fffffffffffffffffffffffffffffffffffffffffffffffffffffffffffffffff03821115612394576123936122e6565b5b828201905092915050565b7f4e487b7100000000000000000000000000000000000000000000000000000000600052602260045260246000fd5b600060028204905060018216806123e657607f821691505b6020821081036123f9576123f861239f565b5b5091905056fea26469706673582212207b430e7b8044724058ff32c818e84acc6ae92f879c58384b4c8d4e4572d618cf64736f6c634300080d0033",
  "immutableReferences": {},
  "source": "// SPDX-License-Identifier: UNLICENSED\npragma solidity ^0.8.13;\n\n// Define the contract 'Base'\ncontract Base {\n    // Holds all functions and structs\n\n    address owner;\n    uint skuCountSoy;\n    uint skuCountTofu;\n\n    // Enums for soy/tofu states\n    enum soyState {Planted, Ripe, Harvested, Ordered, ReadyForShipping, Shipping, Delivered, Used}\n    enum tofuState {Produced, Ordered, ReadyForShipping, Shipping, Delivered, OnSale, Sold}\n\n    // Soy. name, sku, price, state, seller, buyer\n    struct Soy {\n        string  name;\n        uint  sku;\n        uint  price;\n        soyState  state;\n        address  seller;        // Farmer\n        address distributor;\n        address  buyer;         // Tofu Company\n        uint toTofuSku;\n    }\n\n    // Tofu. name, sku, price, state, seller, buyer\n    struct Tofu {\n        string  name;\n        uint  sku;\n        uint  price;\n        tofuState  state;\n        address  producer;      // Tofu Company\n        address  distributor;\n        address retailer;\n        address buyer;          // Final customer in retail store\n        uint fromSoySku;\n    }\n\n    // Map the SKU to a unit of soy/tofu.\n    mapping (uint => Soy) soys;\n    mapping (uint => Tofu) tofus;\n\n    // Events\n    event Harvested(uint sku);\n    event Produced(uint sku);\n    event ReadyForShipping(uint sku);\n    event Delivered(uint sku);\n    event OnSale(uint sku);\n    event Sold(uint sku);\n\n    constructor() payable {\n        owner = msg.sender;\n        skuCountSoy = 0;\n        skuCountTofu = 100;\n    }\n\n\n    // See if msg.sender == owner of the contract\n    modifier onlyOwner() {\n        require(msg.sender == owner, \"Only the owner can call this function\");\n        _;\n    }\n\n    // Verify the Caller\n    modifier verifyCaller (address _address) {\n        require(msg.sender == _address, \"The message sender is not the expected address\");\n        _;\n    }\n\n    // Check if the paid amount is sufficient to cover the price\n    modifier paidEnough(uint _price) {\n        require(msg.value >= _price, \"The message does not contain enough Ether\");\n        _;\n    }\n\n    // Check if a unit of soy has a certain state\n    modifier checkSoyState(uint _sku, soyState _state) {\n        require(soys[_sku].state == _state, \"The soy state is not correct\");\n        _;\n    }\n\n    // Check if a unit of tofu has a certain state\n    modifier checkTofuState(uint _sku, tofuState _state) {\n        require(tofus[_sku].state == _state, \"The tofu state is not correct\");\n        _;\n    }\n\n    // Checks the price and refunds the remaining balance\n    modifier checkSoyValue(uint _sku) {\n        _;\n        uint _price = soys[_sku].price;\n        uint amountToRefund = msg.value - _price;\n        address payable buyerAddressPayable = _make_payable(soys[_sku].buyer);\n        buyerAddressPayable.transfer(amountToRefund);\n    }\n\n    modifier checkTofuValue(uint _sku) {\n        _;\n        uint _price = tofus[_sku].price;\n        uint amountToRefund = msg.value - _price;\n        \n        /* // Not useful since retailer and buyer are two entities to whom this modifier appliers (buy from farmer vs. buy from retailer)\n        address payable buyerAddressPayable = _make_payable(tofus[_sku].buyer);\n        buyerAddressPayable.transfer(amountToRefund);\n        */\n        address payable senderAddressPayable = _make_payable(msg.sender);\n        senderAddressPayable.transfer(amountToRefund);\n        \n    }\n\n    // Function that allows you to convert an address into a payable address\n    function _make_payable(address x) internal pure returns (address payable) {\n        return payable(x); // According to k06a's answer: https://ethereum.stackexchange.com/a/65694\n    }\n\n    function plantSoy(string memory _name, uint _price) public {\n        // Increment sku\n        skuCountSoy = skuCountSoy + 1;\n\n        // Add the new soy into inventory and mark it as planted\n        soys[skuCountSoy] = Soy(\n            {\n                name: _name, \n                sku: skuCountSoy, \n                price: _price, \n                state: soyState.Planted, \n                seller: msg.sender, \n                distributor: address(0),\n                buyer: address(0), \n                toTofuSku: 0\n            });\n    }\n\n    // When checking the soy, the farmer finds out that the soy is ripe (because of their experience, farmers don't check their soy prematurely)\n    function checkSoy(uint _sku) public {\n        soys[_sku].state = soyState.Ripe;\n    }\n\n    // The farmers have to harvest their soy\n    function harvestSoy(uint _sku) public {\n        // Emit event to notify potential buyers\n        emit Harvested(_sku);\n\n        soys[_sku].state = soyState.Harvested;\n    }\n\n    // orderSoy allows to order one unit of soy from the farmer\n    function orderSoy(uint _sku) public payable\n        // Call modifier to check if sku is for sale\n        checkSoyState(_sku, soyState.Harvested)\n        // Call modifer to check if buyer has paid enough\n        paidEnough(soys[_sku].price)\n        // Call modifer to send any excess ether back to buyer\n        checkSoyValue(_sku) {\n\n        address buyer = msg.sender;\n        uint  price = soys[_sku].price;\n        // Update buyer\n        soys[_sku].buyer = buyer;\n        // Update state\n        soys[_sku].state = soyState.Ordered;\n        // Transfer money to seller\n        address payable sellerAddressPayable = _make_payable(soys[_sku].seller);\n        sellerAddressPayable.transfer(price);\n        // emit the appropriate event\n        emit Sold(_sku);\n    }\n\n    // The farmer has to ship the soy\n    function shipSoy(uint _sku) public \n        checkSoyState(_sku, soyState.Ordered) \n        verifyCaller(soys[_sku].seller) {\n\n        soys[_sku].state = soyState.ReadyForShipping;\n\n        emit ReadyForShipping(_sku);\n    }\n\n    function fetchSoy(uint _sku) public\n        checkSoyState(_sku, soyState.ReadyForShipping) {\n\n        soys[_sku].distributor = msg.sender;\n        soys[_sku].state = soyState.Shipping;\n    }\n\n    function deliverSoy(uint _sku) public \n        checkSoyState(_sku, soyState.Shipping)\n        verifyCaller(soys[_sku].distributor) {\n\n        soys[_sku].state = soyState.Delivered;\n\n        emit Delivered(_sku);\n        \n    }\n\n    // The tofu company calls makeTofu whenever they produce a unit of tofu from soy\n    function makeTofu(string memory _name, uint _soySku, uint _price) public \n        checkSoyState(_soySku, soyState.Delivered) \n        verifyCaller(soys[_soySku].buyer) {\n        // Increment sku for tofu\n        skuCountTofu = skuCountTofu + 1;\n\n        soys[_soySku].state = soyState.Used;\n        soys[_soySku].toTofuSku = skuCountTofu;\n\n        // Add newly produced tofu and link it to soy it came from\n        tofus[skuCountTofu] = Tofu(\n            {\n                name: _name, \n                sku: skuCountTofu, \n                price: _price, \n                state: tofuState.Produced, \n                producer: msg.sender, \n                distributor: address(0), \n                retailer: address(0), \n                buyer: address(0), \n                fromSoySku: _soySku\n            });\n        // Emit event\n        emit Produced(skuCountTofu);\n    }\n\n    // The retailer can order tofu using orderTofu()\n    function orderTofu(uint _sku) public payable \n        checkTofuState(_sku, tofuState.Produced)\n        paidEnough(tofus[_sku].price)  \n        checkTofuValue(_sku) {\n        \n        address retailer = msg.sender;\n        uint price = tofus[_sku].price;\n        // Update retailer\n        tofus[_sku].retailer = retailer;\n        // Update state\n        tofus[_sku].state = tofuState.Ordered;\n        // Transfer money to seller\n        address payable producerAddressPayable = _make_payable(tofus[_sku].producer);\n        producerAddressPayable.transfer(price);\n    }\n\n    // The tofu company has to ship the tofu\n    function shipTofu(uint _sku) public \n        checkTofuState(_sku, tofuState.Ordered) \n        verifyCaller(tofus[_sku].producer) {\n\n        tofus[_sku].state = tofuState.ReadyForShipping;\n\n        emit ReadyForShipping(_sku);\n    }\n\n    function fetchTofu(uint _sku) public\n        checkTofuState(_sku, tofuState.ReadyForShipping)\n        {\n\n        tofus[_sku].distributor = msg.sender;\n        tofus[_sku].state = tofuState.Shipping;\n    }\n\n    function deliverTofu(uint _sku) public \n        checkTofuState(_sku, tofuState.Shipping)\n        verifyCaller(tofus[_sku].distributor) {\n\n        tofus[_sku].state = tofuState.Delivered;\n\n        emit Delivered(_sku);\n        \n    }\n\n    function putTofuOnSale(uint _sku) public \n        checkTofuState(_sku, tofuState.Delivered)\n        verifyCaller(tofus[_sku].retailer) {\n\n        tofus[_sku].state = tofuState.OnSale;\n\n        emit OnSale(_sku);\n    }\n\n    // buyTofu allows to buy one unit of tofu from the retailer\n    function buyTofu(uint _sku) public payable\n        // Call modifier to check if sku is for sale\n        checkTofuState(_sku, tofuState.OnSale)\n        // Call modifer to check if buyer has paid enough\n        paidEnough(tofus[_sku].price)\n        // Call modifer to send any excess ether back to buyer\n        checkTofuValue(_sku) {\n\n        address buyer = msg.sender;\n        uint  price = tofus[_sku].price;\n        // Update buyer\n        tofus[_sku].buyer = buyer;\n        // Update state\n        tofus[_sku].state = tofuState.Sold;\n        // Transfer money to seller\n        address payable retailerAddressPayable = _make_payable(tofus[_sku].retailer);\n        retailerAddressPayable.transfer(price);\n        // emit the appropriate event\n        emit Sold(_sku);\n    }\n}\n",
  "sourcePath": "/home/haefner/Documents/30_Arbeit/2022_ND_Blockchain/Project3_SupplyChain/project3/contracts/TofuSupplyChain.sol",
  "compiler": {
    "name": "solc",
    "version": "0.8.13+commit.abaa5c0e.Emscripten.clang"
  },
  "schemaVersion": "3.4.6",
  "updatedAt": "2022-04-14T14:07:25.037Z",
  "devdoc": {
    "kind": "dev",
    "methods": {},
    "version": 1
  },
  "userdoc": {
    "kind": "user",
    "methods": {},
    "version": 1
  }
}