{
  "contractName": "SupplyChain",
  "abi": [
    {
      "inputs": [],
      "stateMutability": "payable",
      "type": "constructor",
      "payable": true
    },
    {
      "anonymous": false,
      "inputs": [
        {
          "indexed": false,
          "internalType": "uint256",
          "name": "upc",
          "type": "uint256"
        }
      ],
      "name": "Delivered",
      "type": "event"
    },
    {
      "anonymous": false,
      "inputs": [
        {
          "indexed": false,
          "internalType": "uint256",
          "name": "upc",
          "type": "uint256"
        }
      ],
      "name": "Harvested",
      "type": "event"
    },
    {
      "anonymous": false,
      "inputs": [
        {
          "indexed": false,
          "internalType": "uint256",
          "name": "upc",
          "type": "uint256"
        }
      ],
      "name": "OnSale",
      "type": "event"
    },
    {
      "anonymous": false,
      "inputs": [
        {
          "indexed": false,
          "internalType": "uint256",
          "name": "upc",
          "type": "uint256"
        }
      ],
      "name": "Produced",
      "type": "event"
    },
    {
      "anonymous": false,
      "inputs": [
        {
          "indexed": false,
          "internalType": "uint256",
          "name": "upc",
          "type": "uint256"
        }
      ],
      "name": "ReadyForShipping",
      "type": "event"
    },
    {
      "anonymous": false,
      "inputs": [
        {
          "indexed": true,
          "internalType": "bytes32",
          "name": "role",
          "type": "bytes32"
        },
        {
          "indexed": true,
          "internalType": "bytes32",
          "name": "previousAdminRole",
          "type": "bytes32"
        },
        {
          "indexed": true,
          "internalType": "bytes32",
          "name": "newAdminRole",
          "type": "bytes32"
        }
      ],
      "name": "RoleAdminChanged",
      "type": "event"
    },
    {
      "anonymous": false,
      "inputs": [
        {
          "indexed": true,
          "internalType": "bytes32",
          "name": "role",
          "type": "bytes32"
        },
        {
          "indexed": true,
          "internalType": "address",
          "name": "account",
          "type": "address"
        },
        {
          "indexed": true,
          "internalType": "address",
          "name": "sender",
          "type": "address"
        }
      ],
      "name": "RoleGranted",
      "type": "event"
    },
    {
      "anonymous": false,
      "inputs": [
        {
          "indexed": true,
          "internalType": "bytes32",
          "name": "role",
          "type": "bytes32"
        },
        {
          "indexed": true,
          "internalType": "address",
          "name": "account",
          "type": "address"
        },
        {
          "indexed": true,
          "internalType": "address",
          "name": "sender",
          "type": "address"
        }
      ],
      "name": "RoleRevoked",
      "type": "event"
    },
    {
      "anonymous": false,
      "inputs": [
        {
          "indexed": false,
          "internalType": "uint256",
          "name": "upc",
          "type": "uint256"
        }
      ],
      "name": "Sold",
      "type": "event"
    },
    {
      "inputs": [],
      "name": "CUSTOMER_ROLE",
      "outputs": [
        {
          "internalType": "bytes32",
          "name": "",
          "type": "bytes32"
        }
      ],
      "stateMutability": "view",
      "type": "function",
      "constant": true
    },
    {
      "inputs": [],
      "name": "DEFAULT_ADMIN_ROLE",
      "outputs": [
        {
          "internalType": "bytes32",
          "name": "",
          "type": "bytes32"
        }
      ],
      "stateMutability": "view",
      "type": "function",
      "constant": true
    },
    {
      "inputs": [],
      "name": "DISTRIBUTOR_ROLE",
      "outputs": [
        {
          "internalType": "bytes32",
          "name": "",
          "type": "bytes32"
        }
      ],
      "stateMutability": "view",
      "type": "function",
      "constant": true
    },
    {
      "inputs": [],
      "name": "FARMER_ROLE",
      "outputs": [
        {
          "internalType": "bytes32",
          "name": "",
          "type": "bytes32"
        }
      ],
      "stateMutability": "view",
      "type": "function",
      "constant": true
    },
    {
      "inputs": [],
      "name": "RETAILER_ROLE",
      "outputs": [
        {
          "internalType": "bytes32",
          "name": "",
          "type": "bytes32"
        }
      ],
      "stateMutability": "view",
      "type": "function",
      "constant": true
    },
    {
      "inputs": [],
      "name": "TOFUPRODUCER_ROLE",
      "outputs": [
        {
          "internalType": "bytes32",
          "name": "",
          "type": "bytes32"
        }
      ],
      "stateMutability": "view",
      "type": "function",
      "constant": true
    },
    {
      "inputs": [
        {
          "internalType": "bytes32",
          "name": "role",
          "type": "bytes32"
        }
      ],
      "name": "getRoleAdmin",
      "outputs": [
        {
          "internalType": "bytes32",
          "name": "",
          "type": "bytes32"
        }
      ],
      "stateMutability": "view",
      "type": "function",
      "constant": true
    },
    {
      "inputs": [
        {
          "internalType": "bytes32",
          "name": "role",
          "type": "bytes32"
        },
        {
          "internalType": "address",
          "name": "account",
          "type": "address"
        }
      ],
      "name": "grantRole",
      "outputs": [],
      "stateMutability": "nonpayable",
      "type": "function"
    },
    {
      "inputs": [
        {
          "internalType": "bytes32",
          "name": "role",
          "type": "bytes32"
        },
        {
          "internalType": "address",
          "name": "account",
          "type": "address"
        }
      ],
      "name": "hasRole",
      "outputs": [
        {
          "internalType": "bool",
          "name": "",
          "type": "bool"
        }
      ],
      "stateMutability": "view",
      "type": "function",
      "constant": true
    },
    {
      "inputs": [
        {
          "internalType": "bytes32",
          "name": "role",
          "type": "bytes32"
        },
        {
          "internalType": "address",
          "name": "account",
          "type": "address"
        }
      ],
      "name": "renounceRole",
      "outputs": [],
      "stateMutability": "nonpayable",
      "type": "function"
    },
    {
      "inputs": [
        {
          "internalType": "bytes32",
          "name": "role",
          "type": "bytes32"
        },
        {
          "internalType": "address",
          "name": "account",
          "type": "address"
        }
      ],
      "name": "revokeRole",
      "outputs": [],
      "stateMutability": "nonpayable",
      "type": "function"
    },
    {
      "inputs": [
        {
          "internalType": "bytes4",
          "name": "interfaceId",
          "type": "bytes4"
        }
      ],
      "name": "supportsInterface",
      "outputs": [
        {
          "internalType": "bool",
          "name": "",
          "type": "bool"
        }
      ],
      "stateMutability": "view",
      "type": "function",
      "constant": true
    },
    {
      "inputs": [
        {
          "internalType": "uint256",
          "name": "_soyUpc",
          "type": "uint256"
        }
      ],
      "name": "getSoy",
      "outputs": [
        {
          "internalType": "string",
          "name": "name",
          "type": "string"
        },
        {
          "internalType": "uint256",
          "name": "sku",
          "type": "uint256"
        },
        {
          "internalType": "uint256",
          "name": "price",
          "type": "uint256"
        },
        {
          "internalType": "enum SupplyChain.soyState",
          "name": "state",
          "type": "uint8"
        },
        {
          "internalType": "address",
          "name": "farmer",
          "type": "address"
        },
        {
          "internalType": "string",
          "name": "originLatitude",
          "type": "string"
        },
        {
          "internalType": "string",
          "name": "originLongitude",
          "type": "string"
        },
        {
          "internalType": "address",
          "name": "distributor",
          "type": "address"
        },
        {
          "internalType": "address",
          "name": "buyer",
          "type": "address"
        },
        {
          "internalType": "uint256",
          "name": "toTofuUpc",
          "type": "uint256"
        }
      ],
      "stateMutability": "view",
      "type": "function",
      "constant": true
    },
    {
      "inputs": [
        {
          "internalType": "uint256",
          "name": "_tofuUpc",
          "type": "uint256"
        }
      ],
      "name": "getTofu",
      "outputs": [
        {
          "internalType": "string",
          "name": "name",
          "type": "string"
        },
        {
          "internalType": "uint256",
          "name": "sku",
          "type": "uint256"
        },
        {
          "internalType": "uint256",
          "name": "price",
          "type": "uint256"
        },
        {
          "internalType": "enum SupplyChain.tofuState",
          "name": "state",
          "type": "uint8"
        },
        {
          "internalType": "address",
          "name": "producer",
          "type": "address"
        },
        {
          "internalType": "string",
          "name": "originLatitude",
          "type": "string"
        },
        {
          "internalType": "string",
          "name": "originLongitude",
          "type": "string"
        },
        {
          "internalType": "address",
          "name": "distributor",
          "type": "address"
        },
        {
          "internalType": "address",
          "name": "retailer",
          "type": "address"
        },
        {
          "internalType": "address",
          "name": "buyer",
          "type": "address"
        },
        {
          "internalType": "uint256",
          "name": "fromSoyUpc",
          "type": "uint256"
        }
      ],
      "stateMutability": "view",
      "type": "function",
      "constant": true
    },
    {
      "inputs": [
        {
          "internalType": "string",
          "name": "_role",
          "type": "string"
        },
        {
          "internalType": "address",
          "name": "_newMember",
          "type": "address"
        }
      ],
      "name": "addRole",
      "outputs": [],
      "stateMutability": "nonpayable",
      "type": "function"
    },
    {
      "inputs": [
        {
          "internalType": "string",
          "name": "_role",
          "type": "string"
        },
        {
          "internalType": "address",
          "name": "_oldMember",
          "type": "address"
        }
      ],
      "name": "removeRole",
      "outputs": [],
      "stateMutability": "nonpayable",
      "type": "function"
    },
    {
      "inputs": [
        {
          "internalType": "string",
          "name": "_role",
          "type": "string"
        },
        {
          "internalType": "address",
          "name": "_member",
          "type": "address"
        }
      ],
      "name": "isRole",
      "outputs": [
        {
          "internalType": "bool",
          "name": "bHasRole",
          "type": "bool"
        }
      ],
      "stateMutability": "view",
      "type": "function",
      "constant": true
    },
    {
      "inputs": [
        {
          "internalType": "string",
          "name": "_name",
          "type": "string"
        },
        {
          "internalType": "uint256",
          "name": "_upc",
          "type": "uint256"
        },
        {
          "internalType": "uint256",
          "name": "_price",
          "type": "uint256"
        },
        {
          "internalType": "string",
          "name": "_lat",
          "type": "string"
        },
        {
          "internalType": "string",
          "name": "_long",
          "type": "string"
        }
      ],
      "name": "plantSoy",
      "outputs": [],
      "stateMutability": "nonpayable",
      "type": "function"
    },
    {
      "inputs": [
        {
          "internalType": "uint256",
          "name": "_upc",
          "type": "uint256"
        }
      ],
      "name": "checkSoy",
      "outputs": [],
      "stateMutability": "nonpayable",
      "type": "function"
    },
    {
      "inputs": [
        {
          "internalType": "uint256",
          "name": "_upc",
          "type": "uint256"
        }
      ],
      "name": "harvestSoy",
      "outputs": [],
      "stateMutability": "nonpayable",
      "type": "function"
    },
    {
      "inputs": [
        {
          "internalType": "uint256",
          "name": "_upc",
          "type": "uint256"
        }
      ],
      "name": "orderSoy",
      "outputs": [],
      "stateMutability": "payable",
      "type": "function",
      "payable": true
    },
    {
      "inputs": [
        {
          "internalType": "uint256",
          "name": "_upc",
          "type": "uint256"
        }
      ],
      "name": "shipSoy",
      "outputs": [],
      "stateMutability": "nonpayable",
      "type": "function"
    },
    {
      "inputs": [
        {
          "internalType": "uint256",
          "name": "_upc",
          "type": "uint256"
        }
      ],
      "name": "fetchSoy",
      "outputs": [],
      "stateMutability": "nonpayable",
      "type": "function"
    },
    {
      "inputs": [
        {
          "internalType": "uint256",
          "name": "_upc",
          "type": "uint256"
        }
      ],
      "name": "deliverSoy",
      "outputs": [],
      "stateMutability": "nonpayable",
      "type": "function"
    },
    {
      "inputs": [
        {
          "internalType": "string",
          "name": "_name",
          "type": "string"
        },
        {
          "internalType": "uint256",
          "name": "_soyUpc",
          "type": "uint256"
        },
        {
          "internalType": "uint256",
          "name": "_upc",
          "type": "uint256"
        },
        {
          "internalType": "uint256",
          "name": "_price",
          "type": "uint256"
        },
        {
          "internalType": "string",
          "name": "_lat",
          "type": "string"
        },
        {
          "internalType": "string",
          "name": "_long",
          "type": "string"
        }
      ],
      "name": "makeTofu",
      "outputs": [],
      "stateMutability": "nonpayable",
      "type": "function"
    },
    {
      "inputs": [
        {
          "internalType": "uint256",
          "name": "_upc",
          "type": "uint256"
        }
      ],
      "name": "orderTofu",
      "outputs": [],
      "stateMutability": "payable",
      "type": "function",
      "payable": true
    },
    {
      "inputs": [
        {
          "internalType": "uint256",
          "name": "_upc",
          "type": "uint256"
        }
      ],
      "name": "shipTofu",
      "outputs": [],
      "stateMutability": "nonpayable",
      "type": "function"
    },
    {
      "inputs": [
        {
          "internalType": "uint256",
          "name": "_upc",
          "type": "uint256"
        }
      ],
      "name": "fetchTofu",
      "outputs": [],
      "stateMutability": "nonpayable",
      "type": "function"
    },
    {
      "inputs": [
        {
          "internalType": "uint256",
          "name": "_upc",
          "type": "uint256"
        }
      ],
      "name": "deliverTofu",
      "outputs": [],
      "stateMutability": "nonpayable",
      "type": "function"
    },
    {
      "inputs": [
        {
          "internalType": "uint256",
          "name": "_upc",
          "type": "uint256"
        },
        {
          "internalType": "uint256",
          "name": "_price",
          "type": "uint256"
        }
      ],
      "name": "putTofuOnSale",
      "outputs": [],
      "stateMutability": "nonpayable",
      "type": "function"
    },
    {
      "inputs": [
        {
          "internalType": "uint256",
          "name": "_upc",
          "type": "uint256"
        }
      ],
      "name": "buyTofu",
      "outputs": [],
      "stateMutability": "payable",
      "type": "function",
      "payable": true
    }
  ],
  "bytecode": "0x6080604052620000196000801b336200002f60201b60201c565b60006001819055506064600281905550620001a8565b6200004182826200004560201b60201c565b5050565b6200005782826200013660201b60201c565b6200013257600160008084815260200190815260200160002060000160008373ffffffffffffffffffffffffffffffffffffffff1673ffffffffffffffffffffffffffffffffffffffff16815260200190815260200160002060006101000a81548160ff021916908315150217905550620000d7620001a060201b60201c565b73ffffffffffffffffffffffffffffffffffffffff168173ffffffffffffffffffffffffffffffffffffffff16837f2f8788117e7eff1d82e926ec794901d17c78024a50270940304540a733656f0d60405160405180910390a45b5050565b600080600084815260200190815260200160002060000160008373ffffffffffffffffffffffffffffffffffffffff1673ffffffffffffffffffffffffffffffffffffffff16815260200190815260200160002060009054906101000a900460ff16905092915050565b600033905090565b614b2280620001b86000396000f3fe6080604052600436106101d85760003560e01c80634f06118411610102578063a217fddf11610095578063dbae6b6511610064578063dbae6b651461069c578063f0bd87cc146106c5578063f3943970146106f0578063fd6e67051461071b576101d8565b8063a217fddf146105e6578063cc6877f314610611578063d2c6ff5914610657578063d547741f14610673576101d8565b8063722bacaa116100d1578063722bacaa1461051a57806390d306571461054357806391d148541461056c578063957476af146105a9576101d8565b80634f061184146104585780636735b3a71461049f5780636c008cd3146104c85780636ce1dd98146104f1576101d8565b8063204d79231161017a57806336568abe1161014957806336568abe146103bf57806340fcbf74146103e8578063430f0259146104045780634c2857901461042d576101d8565b8063204d7923146103035780632115e7bf1461032e578063248a9ca3146103595780632f2ff15d14610396576101d8565b80630f8360ac116101b65780630f8360ac1461026c5780631417051814610295578063189578c8146102be5780631e61cb43146102e7576101d8565b806301ffc9a7146101dd578063032f2d481461021a578063035d3b0714610243575b600080fd5b3480156101e957600080fd5b5061020460048036038101906101ff9190613b5f565b610744565b6040516102119190613ba7565b60405180910390f35b34801561022657600080fd5b50610241600480360381019061023c9190613d66565b6107be565b005b34801561024f57600080fd5b5061026a60048036038101906102659190613df8565b61097f565b005b34801561027857600080fd5b50610293600480360381019061028e9190613e38565b610b48565b005b3480156102a157600080fd5b506102bc60048036038101906102b79190613e38565b610cf5565b005b3480156102ca57600080fd5b506102e560048036038101906102e09190613e65565b610e1a565b005b61030160048036038101906102fc9190613e38565b6110ab565b005b34801561030f57600080fd5b506103186113fb565b6040516103259190613f4d565b60405180910390f35b34801561033a57600080fd5b5061034361141f565b6040516103509190613f4d565b60405180910390f35b34801561036557600080fd5b50610380600480360381019061037b9190613f94565b611443565b60405161038d9190613f4d565b60405180910390f35b3480156103a257600080fd5b506103bd60048036038101906103b89190613fc1565b611462565b005b3480156103cb57600080fd5b506103e660048036038101906103e19190613fc1565b61148b565b005b61040260048036038101906103fd9190613e38565b61150e565b005b34801561041057600080fd5b5061042b60048036038101906104269190613e38565b6117f2565b005b34801561043957600080fd5b5061044261199f565b60405161044f9190613f4d565b60405180910390f35b34801561046457600080fd5b5061047f600480360381019061047a9190613e38565b6119c3565b6040516104969b9a9998979695949392919061411e565b60405180910390f35b3480156104ab57600080fd5b506104c660048036038101906104c19190613d66565b611e4a565b005b3480156104d457600080fd5b506104ef60048036038101906104ea9190613e38565b61200b565b005b3480156104fd57600080fd5b50610518600480360381019061051391906141de565b6121b8565b005b34801561052657600080fd5b50610541600480360381019061053c9190613e38565b612641565b005b34801561054f57600080fd5b5061056a60048036038101906105659190613e38565b612729565b005b34801561057857600080fd5b50610593600480360381019061058e9190613fc1565b612848565b6040516105a09190613ba7565b60405180910390f35b3480156105b557600080fd5b506105d060048036038101906105cb9190613d66565b6128b2565b6040516105dd9190613ba7565b60405180910390f35b3480156105f257600080fd5b506105fb612a81565b6040516106089190613f4d565b60405180910390f35b34801561061d57600080fd5b5061063860048036038101906106339190613e38565b612a88565b60405161064e9a99989796959493929190614307565b60405180910390f35b610671600480360381019061066c9190613e38565b612eaa565b005b34801561067f57600080fd5b5061069a60048036038101906106959190613fc1565b6131c5565b005b3480156106a857600080fd5b506106c360048036038101906106be9190613e38565b6131ee565b005b3480156106d157600080fd5b506106da61339a565b6040516106e79190613f4d565b60405180910390f35b3480156106fc57600080fd5b506107056133be565b6040516107129190613f4d565b60405180910390f35b34801561072757600080fd5b50610742600480360381019061073d9190613e38565b6133e2565b005b60007f7965db0b000000000000000000000000000000000000000000000000000000007bffffffffffffffffffffffffffffffffffffffffffffffffffffffff1916827bffffffffffffffffffffffffffffffffffffffffffffffffffffffff191614806107b757506107b68261353a565b5b9050919050565b7ff309ffc42715a0bfccdfa0c4cac305505f15ab9b9262b7451ceea96c0cc35187828051906020012003610817576108167f7c6181838a71a779e445600d4c6ecbe16bacf2b3c5bda69c29fada66d1b645d1826131c5565b5b7f17c21644ceec3cd074affabc036a9ba81c877859652aa2cc2d3a8ad102bf97328280519060200120036108705761086f7f27da0df33edb39ead40f7084fea0d01eda6f679d5fa512a477172d5ff4220858826131c5565b5b7f85faced7bde13e1a7dad704b895f006e704f207617d68166b31ba2d79624862d8280519060200120036108c9576108c87ffbd454f36a7e1a388bd6fc3ab10d434aa4578f811acbbcf33afb1c697486313c826131c5565b5b7f27d5ccc46db01bfa5691ce092fe276221c6cd0aa6d05765b52c3ddecfa70421a828051906020012003610922576109217f2a5f906c256a5d799494fcd066e1f6c077689de1cdb65052a1624de4bace99bf826131c5565b5b7f46e0d1fa2be0423550e96859e7c25c6f3178358b189469f16373069e7f092a0a82805190602001200361097b5761097a7f288a15c4a15d470e4cd9cad2f113b91206b520c26dbd3dd74627f0c057baa19c826131c5565b5b5050565b81600480600681111561099557610994614098565b5b6004600084815260200190815260200160002060040160009054906101000a900460ff1660068111156109cb576109ca614098565b5b14610a0b576040517f08c379a0000000000000000000000000000000000000000000000000000000008152600401610a0290614404565b60405180910390fd5b6004600085815260200190815260200160002060080160009054906101000a900473ffffffffffffffffffffffffffffffffffffffff168073ffffffffffffffffffffffffffffffffffffffff163373ffffffffffffffffffffffffffffffffffffffff1614610ab0576040517f08c379a0000000000000000000000000000000000000000000000000000000008152600401610aa790614496565b60405180910390fd5b60056004600087815260200190815260200160002060040160006101000a81548160ff02191690836006811115610aea57610ae9614098565b5b02179055508360046000878152602001908152602001600020600301819055507f6826140490b8e3cb7f1acaadc491af2c8803ed6a350ed83565db9fe625e1afe785604051610b3991906144b6565b60405180910390a15050505050565b806003806007811115610b5e57610b5d614098565b5b6003600084815260200190815260200160002060040160009054906101000a900460ff166007811115610b9457610b93614098565b5b14610bd4576040517f08c379a0000000000000000000000000000000000000000000000000000000008152600401610bcb9061451d565b60405180910390fd5b6003600084815260200190815260200160002060040160019054906101000a900473ffffffffffffffffffffffffffffffffffffffff168073ffffffffffffffffffffffffffffffffffffffff163373ffffffffffffffffffffffffffffffffffffffff1614610c79576040517f08c379a0000000000000000000000000000000000000000000000000000000008152600401610c7090614496565b60405180910390fd5b60046003600086815260200190815260200160002060040160006101000a81548160ff02191690836007811115610cb357610cb2614098565b5b02179055507fb0f262e603193ef3ed2b0b01b78396d7870e77697078825ae3728169b4913d8584604051610ce791906144b6565b60405180910390a150505050565b806002806006811115610d0b57610d0a614098565b5b6004600084815260200190815260200160002060040160009054906101000a900460ff166006811115610d4157610d40614098565b5b14610d81576040517f08c379a0000000000000000000000000000000000000000000000000000000008152600401610d7890614404565b60405180910390fd5b336004600085815260200190815260200160002060070160006101000a81548173ffffffffffffffffffffffffffffffffffffffff021916908373ffffffffffffffffffffffffffffffffffffffff16021790555060036004600085815260200190815260200160002060040160006101000a81548160ff02191690836006811115610e1057610e0f614098565b5b0217905550505050565b7f7c6181838a71a779e445600d4c6ecbe16bacf2b3c5bda69c29fada66d1b645d1610e4c81610e476135a4565b6135ac565b60018054610e5a919061456c565b600181905550604051806101600160405280878152602001868152602001600154815260200185815260200160006007811115610e9a57610e99614098565b5b81526020013373ffffffffffffffffffffffffffffffffffffffff168152602001848152602001838152602001600073ffffffffffffffffffffffffffffffffffffffff168152602001600073ffffffffffffffffffffffffffffffffffffffff1681526020016000815250600360008781526020019081526020016000206000820151816000019080519060200190610f35929190613a50565b5060208201518160010155604082015181600201556060820151816003015560808201518160040160006101000a81548160ff02191690836007811115610f7f57610f7e614098565b5b021790555060a08201518160040160016101000a81548173ffffffffffffffffffffffffffffffffffffffff021916908373ffffffffffffffffffffffffffffffffffffffff16021790555060c0820151816005019080519060200190610fe7929190613a50565b5060e0820151816006019080519060200190611004929190613a50565b506101008201518160070160006101000a81548173ffffffffffffffffffffffffffffffffffffffff021916908373ffffffffffffffffffffffffffffffffffffffff1602179055506101208201518160080160006101000a81548173ffffffffffffffffffffffffffffffffffffffff021916908373ffffffffffffffffffffffffffffffffffffffff1602179055506101408201518160090155905050505050505050565b8060028060078111156110c1576110c0614098565b5b6003600084815260200190815260200160002060040160009054906101000a900460ff1660078111156110f7576110f6614098565b5b14611137576040517f08c379a000000000000000000000000000000000000000000000000000000000815260040161112e9061451d565b60405180910390fd5b600360008481526020019081526020016000206003015480341015611191576040517f08c379a000000000000000000000000000000000000000000000000000000000815260040161118890614634565b60405180910390fd5b7f27da0df33edb39ead40f7084fea0d01eda6f679d5fa512a477172d5ff42208586111c3816111be6135a4565b6135ac565b84600033905060006003600089815260200190815260200160002060030154905081600360008a815260200190815260200160002060080160006101000a81548173ffffffffffffffffffffffffffffffffffffffff021916908373ffffffffffffffffffffffffffffffffffffffff16021790555060038060008a815260200190815260200160002060040160006101000a81548160ff0219169083600781111561127257611271614098565b5b021790555060006112b8600360008b815260200190815260200160002060040160019054906101000a900473ffffffffffffffffffffffffffffffffffffffff16613649565b90508073ffffffffffffffffffffffffffffffffffffffff166108fc839081150290604051600060405180830381858888f19350505050158015611300573d6000803e3d6000fd5b507f92f64ca637d023f354075a4be751b169c1a8a9ccb6d33cdd0cb35205439957278960405161133091906144b6565b60405180910390a1505050600060036000838152602001908152602001600020600301549050600081346113649190614654565b905060006113a76003600086815260200190815260200160002060080160009054906101000a900473ffffffffffffffffffffffffffffffffffffffff16613649565b90508073ffffffffffffffffffffffffffffffffffffffff166108fc839081150290604051600060405180830381858888f193505050501580156113ef573d6000803e3d6000fd5b50505050505050505050565b7f288a15c4a15d470e4cd9cad2f113b91206b520c26dbd3dd74627f0c057baa19c81565b7f2a5f906c256a5d799494fcd066e1f6c077689de1cdb65052a1624de4bace99bf81565b6000806000838152602001908152602001600020600101549050919050565b61146b82611443565b61147c816114776135a4565b6135ac565b6114868383613653565b505050565b6114936135a4565b73ffffffffffffffffffffffffffffffffffffffff168173ffffffffffffffffffffffffffffffffffffffff1614611500576040517f08c379a00000000000000000000000000000000000000000000000000000000081526004016114f7906146fa565b60405180910390fd5b61150a8282613733565b5050565b80600080600681111561152457611523614098565b5b6004600084815260200190815260200160002060040160009054906101000a900460ff16600681111561155a57611559614098565b5b1461159a576040517f08c379a000000000000000000000000000000000000000000000000000000000815260040161159190614404565b60405180910390fd5b7f2a5f906c256a5d799494fcd066e1f6c077689de1cdb65052a1624de4bace99bf6115cc816115c76135a4565b6135ac565b600460008581526020019081526020016000206003015480341015611626576040517f08c379a000000000000000000000000000000000000000000000000000000000815260040161161d90614634565b60405180910390fd5b84600033905060006004600089815260200190815260200160002060030154905081600460008a815260200190815260200160002060080160006101000a81548173ffffffffffffffffffffffffffffffffffffffff021916908373ffffffffffffffffffffffffffffffffffffffff1602179055506001600460008a815260200190815260200160002060040160006101000a81548160ff021916908360068111156116d6576116d5614098565b5b0217905550600061171c600460008b815260200190815260200160002060040160019054906101000a900473ffffffffffffffffffffffffffffffffffffffff16613649565b90508073ffffffffffffffffffffffffffffffffffffffff166108fc839081150290604051600060405180830381858888f19350505050158015611764573d6000803e3d6000fd5b50505050600060046000838152602001908152602001600020600301549050600081346117919190614654565b9050600061179e33613649565b90508073ffffffffffffffffffffffffffffffffffffffff166108fc839081150290604051600060405180830381858888f193505050501580156117e6573d6000803e3d6000fd5b50505050505050505050565b80600180600681111561180857611807614098565b5b6004600084815260200190815260200160002060040160009054906101000a900460ff16600681111561183e5761183d614098565b5b1461187e576040517f08c379a000000000000000000000000000000000000000000000000000000000815260040161187590614404565b60405180910390fd5b6004600084815260200190815260200160002060040160019054906101000a900473ffffffffffffffffffffffffffffffffffffffff168073ffffffffffffffffffffffffffffffffffffffff163373ffffffffffffffffffffffffffffffffffffffff1614611923576040517f08c379a000000000000000000000000000000000000000000000000000000000815260040161191a90614496565b60405180910390fd5b60026004600086815260200190815260200160002060040160006101000a81548160ff0219169083600681111561195d5761195c614098565b5b02179055507fb0f262e603193ef3ed2b0b01b78396d7870e77697078825ae3728169b4913d858460405161199191906144b6565b60405180910390a150505050565b7f27da0df33edb39ead40f7084fea0d01eda6f679d5fa512a477172d5ff422085881565b60606000806000806060806000806000806000600460008e815260200190815260200160002060405180610180016040529081600082018054611a0590614749565b80601f0160208091040260200160405190810160405280929190818152602001828054611a3190614749565b8015611a7e5780601f10611a5357610100808354040283529160200191611a7e565b820191906000526020600020905b815481529060010190602001808311611a6157829003601f168201915b505050505081526020016001820154815260200160028201548152602001600382015481526020016004820160009054906101000a900460ff166006811115611aca57611ac9614098565b5b6006811115611adc57611adb614098565b5b81526020016004820160019054906101000a900473ffffffffffffffffffffffffffffffffffffffff1673ffffffffffffffffffffffffffffffffffffffff1673ffffffffffffffffffffffffffffffffffffffff168152602001600582018054611b4690614749565b80601f0160208091040260200160405190810160405280929190818152602001828054611b7290614749565b8015611bbf5780601f10611b9457610100808354040283529160200191611bbf565b820191906000526020600020905b815481529060010190602001808311611ba257829003601f168201915b50505050508152602001600682018054611bd890614749565b80601f0160208091040260200160405190810160405280929190818152602001828054611c0490614749565b8015611c515780601f10611c2657610100808354040283529160200191611c51565b820191906000526020600020905b815481529060010190602001808311611c3457829003601f168201915b505050505081526020016007820160009054906101000a900473ffffffffffffffffffffffffffffffffffffffff1673ffffffffffffffffffffffffffffffffffffffff1673ffffffffffffffffffffffffffffffffffffffff1681526020016008820160009054906101000a900473ffffffffffffffffffffffffffffffffffffffff1673ffffffffffffffffffffffffffffffffffffffff1673ffffffffffffffffffffffffffffffffffffffff1681526020016009820160009054906101000a900473ffffffffffffffffffffffffffffffffffffffff1673ffffffffffffffffffffffffffffffffffffffff1673ffffffffffffffffffffffffffffffffffffffff168152602001600a820154815250509050604051806020016040528060008152508051906020012081600001518051906020012003611dcb576040517f08c379a0000000000000000000000000000000000000000000000000000000008152600401611dc2906147ec565b60405180910390fd5b80600001519b508b81604001519b508b82606001519b508b83608001519b508b8460a001519b508b8560c001519b508b8660e001519b508b8761010001519b508b8861012001519b508b8961014001519b508b8a61016001519b509b509b509b509b509b509b509b509b509b509b505091939597999b90929496989a50565b7ff309ffc42715a0bfccdfa0c4cac305505f15ab9b9262b7451ceea96c0cc35187828051906020012003611ea357611ea27f7c6181838a71a779e445600d4c6ecbe16bacf2b3c5bda69c29fada66d1b645d182611462565b5b7f17c21644ceec3cd074affabc036a9ba81c877859652aa2cc2d3a8ad102bf9732828051906020012003611efc57611efb7f27da0df33edb39ead40f7084fea0d01eda6f679d5fa512a477172d5ff422085882611462565b5b7f85faced7bde13e1a7dad704b895f006e704f207617d68166b31ba2d79624862d828051906020012003611f5557611f547ffbd454f36a7e1a388bd6fc3ab10d434aa4578f811acbbcf33afb1c697486313c82611462565b5b7f27d5ccc46db01bfa5691ce092fe276221c6cd0aa6d05765b52c3ddecfa70421a828051906020012003611fae57611fad7f2a5f906c256a5d799494fcd066e1f6c077689de1cdb65052a1624de4bace99bf82611462565b5b7f46e0d1fa2be0423550e96859e7c25c6f3178358b189469f16373069e7f092a0a828051906020012003612007576120067f288a15c4a15d470e4cd9cad2f113b91206b520c26dbd3dd74627f0c057baa19c82611462565b5b5050565b80600580600781111561202157612020614098565b5b6003600084815260200190815260200160002060040160009054906101000a900460ff16600781111561205757612056614098565b5b14612097576040517f08c379a000000000000000000000000000000000000000000000000000000000815260040161208e9061451d565b60405180910390fd5b6003600084815260200190815260200160002060070160009054906101000a900473ffffffffffffffffffffffffffffffffffffffff168073ffffffffffffffffffffffffffffffffffffffff163373ffffffffffffffffffffffffffffffffffffffff161461213c576040517f08c379a000000000000000000000000000000000000000000000000000000000815260040161213390614496565b60405180910390fd5b60066003600086815260200190815260200160002060040160006101000a81548160ff0219169083600781111561217657612175614098565b5b02179055507ffcc296b8bdd64e3f1d1faadef50cb2d6550f645316330fe57cb1dd7e0612ead0846040516121aa91906144b6565b60405180910390a150505050565b8460068060078111156121ce576121cd614098565b5b6003600084815260200190815260200160002060040160009054906101000a900460ff16600781111561220457612203614098565b5b14612244576040517f08c379a000000000000000000000000000000000000000000000000000000000815260040161223b9061451d565b60405180910390fd5b6003600088815260200190815260200160002060080160009054906101000a900473ffffffffffffffffffffffffffffffffffffffff168073ffffffffffffffffffffffffffffffffffffffff163373ffffffffffffffffffffffffffffffffffffffff16146122e9576040517f08c379a00000000000000000000000000000000000000000000000000000000081526004016122e090614496565b60405180910390fd5b60016002546122f8919061456c565b6002819055506007600360008a815260200190815260200160002060040160006101000a81548160ff0219169083600781111561233857612337614098565b5b021790555086600360008a8152602001908152602001600020600901819055506040518061018001604052808a815260200188815260200160025481526020018781526020016000600681111561239257612391614098565b5b81526020013373ffffffffffffffffffffffffffffffffffffffff168152602001868152602001858152602001600073ffffffffffffffffffffffffffffffffffffffff168152602001600073ffffffffffffffffffffffffffffffffffffffff168152602001600073ffffffffffffffffffffffffffffffffffffffff16815260200189815250600460008981526020019081526020016000206000820151816000019080519060200190612449929190613a50565b5060208201518160010155604082015181600201556060820151816003015560808201518160040160006101000a81548160ff0219169083600681111561249357612492614098565b5b021790555060a08201518160040160016101000a81548173ffffffffffffffffffffffffffffffffffffffff021916908373ffffffffffffffffffffffffffffffffffffffff16021790555060c08201518160050190805190602001906124fb929190613a50565b5060e0820151816006019080519060200190612518929190613a50565b506101008201518160070160006101000a81548173ffffffffffffffffffffffffffffffffffffffff021916908373ffffffffffffffffffffffffffffffffffffffff1602179055506101208201518160080160006101000a81548173ffffffffffffffffffffffffffffffffffffffff021916908373ffffffffffffffffffffffffffffffffffffffff1602179055506101408201518160090160006101000a81548173ffffffffffffffffffffffffffffffffffffffff021916908373ffffffffffffffffffffffffffffffffffffffff16021790555061016082015181600a01559050507f9d1715437821cd9a90cba5d1a68995c308d9ad9afc754ed9a1cff429760796e68760405161262e91906144b6565b60405180910390a1505050505050505050565b6003600082815260200190815260200160002060040160019054906101000a900473ffffffffffffffffffffffffffffffffffffffff168073ffffffffffffffffffffffffffffffffffffffff163373ffffffffffffffffffffffffffffffffffffffff16146126e6576040517f08c379a00000000000000000000000000000000000000000000000000000000081526004016126dd90614496565b60405180910390fd5b60016003600084815260200190815260200160002060040160006101000a81548160ff021916908360078111156127205761271f614098565b5b02179055505050565b6003600082815260200190815260200160002060040160019054906101000a900473ffffffffffffffffffffffffffffffffffffffff168073ffffffffffffffffffffffffffffffffffffffff163373ffffffffffffffffffffffffffffffffffffffff16146127ce576040517f08c379a00000000000000000000000000000000000000000000000000000000081526004016127c590614496565b60405180910390fd5b7f8e55ccfc9778ff8eba1646d765cf1982537ce0f9257054a17b48aad745250183826040516127fd91906144b6565b60405180910390a160026003600084815260200190815260200160002060040160006101000a81548160ff0219169083600781111561283f5761283e614098565b5b02179055505050565b600080600084815260200190815260200160002060000160008373ffffffffffffffffffffffffffffffffffffffff1673ffffffffffffffffffffffffffffffffffffffff16815260200190815260200160002060009054906101000a900460ff16905092915050565b60007ff309ffc42715a0bfccdfa0c4cac305505f15ab9b9262b7451ceea96c0cc3518783805190602001200361290f5761290c7f7c6181838a71a779e445600d4c6ecbe16bacf2b3c5bda69c29fada66d1b645d183612848565b90505b7f17c21644ceec3cd074affabc036a9ba81c877859652aa2cc2d3a8ad102bf973283805190602001200361296a576129677f27da0df33edb39ead40f7084fea0d01eda6f679d5fa512a477172d5ff422085883612848565b90505b7f85faced7bde13e1a7dad704b895f006e704f207617d68166b31ba2d79624862d8380519060200120036129c5576129c27ffbd454f36a7e1a388bd6fc3ab10d434aa4578f811acbbcf33afb1c697486313c83612848565b90505b7f27d5ccc46db01bfa5691ce092fe276221c6cd0aa6d05765b52c3ddecfa70421a838051906020012003612a2057612a1d7f2a5f906c256a5d799494fcd066e1f6c077689de1cdb65052a1624de4bace99bf83612848565b90505b7f46e0d1fa2be0423550e96859e7c25c6f3178358b189469f16373069e7f092a0a838051906020012003612a7b57612a787f288a15c4a15d470e4cd9cad2f113b91206b520c26dbd3dd74627f0c057baa19c83612848565b90505b92915050565b6000801b81565b6060600080600080606080600080600080600360008d815260200190815260200160002060405180610160016040529081600082018054612ac890614749565b80601f0160208091040260200160405190810160405280929190818152602001828054612af490614749565b8015612b415780601f10612b1657610100808354040283529160200191612b41565b820191906000526020600020905b815481529060010190602001808311612b2457829003601f168201915b505050505081526020016001820154815260200160028201548152602001600382015481526020016004820160009054906101000a900460ff166007811115612b8d57612b8c614098565b5b6007811115612b9f57612b9e614098565b5b81526020016004820160019054906101000a900473ffffffffffffffffffffffffffffffffffffffff1673ffffffffffffffffffffffffffffffffffffffff1673ffffffffffffffffffffffffffffffffffffffff168152602001600582018054612c0990614749565b80601f0160208091040260200160405190810160405280929190818152602001828054612c3590614749565b8015612c825780601f10612c5757610100808354040283529160200191612c82565b820191906000526020600020905b815481529060010190602001808311612c6557829003601f168201915b50505050508152602001600682018054612c9b90614749565b80601f0160208091040260200160405190810160405280929190818152602001828054612cc790614749565b8015612d145780601f10612ce957610100808354040283529160200191612d14565b820191906000526020600020905b815481529060010190602001808311612cf757829003601f168201915b505050505081526020016007820160009054906101000a900473ffffffffffffffffffffffffffffffffffffffff1673ffffffffffffffffffffffffffffffffffffffff1673ffffffffffffffffffffffffffffffffffffffff1681526020016008820160009054906101000a900473ffffffffffffffffffffffffffffffffffffffff1673ffffffffffffffffffffffffffffffffffffffff1673ffffffffffffffffffffffffffffffffffffffff1681526020016009820154815250509050604051806020016040528060008152508051906020012081600001518051906020012003612e38576040517f08c379a0000000000000000000000000000000000000000000000000000000008152600401612e2f9061487e565b60405180910390fd5b80600001519a508a81604001519a508a82606001519a508a83608001519a508a8460a001519a508a8560c001519a508a8660e001519a508a8761010001519a508a8861012001519a508a8961014001519a509a509a509a509a509a509a509a509a509a50509193959799509193959799565b806005806006811115612ec057612ebf614098565b5b6004600084815260200190815260200160002060040160009054906101000a900460ff166006811115612ef657612ef5614098565b5b14612f36576040517f08c379a0000000000000000000000000000000000000000000000000000000008152600401612f2d90614404565b60405180910390fd5b7f288a15c4a15d470e4cd9cad2f113b91206b520c26dbd3dd74627f0c057baa19c612f6881612f636135a4565b6135ac565b600460008581526020019081526020016000206003015480341015612fc2576040517f08c379a0000000000000000000000000000000000000000000000000000000008152600401612fb990614634565b60405180910390fd5b84600033905060006004600089815260200190815260200160002060030154905081600460008a815260200190815260200160002060090160006101000a81548173ffffffffffffffffffffffffffffffffffffffff021916908373ffffffffffffffffffffffffffffffffffffffff1602179055506006600460008a815260200190815260200160002060040160006101000a81548160ff0219169083600681111561307257613071614098565b5b021790555060006130b8600460008b815260200190815260200160002060080160009054906101000a900473ffffffffffffffffffffffffffffffffffffffff16613649565b90508073ffffffffffffffffffffffffffffffffffffffff166108fc839081150290604051600060405180830381858888f19350505050158015613100573d6000803e3d6000fd5b507f92f64ca637d023f354075a4be751b169c1a8a9ccb6d33cdd0cb35205439957278960405161313091906144b6565b60405180910390a1505050600060046000838152602001908152602001600020600301549050600081346131649190614654565b9050600061317133613649565b90508073ffffffffffffffffffffffffffffffffffffffff166108fc839081150290604051600060405180830381858888f193505050501580156131b9573d6000803e3d6000fd5b50505050505050505050565b6131ce82611443565b6131df816131da6135a4565b6135ac565b6131e98383613733565b505050565b80600380600681111561320457613203614098565b5b6004600084815260200190815260200160002060040160009054906101000a900460ff16600681111561323a57613239614098565b5b1461327a576040517f08c379a000000000000000000000000000000000000000000000000000000000815260040161327190614404565b60405180910390fd5b6004600084815260200190815260200160002060070160009054906101000a900473ffffffffffffffffffffffffffffffffffffffff168073ffffffffffffffffffffffffffffffffffffffff163373ffffffffffffffffffffffffffffffffffffffff161461331f576040517f08c379a000000000000000000000000000000000000000000000000000000000815260040161331690614496565b60405180910390fd5b600480600086815260200190815260200160002060040160006101000a81548160ff0219169083600681111561335857613357614098565b5b02179055507ffcc296b8bdd64e3f1d1faadef50cb2d6550f645316330fe57cb1dd7e0612ead08460405161338c91906144b6565b60405180910390a150505050565b7ffbd454f36a7e1a388bd6fc3ab10d434aa4578f811acbbcf33afb1c697486313c81565b7f7c6181838a71a779e445600d4c6ecbe16bacf2b3c5bda69c29fada66d1b645d181565b7ffbd454f36a7e1a388bd6fc3ab10d434aa4578f811acbbcf33afb1c697486313c6134148161340f6135a4565b6135ac565b81600480600781111561342a57613429614098565b5b6003600084815260200190815260200160002060040160009054906101000a900460ff1660078111156134605761345f614098565b5b146134a0576040517f08c379a00000000000000000000000000000000000000000000000000000000081526004016134979061451d565b60405180910390fd5b336003600086815260200190815260200160002060070160006101000a81548173ffffffffffffffffffffffffffffffffffffffff021916908373ffffffffffffffffffffffffffffffffffffffff16021790555060056003600086815260200190815260200160002060040160006101000a81548160ff0219169083600781111561352f5761352e614098565b5b021790555050505050565b60007f01ffc9a7000000000000000000000000000000000000000000000000000000007bffffffffffffffffffffffffffffffffffffffffffffffffffffffff1916827bffffffffffffffffffffffffffffffffffffffffffffffffffffffff1916149050919050565b600033905090565b6135b68282612848565b613645576135db8173ffffffffffffffffffffffffffffffffffffffff166014613814565b6135e98360001c6020613814565b6040516020016135fa929190614972565b6040516020818303038152906040526040517f08c379a000000000000000000000000000000000000000000000000000000000815260040161363c91906149ac565b60405180910390fd5b5050565b6000819050919050565b61365d8282612848565b61372f57600160008084815260200190815260200160002060000160008373ffffffffffffffffffffffffffffffffffffffff1673ffffffffffffffffffffffffffffffffffffffff16815260200190815260200160002060006101000a81548160ff0219169083151502179055506136d46135a4565b73ffffffffffffffffffffffffffffffffffffffff168173ffffffffffffffffffffffffffffffffffffffff16837f2f8788117e7eff1d82e926ec794901d17c78024a50270940304540a733656f0d60405160405180910390a45b5050565b61373d8282612848565b1561381057600080600084815260200190815260200160002060000160008373ffffffffffffffffffffffffffffffffffffffff1673ffffffffffffffffffffffffffffffffffffffff16815260200190815260200160002060006101000a81548160ff0219169083151502179055506137b56135a4565b73ffffffffffffffffffffffffffffffffffffffff168173ffffffffffffffffffffffffffffffffffffffff16837ff6391f5c32d9c69d2a47ea670b442974b53935d1edc7fd64eb21e047a839171b60405160405180910390a45b5050565b60606000600283600261382791906149ce565b613831919061456c565b67ffffffffffffffff81111561384a57613849613bdd565b5b6040519080825280601f01601f19166020018201604052801561387c5781602001600182028036833780820191505090505b5090507f3000000000000000000000000000000000000000000000000000000000000000816000815181106138b4576138b3614a28565b5b60200101907effffffffffffffffffffffffffffffffffffffffffffffffffffffffffffff1916908160001a9053507f78000000000000000000000000000000000000000000000000000000000000008160018151811061391857613917614a28565b5b60200101907effffffffffffffffffffffffffffffffffffffffffffffffffffffffffffff1916908160001a9053506000600184600261395891906149ce565b613962919061456c565b90505b6001811115613a02577f3031323334353637383961626364656600000000000000000000000000000000600f8616601081106139a4576139a3614a28565b5b1a60f81b8282815181106139bb576139ba614a28565b5b60200101907effffffffffffffffffffffffffffffffffffffffffffffffffffffffffffff1916908160001a905350600485901c9450806139fb90614a57565b9050613965565b5060008414613a46576040517f08c379a0000000000000000000000000000000000000000000000000000000008152600401613a3d90614acc565b60405180910390fd5b8091505092915050565b828054613a5c90614749565b90600052602060002090601f016020900481019282613a7e5760008555613ac5565b82601f10613a9757805160ff1916838001178555613ac5565b82800160010185558215613ac5579182015b82811115613ac4578251825591602001919060010190613aa9565b5b509050613ad29190613ad6565b5090565b5b80821115613aef576000816000905550600101613ad7565b5090565b6000604051905090565b600080fd5b600080fd5b60007fffffffff0000000000000000000000000000000000000000000000000000000082169050919050565b613b3c81613b07565b8114613b4757600080fd5b50565b600081359050613b5981613b33565b92915050565b600060208284031215613b7557613b74613afd565b5b6000613b8384828501613b4a565b91505092915050565b60008115159050919050565b613ba181613b8c565b82525050565b6000602082019050613bbc6000830184613b98565b92915050565b600080fd5b600080fd5b6000601f19601f8301169050919050565b7f4e487b7100000000000000000000000000000000000000000000000000000000600052604160045260246000fd5b613c1582613bcc565b810181811067ffffffffffffffff82111715613c3457613c33613bdd565b5b80604052505050565b6000613c47613af3565b9050613c538282613c0c565b919050565b600067ffffffffffffffff821115613c7357613c72613bdd565b5b613c7c82613bcc565b9050602081019050919050565b82818337600083830152505050565b6000613cab613ca684613c58565b613c3d565b905082815260208101848484011115613cc757613cc6613bc7565b5b613cd2848285613c89565b509392505050565b600082601f830112613cef57613cee613bc2565b5b8135613cff848260208601613c98565b91505092915050565b600073ffffffffffffffffffffffffffffffffffffffff82169050919050565b6000613d3382613d08565b9050919050565b613d4381613d28565b8114613d4e57600080fd5b50565b600081359050613d6081613d3a565b92915050565b60008060408385031215613d7d57613d7c613afd565b5b600083013567ffffffffffffffff811115613d9b57613d9a613b02565b5b613da785828601613cda565b9250506020613db885828601613d51565b9150509250929050565b6000819050919050565b613dd581613dc2565b8114613de057600080fd5b50565b600081359050613df281613dcc565b92915050565b60008060408385031215613e0f57613e0e613afd565b5b6000613e1d85828601613de3565b9250506020613e2e85828601613de3565b9150509250929050565b600060208284031215613e4e57613e4d613afd565b5b6000613e5c84828501613de3565b91505092915050565b600080600080600060a08688031215613e8157613e80613afd565b5b600086013567ffffffffffffffff811115613e9f57613e9e613b02565b5b613eab88828901613cda565b9550506020613ebc88828901613de3565b9450506040613ecd88828901613de3565b935050606086013567ffffffffffffffff811115613eee57613eed613b02565b5b613efa88828901613cda565b925050608086013567ffffffffffffffff811115613f1b57613f1a613b02565b5b613f2788828901613cda565b9150509295509295909350565b6000819050919050565b613f4781613f34565b82525050565b6000602082019050613f626000830184613f3e565b92915050565b613f7181613f34565b8114613f7c57600080fd5b50565b600081359050613f8e81613f68565b92915050565b600060208284031215613faa57613fa9613afd565b5b6000613fb884828501613f7f565b91505092915050565b60008060408385031215613fd857613fd7613afd565b5b6000613fe685828601613f7f565b9250506020613ff785828601613d51565b9150509250929050565b600081519050919050565b600082825260208201905092915050565b60005b8381101561403b578082015181840152602081019050614020565b8381111561404a576000848401525b50505050565b600061405b82614001565b614065818561400c565b935061407581856020860161401d565b61407e81613bcc565b840191505092915050565b61409281613dc2565b82525050565b7f4e487b7100000000000000000000000000000000000000000000000000000000600052602160045260246000fd5b600781106140d8576140d7614098565b5b50565b60008190506140e9826140c7565b919050565b60006140f9826140db565b9050919050565b614109816140ee565b82525050565b61411881613d28565b82525050565b6000610160820190508181036000830152614139818e614050565b9050614148602083018d614089565b614155604083018c614089565b614162606083018b614100565b61416f608083018a61410f565b81810360a08301526141818189614050565b905081810360c08301526141958188614050565b90506141a460e083018761410f565b6141b261010083018661410f565b6141c061012083018561410f565b6141ce610140830184614089565b9c9b505050505050505050505050565b60008060008060008060c087890312156141fb576141fa613afd565b5b600087013567ffffffffffffffff81111561421957614218613b02565b5b61422589828a01613cda565b965050602061423689828a01613de3565b955050604061424789828a01613de3565b945050606061425889828a01613de3565b935050608087013567ffffffffffffffff81111561427957614278613b02565b5b61428589828a01613cda565b92505060a087013567ffffffffffffffff8111156142a6576142a5613b02565b5b6142b289828a01613cda565b9150509295509295509295565b600881106142d0576142cf614098565b5b50565b60008190506142e1826142bf565b919050565b60006142f1826142d3565b9050919050565b614301816142e6565b82525050565b6000610140820190508181036000830152614322818d614050565b9050614331602083018c614089565b61433e604083018b614089565b61434b606083018a6142f8565b614358608083018961410f565b81810360a083015261436a8188614050565b905081810360c083015261437e8187614050565b905061438d60e083018661410f565b61439b61010083018561410f565b6143a9610120830184614089565b9b9a5050505050505050505050565b7f54686520746f6675207374617465206973206e6f7420636f7272656374000000600082015250565b60006143ee601d8361400c565b91506143f9826143b8565b602082019050919050565b6000602082019050818103600083015261441d816143e1565b9050919050565b7f546865206d6573736167652073656e646572206973206e6f742074686520657860008201527f7065637465642061646472657373000000000000000000000000000000000000602082015250565b6000614480602e8361400c565b915061448b82614424565b604082019050919050565b600060208201905081810360008301526144af81614473565b9050919050565b60006020820190506144cb6000830184614089565b92915050565b7f54686520736f79207374617465206973206e6f7420636f727265637400000000600082015250565b6000614507601c8361400c565b9150614512826144d1565b602082019050919050565b60006020820190508181036000830152614536816144fa565b9050919050565b7f4e487b7100000000000000000000000000000000000000000000000000000000600052601160045260246000fd5b600061457782613dc2565b915061458283613dc2565b9250827fffffffffffffffffffffffffffffffffffffffffffffffffffffffffffffffff038211156145b7576145b661453d565b5b828201905092915050565b7f546865206d65737361676520646f6573206e6f7420636f6e7461696e20656e6f60008201527f7567682045746865720000000000000000000000000000000000000000000000602082015250565b600061461e60298361400c565b9150614629826145c2565b604082019050919050565b6000602082019050818103600083015261464d81614611565b9050919050565b600061465f82613dc2565b915061466a83613dc2565b92508282101561467d5761467c61453d565b5b828203905092915050565b7f416363657373436f6e74726f6c3a2063616e206f6e6c792072656e6f756e636560008201527f20726f6c657320666f722073656c660000000000000000000000000000000000602082015250565b60006146e4602f8361400c565b91506146ef82614688565b604082019050919050565b60006020820190508181036000830152614713816146d7565b9050919050565b7f4e487b7100000000000000000000000000000000000000000000000000000000600052602260045260246000fd5b6000600282049050600182168061476157607f821691505b6020821081036147745761477361471a565b5b50919050565b7f5175657269656420746f667520696e666f20666f72206e6f6e6578697374656e60008201527f7420555043000000000000000000000000000000000000000000000000000000602082015250565b60006147d660258361400c565b91506147e18261477a565b604082019050919050565b60006020820190508181036000830152614805816147c9565b9050919050565b7f5175657269656420736f7920696e666f20666f72206e6f6e6578697374656e7460008201527f2055504300000000000000000000000000000000000000000000000000000000602082015250565b600061486860248361400c565b91506148738261480c565b604082019050919050565b600060208201905081810360008301526148978161485b565b9050919050565b600081905092915050565b7f416363657373436f6e74726f6c3a206163636f756e7420000000000000000000600082015250565b60006148df60178361489e565b91506148ea826148a9565b601782019050919050565b600061490082614001565b61490a818561489e565b935061491a81856020860161401d565b80840191505092915050565b7f206973206d697373696e6720726f6c6520000000000000000000000000000000600082015250565b600061495c60118361489e565b915061496782614926565b601182019050919050565b600061497d826148d2565b915061498982856148f5565b91506149948261494f565b91506149a082846148f5565b91508190509392505050565b600060208201905081810360008301526149c68184614050565b905092915050565b60006149d982613dc2565b91506149e483613dc2565b9250817fffffffffffffffffffffffffffffffffffffffffffffffffffffffffffffffff0483118215151615614a1d57614a1c61453d565b5b828202905092915050565b7f4e487b7100000000000000000000000000000000000000000000000000000000600052603260045260246000fd5b6000614a6282613dc2565b915060008203614a7557614a7461453d565b5b600182039050919050565b7f537472696e67733a20686578206c656e67746820696e73756666696369656e74600082015250565b6000614ab660208361400c565b9150614ac182614a80565b602082019050919050565b60006020820190508181036000830152614ae581614aa9565b905091905056fea2646970667358221220d3cb41ccfab7c46e1b1d54dd3c1224e8b26214995e21424dcdd94020b0a3693b64736f6c634300080d0033",
  "immutableReferences": {},
  "source": "// SPDX-License-Identifier: UNLICENSED\npragma solidity ^0.8.13;\n\nimport \"@openzeppelin/contracts/access/AccessControl.sol\";\n\n// Define the contract 'SupplyChain'\ncontract SupplyChain is AccessControl {\n    // Holds all functions and structs\n\n    //address owner;\n    uint skuCountSoy;\n    uint skuCountTofu;\n\n    // Roles within the tofu supply chain\n    bytes32 public constant FARMER_ROLE = keccak256(\"FARMER_ROLE\");\n    bytes32 public constant TOFUPRODUCER_ROLE = keccak256(\"TOFUPRODUCER_ROLE\");\n    bytes32 public constant DISTRIBUTOR_ROLE = keccak256(\"DISTRIBUTOR_ROLE\");\n    bytes32 public constant RETAILER_ROLE = keccak256(\"RETAILER_ROLE\");\n    bytes32 public constant CUSTOMER_ROLE = keccak256(\"CUSTOMER_ROLE\");\n\n    // Enums for soy/tofu states\n    enum soyState {Planted, Ripe, Harvested, Ordered, ReadyForShipping, Shipping, Delivered, Used}\n    enum tofuState {Produced, Ordered, ReadyForShipping, Shipping, Delivered, OnSale, Sold}\n\n    // Soy. name, upc, price, state, seller, buyer\n    struct Soy {\n        string  name;\n        uint  upc;\n        uint sku;\n        uint  price;\n        soyState  state;\n        address  farmer;       \n        string originLatitude;\n        string originLongitude;\n        address distributor;\n        address  buyer;         // Tofu Company\n        uint toTofuUpc;\n    }\n\n    // Tofu. name, upc, price, state, seller, buyer\n    struct Tofu {\n        string  name;\n        uint  upc;\n        uint sku;\n        uint  price;\n        tofuState  state;\n        address  producer;      // Tofu Company\n        string originLatitude;\n        string originLongitude;\n        address  distributor;\n        address retailer;\n        address buyer;          // Final customer in retail store\n        uint fromSoyUpc;\n    }\n\n    // Map the UPC to a unit of soy/tofu.\n    mapping (uint => Soy) soys;\n    mapping (uint => Tofu) tofus;\n\n    // Events\n    event Harvested(uint upc);\n    event Produced(uint upc);\n    event ReadyForShipping(uint upc);\n    event Delivered(uint upc);\n    event OnSale(uint upc);\n    event Sold(uint upc);\n\n    constructor() payable {\n        //owner = msg.sender;\n        _setupRole(DEFAULT_ADMIN_ROLE, msg.sender);\n        skuCountSoy = 0;\n        skuCountTofu = 100;\n    }\n\n    // Get soy info \n    function getSoy(uint _soyUpc) public view returns (\n        string memory  name,\n        uint sku,\n        uint  price,\n        soyState  state,\n        address  farmer,       \n        string memory originLatitude,\n        string memory originLongitude,\n        address distributor,\n        address  buyer,         \n        uint toTofuUpc\n    ) {\n        Soy memory queriedSoy = soys[_soyUpc];\n        require(keccak256(bytes(queriedSoy.name)) != keccak256(bytes(\"\")), \"Queried soy info for nonexistent UPC\"); // Thanks to Greg Mikeska: https://ethereum.stackexchange.com/a/11754\n        return (\n            name = queriedSoy.name,\n            sku = queriedSoy.sku,\n            price = queriedSoy.price,\n            state = queriedSoy.state,\n            farmer = queriedSoy.farmer,\n            originLatitude = queriedSoy.originLatitude,\n            originLongitude = queriedSoy.originLongitude,\n            distributor = queriedSoy.distributor,\n            buyer = queriedSoy.buyer,\n            toTofuUpc = queriedSoy.toTofuUpc\n        );\n    }\n\n    // Get tofu info \n    function getTofu(uint _tofuUpc) public view returns (\n            string memory name,\n            uint sku,\n            uint  price,\n            tofuState  state,\n            address  producer,      \n            string memory originLatitude,\n            string memory originLongitude,\n            address  distributor,\n            address retailer,\n            address buyer,          \n            uint fromSoyUpc\n        ) {\n        Tofu memory queriedTofu = tofus[_tofuUpc];\n        require(keccak256(bytes(queriedTofu.name)) != keccak256(bytes(\"\")), \"Queried tofu info for nonexistent UPC\"); // Thanks to Greg Mikeska: https://ethereum.stackexchange.com/a/11754\n        return (\n            name = queriedTofu.name,\n            sku = queriedTofu.sku,\n            price = queriedTofu.price,\n            state = queriedTofu.state,\n            producer = queriedTofu.producer,\n            originLatitude = queriedTofu.originLatitude,\n            originLongitude = queriedTofu.originLongitude,\n            distributor = queriedTofu.distributor,\n            retailer = queriedTofu.retailer,\n            buyer = queriedTofu.buyer,\n            fromSoyUpc = queriedTofu.fromSoyUpc\n        );\n    }\n\n\n    // See if msg.sender == owner of the contract\n    /*\n    modifier onlyOwner() {\n        require(msg.sender == owner, \"Only the owner can call this function\");\n        _;\n    }\n    */\n\n    // Verify the Caller\n    modifier verifyCaller (address _address) {\n        require(msg.sender == _address, \"The message sender is not the expected address\");\n        _;\n    }\n\n    // Check if the paid amount is sufficient to cover the price\n    modifier paidEnough(uint _price) {\n        require(msg.value >= _price, \"The message does not contain enough Ether\");\n        _;\n    }\n\n    // Check if a unit of soy has a certain state\n    modifier checkSoyState(uint _upc, soyState _state) {\n        require(soys[_upc].state == _state, \"The soy state is not correct\");\n        _;\n    }\n\n    // Check if a unit of tofu has a certain state\n    modifier checkTofuState(uint _upc, tofuState _state) {\n        require(tofus[_upc].state == _state, \"The tofu state is not correct\");\n        _;\n    }\n\n    // Checks the price and refunds the remaining balance\n    modifier checkSoyValue(uint _upc) {\n        _;\n        uint _price = soys[_upc].price;\n        uint amountToRefund = msg.value - _price;\n        address payable buyerAddressPayable = _make_payable(soys[_upc].buyer);\n        buyerAddressPayable.transfer(amountToRefund);\n    }\n\n    modifier checkTofuValue(uint _upc) {\n        _;\n        uint _price = tofus[_upc].price;\n        uint amountToRefund = msg.value - _price;\n        \n        /* // Not useful since retailer and buyer are two entities to whom this modifier appliers (buy from farmer vs. buy from retailer)\n        address payable buyerAddressPayable = _make_payable(tofus[_upc].buyer);\n        buyerAddressPayable.transfer(amountToRefund);\n        */\n        address payable senderAddressPayable = _make_payable(msg.sender);\n        senderAddressPayable.transfer(amountToRefund);\n        \n    }\n\n    // Function that allows you to convert an address into a payable address\n    function _make_payable(address x) internal pure returns (address payable) {\n        return payable(x); // According to k06a's answer: https://ethereum.stackexchange.com/a/65694\n    }\n\n    // Access Control function\n    function addRole(string memory _role, address _newMember) public {\n        if (keccak256(bytes(_role)) == keccak256(\"FARMER\")) {\n            grantRole(FARMER_ROLE, _newMember);\n        } \n        if (keccak256(bytes(_role)) == keccak256(\"TOFUPRODUCER\")) {\n            grantRole(TOFUPRODUCER_ROLE, _newMember);\n        } \n        if (keccak256(bytes(_role)) == keccak256(\"DISTRIBUTOR\")) {\n            grantRole(DISTRIBUTOR_ROLE, _newMember);\n        } \n        if (keccak256(bytes(_role)) == keccak256(\"RETAILER\")) {\n            grantRole(RETAILER_ROLE, _newMember);\n        } \n        if (keccak256(bytes(_role)) == keccak256(\"CUSTOMER\")) {\n            grantRole(CUSTOMER_ROLE, _newMember);\n        } \n    }\n\n    function removeRole(string memory _role, address _oldMember) public {\n        if (keccak256(bytes(_role)) == keccak256(\"FARMER\")) {\n            revokeRole(FARMER_ROLE, _oldMember);\n        } \n        if (keccak256(bytes(_role)) == keccak256(\"TOFUPRODUCER\")) {\n            revokeRole(TOFUPRODUCER_ROLE, _oldMember);\n        } \n        if (keccak256(bytes(_role)) == keccak256(\"DISTRIBUTOR\")) {\n            revokeRole(DISTRIBUTOR_ROLE, _oldMember);\n        } \n        if (keccak256(bytes(_role)) == keccak256(\"RETAILER\")) {\n            revokeRole(RETAILER_ROLE, _oldMember);\n        } \n        if (keccak256(bytes(_role)) == keccak256(\"CUSTOMER\")) {\n            revokeRole(CUSTOMER_ROLE, _oldMember);\n        } \n    }\n\n    function isRole(string memory _role, address _member) public view returns (bool bHasRole) {\n        if (keccak256(bytes(_role)) == keccak256(\"FARMER\")) {\n            bHasRole = hasRole(FARMER_ROLE, _member);\n        } \n        if (keccak256(bytes(_role)) == keccak256(\"TOFUPRODUCER\")) {\n            bHasRole = hasRole(TOFUPRODUCER_ROLE, _member);\n        } \n        if (keccak256(bytes(_role)) == keccak256(\"DISTRIBUTOR\")) {\n            bHasRole = hasRole(DISTRIBUTOR_ROLE, _member);\n        } \n        if (keccak256(bytes(_role)) == keccak256(\"RETAILER\")) {\n            bHasRole = hasRole(RETAILER_ROLE, _member);\n        } \n        if (keccak256(bytes(_role)) == keccak256(\"CUSTOMER\")) {\n            bHasRole = hasRole(CUSTOMER_ROLE, _member);\n        } \n    }\n\n\n    function plantSoy(\n            string memory _name,\n            uint _upc,\n            uint _price,\n            string memory _lat,\n            string memory _long) public \n            onlyRole(FARMER_ROLE) {\n        // Increment sku\n        skuCountSoy = skuCountSoy + 1;\n\n        // Add the new soy into inventory and mark it as planted\n        soys[_upc] = Soy(\n            {\n                name: _name, \n                upc: _upc,\n                sku: skuCountSoy, \n                price: _price, \n                state: soyState.Planted, \n                farmer: msg.sender, \n                originLatitude: _lat,\n                originLongitude: _long,\n                distributor: address(0),\n                buyer: address(0), \n                toTofuUpc: 0\n            });\n    }\n\n    // When checking the soy, the farmer finds out that the soy is ripe (because of their experience, farmers don't check their soy prematurely)\n    function checkSoy(uint _upc) public \n        verifyCaller(soys[_upc].farmer) {\n        \n        soys[_upc].state = soyState.Ripe;\n    }\n\n    // The farmers have to harvest their soy\n    function harvestSoy(uint _upc) public \n        verifyCaller(soys[_upc].farmer) {\n        // Emit event to notify potential buyers\n        emit Harvested(_upc);\n\n        soys[_upc].state = soyState.Harvested;\n    }\n\n    // orderSoy allows to order one unit of soy from the farmer\n    function orderSoy(uint _upc) public payable\n        // Call modifier to check if upc is for sale\n        checkSoyState(_upc, soyState.Harvested)\n        // Call modifier to check if buyer has paid enough\n        paidEnough(soys[_upc].price)\n        // Call modifier to verify that sender is a tofu producer\n        onlyRole(TOFUPRODUCER_ROLE)\n        // Call modifier to send any excess ether back to buyer\n        checkSoyValue(_upc) {\n\n        address buyer = msg.sender;\n        uint  price = soys[_upc].price;\n        // Update buyer\n        soys[_upc].buyer = buyer;\n        // Update state\n        soys[_upc].state = soyState.Ordered;\n        // Transfer money to farmer\n        address payable farmerAddressPayable = _make_payable(soys[_upc].farmer);\n        farmerAddressPayable.transfer(price);\n        // emit the appropriate event\n        emit Sold(_upc);\n    }\n\n    // The farmer has to ship the soy\n    function shipSoy(uint _upc) public \n        checkSoyState(_upc, soyState.Ordered) \n        verifyCaller(soys[_upc].farmer) {\n\n        soys[_upc].state = soyState.ReadyForShipping;\n\n        emit ReadyForShipping(_upc);\n    }\n\n    function fetchSoy(uint _upc) public\n        onlyRole(DISTRIBUTOR_ROLE)\n        checkSoyState(_upc, soyState.ReadyForShipping) {\n\n        soys[_upc].distributor = msg.sender;\n        soys[_upc].state = soyState.Shipping;\n    }\n\n    function deliverSoy(uint _upc) public \n        checkSoyState(_upc, soyState.Shipping)\n        verifyCaller(soys[_upc].distributor) {\n\n        soys[_upc].state = soyState.Delivered;\n\n        emit Delivered(_upc);\n        \n    }\n\n    // The tofu company calls makeTofu whenever they produce a unit of tofu from soy\n    function makeTofu(\n            string memory _name, \n            uint _soyUpc, \n            uint _upc, \n            uint _price,\n            string memory _lat,\n            string memory _long) public \n            checkSoyState(_soyUpc, soyState.Delivered) \n            verifyCaller(soys[_soyUpc].buyer) {\n\n        // Increment sku for tofu\n        skuCountTofu = skuCountTofu + 1;\n\n        soys[_soyUpc].state = soyState.Used;\n        soys[_soyUpc].toTofuUpc = _upc;\n\n        // Add newly produced tofu and link it to soy it came from\n        tofus[_upc] = Tofu(\n            {\n                name: _name, \n                upc: _upc,\n                sku: skuCountTofu, \n                price: _price, \n                state: tofuState.Produced, \n                producer: msg.sender, \n                originLatitude: _lat,\n                originLongitude: _long,\n                distributor: address(0), \n                retailer: address(0), \n                buyer: address(0), \n                fromSoyUpc: _soyUpc\n            });\n        // Emit event\n        emit Produced(_upc);\n    }\n\n    // The retailer can order tofu using orderTofu()\n    function orderTofu(uint _upc) public payable \n        checkTofuState(_upc, tofuState.Produced)\n        onlyRole(RETAILER_ROLE)\n        paidEnough(tofus[_upc].price)  \n        checkTofuValue(_upc) {\n        \n        address retailer = msg.sender;\n        uint price = tofus[_upc].price;\n        // Update retailer\n        tofus[_upc].retailer = retailer;\n        // Update state\n        tofus[_upc].state = tofuState.Ordered;\n        // Transfer money to producer\n        address payable producerAddressPayable = _make_payable(tofus[_upc].producer);\n        producerAddressPayable.transfer(price);\n    }\n\n    // The tofu company has to ship the tofu\n    function shipTofu(uint _upc) public \n        checkTofuState(_upc, tofuState.Ordered) \n        verifyCaller(tofus[_upc].producer) {\n\n        tofus[_upc].state = tofuState.ReadyForShipping;\n\n        emit ReadyForShipping(_upc);\n    }\n\n    function fetchTofu(uint _upc) public\n        checkTofuState(_upc, tofuState.ReadyForShipping)\n        {\n\n        tofus[_upc].distributor = msg.sender;\n        tofus[_upc].state = tofuState.Shipping;\n    }\n\n    function deliverTofu(uint _upc) public \n        checkTofuState(_upc, tofuState.Shipping)\n        verifyCaller(tofus[_upc].distributor) {\n\n        tofus[_upc].state = tofuState.Delivered;\n\n        emit Delivered(_upc);\n        \n    }\n\n    function putTofuOnSale(uint _upc, uint _price) public \n        checkTofuState(_upc, tofuState.Delivered)\n        verifyCaller(tofus[_upc].retailer) {\n\n        tofus[_upc].state = tofuState.OnSale;\n        tofus[_upc].price = _price;\n\n        emit OnSale(_upc);\n    }\n\n    // buyTofu allows to buy one unit of tofu from the retailer\n    function buyTofu(uint _upc) public payable\n        checkTofuState(_upc, tofuState.OnSale)\n        onlyRole(CUSTOMER_ROLE)\n        paidEnough(tofus[_upc].price)\n        checkTofuValue(_upc) {\n\n        address buyer = msg.sender;\n        uint  price = tofus[_upc].price;\n        // Update buyer\n        tofus[_upc].buyer = buyer;\n        // Update state\n        tofus[_upc].state = tofuState.Sold;\n        // Transfer money to retailer\n        address payable retailerAddressPayable = _make_payable(tofus[_upc].retailer);\n        retailerAddressPayable.transfer(price);\n        // emit the appropriate event\n        emit Sold(_upc);\n    }\n\n}\n",
  "sourcePath": "/home/haefner/Documents/30_Arbeit/2022_ND_Blockchain/Project3_SupplyChainApplication/project3/contracts/TofuSupplyChain.sol",
  "compiler": {
    "name": "solc",
    "version": "0.8.13+commit.abaa5c0e.Emscripten.clang"
  },
  "schemaVersion": "3.4.6",
  "updatedAt": "2022-04-17T07:15:39.883Z",
  "networkType": "ethereum",
  "devdoc": {
    "kind": "dev",
    "methods": {
      "getRoleAdmin(bytes32)": {
        "details": "Returns the admin role that controls `role`. See {grantRole} and {revokeRole}. To change a role's admin, use {_setRoleAdmin}."
      },
      "grantRole(bytes32,address)": {
        "details": "Grants `role` to `account`. If `account` had not been already granted `role`, emits a {RoleGranted} event. Requirements: - the caller must have ``role``'s admin role."
      },
      "hasRole(bytes32,address)": {
        "details": "Returns `true` if `account` has been granted `role`."
      },
      "renounceRole(bytes32,address)": {
        "details": "Revokes `role` from the calling account. Roles are often managed via {grantRole} and {revokeRole}: this function's purpose is to provide a mechanism for accounts to lose their privileges if they are compromised (such as when a trusted device is misplaced). If the calling account had been revoked `role`, emits a {RoleRevoked} event. Requirements: - the caller must be `account`."
      },
      "revokeRole(bytes32,address)": {
        "details": "Revokes `role` from `account`. If `account` had been granted `role`, emits a {RoleRevoked} event. Requirements: - the caller must have ``role``'s admin role."
      },
      "supportsInterface(bytes4)": {
        "details": "See {IERC165-supportsInterface}."
      }
    },
    "version": 1
  },
  "userdoc": {
    "kind": "user",
    "methods": {},
    "version": 1
  }
}