{
  "contractName": "SupplyChain",
  "abi": [
    {
      "inputs": [],
      "stateMutability": "payable",
      "type": "constructor",
      "payable": true
    },
    {
      "anonymous": false,
      "inputs": [
        {
          "indexed": false,
          "internalType": "uint256",
          "name": "upc",
          "type": "uint256"
        }
      ],
      "name": "Delivered",
      "type": "event"
    },
    {
      "anonymous": false,
      "inputs": [
        {
          "indexed": false,
          "internalType": "uint256",
          "name": "upc",
          "type": "uint256"
        }
      ],
      "name": "Harvested",
      "type": "event"
    },
    {
      "anonymous": false,
      "inputs": [
        {
          "indexed": false,
          "internalType": "uint256",
          "name": "upc",
          "type": "uint256"
        }
      ],
      "name": "OnSale",
      "type": "event"
    },
    {
      "anonymous": false,
      "inputs": [
        {
          "indexed": false,
          "internalType": "uint256",
          "name": "upc",
          "type": "uint256"
        }
      ],
      "name": "Produced",
      "type": "event"
    },
    {
      "anonymous": false,
      "inputs": [
        {
          "indexed": false,
          "internalType": "uint256",
          "name": "upc",
          "type": "uint256"
        }
      ],
      "name": "ReadyForShipping",
      "type": "event"
    },
    {
      "anonymous": false,
      "inputs": [
        {
          "indexed": true,
          "internalType": "bytes32",
          "name": "role",
          "type": "bytes32"
        },
        {
          "indexed": true,
          "internalType": "bytes32",
          "name": "previousAdminRole",
          "type": "bytes32"
        },
        {
          "indexed": true,
          "internalType": "bytes32",
          "name": "newAdminRole",
          "type": "bytes32"
        }
      ],
      "name": "RoleAdminChanged",
      "type": "event"
    },
    {
      "anonymous": false,
      "inputs": [
        {
          "indexed": true,
          "internalType": "bytes32",
          "name": "role",
          "type": "bytes32"
        },
        {
          "indexed": true,
          "internalType": "address",
          "name": "account",
          "type": "address"
        },
        {
          "indexed": true,
          "internalType": "address",
          "name": "sender",
          "type": "address"
        }
      ],
      "name": "RoleGranted",
      "type": "event"
    },
    {
      "anonymous": false,
      "inputs": [
        {
          "indexed": true,
          "internalType": "bytes32",
          "name": "role",
          "type": "bytes32"
        },
        {
          "indexed": true,
          "internalType": "address",
          "name": "account",
          "type": "address"
        },
        {
          "indexed": true,
          "internalType": "address",
          "name": "sender",
          "type": "address"
        }
      ],
      "name": "RoleRevoked",
      "type": "event"
    },
    {
      "anonymous": false,
      "inputs": [
        {
          "indexed": false,
          "internalType": "uint256",
          "name": "upc",
          "type": "uint256"
        }
      ],
      "name": "Sold",
      "type": "event"
    },
    {
      "inputs": [],
      "name": "CUSTOMER_ROLE",
      "outputs": [
        {
          "internalType": "bytes32",
          "name": "",
          "type": "bytes32"
        }
      ],
      "stateMutability": "view",
      "type": "function",
      "constant": true
    },
    {
      "inputs": [],
      "name": "DEFAULT_ADMIN_ROLE",
      "outputs": [
        {
          "internalType": "bytes32",
          "name": "",
          "type": "bytes32"
        }
      ],
      "stateMutability": "view",
      "type": "function",
      "constant": true
    },
    {
      "inputs": [],
      "name": "DISTRIBUTOR_ROLE",
      "outputs": [
        {
          "internalType": "bytes32",
          "name": "",
          "type": "bytes32"
        }
      ],
      "stateMutability": "view",
      "type": "function",
      "constant": true
    },
    {
      "inputs": [],
      "name": "FARMER_ROLE",
      "outputs": [
        {
          "internalType": "bytes32",
          "name": "",
          "type": "bytes32"
        }
      ],
      "stateMutability": "view",
      "type": "function",
      "constant": true
    },
    {
      "inputs": [],
      "name": "RETAILER_ROLE",
      "outputs": [
        {
          "internalType": "bytes32",
          "name": "",
          "type": "bytes32"
        }
      ],
      "stateMutability": "view",
      "type": "function",
      "constant": true
    },
    {
      "inputs": [],
      "name": "TOFUPRODUCER_ROLE",
      "outputs": [
        {
          "internalType": "bytes32",
          "name": "",
          "type": "bytes32"
        }
      ],
      "stateMutability": "view",
      "type": "function",
      "constant": true
    },
    {
      "inputs": [
        {
          "internalType": "bytes32",
          "name": "role",
          "type": "bytes32"
        }
      ],
      "name": "getRoleAdmin",
      "outputs": [
        {
          "internalType": "bytes32",
          "name": "",
          "type": "bytes32"
        }
      ],
      "stateMutability": "view",
      "type": "function",
      "constant": true
    },
    {
      "inputs": [
        {
          "internalType": "bytes32",
          "name": "role",
          "type": "bytes32"
        },
        {
          "internalType": "address",
          "name": "account",
          "type": "address"
        }
      ],
      "name": "grantRole",
      "outputs": [],
      "stateMutability": "nonpayable",
      "type": "function"
    },
    {
      "inputs": [
        {
          "internalType": "bytes32",
          "name": "role",
          "type": "bytes32"
        },
        {
          "internalType": "address",
          "name": "account",
          "type": "address"
        }
      ],
      "name": "hasRole",
      "outputs": [
        {
          "internalType": "bool",
          "name": "",
          "type": "bool"
        }
      ],
      "stateMutability": "view",
      "type": "function",
      "constant": true
    },
    {
      "inputs": [
        {
          "internalType": "bytes32",
          "name": "role",
          "type": "bytes32"
        },
        {
          "internalType": "address",
          "name": "account",
          "type": "address"
        }
      ],
      "name": "renounceRole",
      "outputs": [],
      "stateMutability": "nonpayable",
      "type": "function"
    },
    {
      "inputs": [
        {
          "internalType": "bytes32",
          "name": "role",
          "type": "bytes32"
        },
        {
          "internalType": "address",
          "name": "account",
          "type": "address"
        }
      ],
      "name": "revokeRole",
      "outputs": [],
      "stateMutability": "nonpayable",
      "type": "function"
    },
    {
      "inputs": [
        {
          "internalType": "bytes4",
          "name": "interfaceId",
          "type": "bytes4"
        }
      ],
      "name": "supportsInterface",
      "outputs": [
        {
          "internalType": "bool",
          "name": "",
          "type": "bool"
        }
      ],
      "stateMutability": "view",
      "type": "function",
      "constant": true
    },
    {
      "inputs": [
        {
          "internalType": "uint256",
          "name": "_soyUpc",
          "type": "uint256"
        }
      ],
      "name": "getSoy",
      "outputs": [
        {
          "internalType": "string",
          "name": "name",
          "type": "string"
        },
        {
          "internalType": "uint256",
          "name": "sku",
          "type": "uint256"
        },
        {
          "internalType": "uint256",
          "name": "price",
          "type": "uint256"
        },
        {
          "internalType": "enum SupplyChain.soyState",
          "name": "state",
          "type": "uint8"
        },
        {
          "internalType": "address",
          "name": "farmer",
          "type": "address"
        },
        {
          "internalType": "string",
          "name": "originLatitude",
          "type": "string"
        },
        {
          "internalType": "string",
          "name": "originLongitude",
          "type": "string"
        },
        {
          "internalType": "address",
          "name": "distributor",
          "type": "address"
        },
        {
          "internalType": "address",
          "name": "buyer",
          "type": "address"
        },
        {
          "internalType": "uint256",
          "name": "toTofuUpc",
          "type": "uint256"
        }
      ],
      "stateMutability": "view",
      "type": "function",
      "constant": true
    },
    {
      "inputs": [
        {
          "internalType": "uint256",
          "name": "_tofuUpc",
          "type": "uint256"
        }
      ],
      "name": "getTofu",
      "outputs": [
        {
          "internalType": "string",
          "name": "name",
          "type": "string"
        },
        {
          "internalType": "uint256",
          "name": "sku",
          "type": "uint256"
        },
        {
          "internalType": "uint256",
          "name": "price",
          "type": "uint256"
        },
        {
          "internalType": "enum SupplyChain.tofuState",
          "name": "state",
          "type": "uint8"
        },
        {
          "internalType": "address",
          "name": "producer",
          "type": "address"
        },
        {
          "internalType": "string",
          "name": "originLatitude",
          "type": "string"
        },
        {
          "internalType": "string",
          "name": "originLongitude",
          "type": "string"
        },
        {
          "internalType": "address",
          "name": "distributor",
          "type": "address"
        },
        {
          "internalType": "address",
          "name": "retailer",
          "type": "address"
        },
        {
          "internalType": "address",
          "name": "buyer",
          "type": "address"
        },
        {
          "internalType": "uint256",
          "name": "fromSoyUpc",
          "type": "uint256"
        }
      ],
      "stateMutability": "view",
      "type": "function",
      "constant": true
    },
    {
      "inputs": [
        {
          "internalType": "string",
          "name": "_role",
          "type": "string"
        },
        {
          "internalType": "address",
          "name": "_newMember",
          "type": "address"
        }
      ],
      "name": "addRole",
      "outputs": [],
      "stateMutability": "nonpayable",
      "type": "function"
    },
    {
      "inputs": [
        {
          "internalType": "string",
          "name": "_role",
          "type": "string"
        },
        {
          "internalType": "address",
          "name": "_oldMember",
          "type": "address"
        }
      ],
      "name": "removeRole",
      "outputs": [],
      "stateMutability": "nonpayable",
      "type": "function"
    },
    {
      "inputs": [
        {
          "internalType": "string",
          "name": "_role",
          "type": "string"
        },
        {
          "internalType": "address",
          "name": "_member",
          "type": "address"
        }
      ],
      "name": "isRole",
      "outputs": [
        {
          "internalType": "bool",
          "name": "bHasRole",
          "type": "bool"
        }
      ],
      "stateMutability": "view",
      "type": "function",
      "constant": true
    },
    {
      "inputs": [
        {
          "internalType": "string",
          "name": "_name",
          "type": "string"
        },
        {
          "internalType": "uint256",
          "name": "_upc",
          "type": "uint256"
        },
        {
          "internalType": "uint256",
          "name": "_price",
          "type": "uint256"
        },
        {
          "internalType": "string",
          "name": "_lat",
          "type": "string"
        },
        {
          "internalType": "string",
          "name": "_long",
          "type": "string"
        }
      ],
      "name": "plantSoy",
      "outputs": [],
      "stateMutability": "nonpayable",
      "type": "function"
    },
    {
      "inputs": [
        {
          "internalType": "uint256",
          "name": "_upc",
          "type": "uint256"
        }
      ],
      "name": "checkSoy",
      "outputs": [],
      "stateMutability": "nonpayable",
      "type": "function"
    },
    {
      "inputs": [
        {
          "internalType": "uint256",
          "name": "_upc",
          "type": "uint256"
        }
      ],
      "name": "harvestSoy",
      "outputs": [],
      "stateMutability": "nonpayable",
      "type": "function"
    },
    {
      "inputs": [
        {
          "internalType": "uint256",
          "name": "_upc",
          "type": "uint256"
        }
      ],
      "name": "orderSoy",
      "outputs": [],
      "stateMutability": "payable",
      "type": "function",
      "payable": true
    },
    {
      "inputs": [
        {
          "internalType": "uint256",
          "name": "_upc",
          "type": "uint256"
        }
      ],
      "name": "shipSoy",
      "outputs": [],
      "stateMutability": "nonpayable",
      "type": "function"
    },
    {
      "inputs": [
        {
          "internalType": "uint256",
          "name": "_upc",
          "type": "uint256"
        }
      ],
      "name": "fetchSoy",
      "outputs": [],
      "stateMutability": "nonpayable",
      "type": "function"
    },
    {
      "inputs": [
        {
          "internalType": "uint256",
          "name": "_upc",
          "type": "uint256"
        }
      ],
      "name": "deliverSoy",
      "outputs": [],
      "stateMutability": "nonpayable",
      "type": "function"
    },
    {
      "inputs": [
        {
          "internalType": "string",
          "name": "_name",
          "type": "string"
        },
        {
          "internalType": "uint256",
          "name": "_soyUpc",
          "type": "uint256"
        },
        {
          "internalType": "uint256",
          "name": "_upc",
          "type": "uint256"
        },
        {
          "internalType": "uint256",
          "name": "_price",
          "type": "uint256"
        },
        {
          "internalType": "string",
          "name": "_lat",
          "type": "string"
        },
        {
          "internalType": "string",
          "name": "_long",
          "type": "string"
        }
      ],
      "name": "makeTofu",
      "outputs": [],
      "stateMutability": "nonpayable",
      "type": "function"
    },
    {
      "inputs": [
        {
          "internalType": "uint256",
          "name": "_upc",
          "type": "uint256"
        }
      ],
      "name": "orderTofu",
      "outputs": [],
      "stateMutability": "payable",
      "type": "function",
      "payable": true
    },
    {
      "inputs": [
        {
          "internalType": "uint256",
          "name": "_upc",
          "type": "uint256"
        }
      ],
      "name": "shipTofu",
      "outputs": [],
      "stateMutability": "nonpayable",
      "type": "function"
    },
    {
      "inputs": [
        {
          "internalType": "uint256",
          "name": "_upc",
          "type": "uint256"
        }
      ],
      "name": "fetchTofu",
      "outputs": [],
      "stateMutability": "nonpayable",
      "type": "function"
    },
    {
      "inputs": [
        {
          "internalType": "uint256",
          "name": "_upc",
          "type": "uint256"
        }
      ],
      "name": "deliverTofu",
      "outputs": [],
      "stateMutability": "nonpayable",
      "type": "function"
    },
    {
      "inputs": [
        {
          "internalType": "uint256",
          "name": "_upc",
          "type": "uint256"
        },
        {
          "internalType": "uint256",
          "name": "_price",
          "type": "uint256"
        }
      ],
      "name": "putTofuOnSale",
      "outputs": [],
      "stateMutability": "nonpayable",
      "type": "function"
    },
    {
      "inputs": [
        {
          "internalType": "uint256",
          "name": "_upc",
          "type": "uint256"
        }
      ],
      "name": "buyTofu",
      "outputs": [],
      "stateMutability": "payable",
      "type": "function",
      "payable": true
    }
  ],
  "bytecode": "0x6080604052620000196000801b336200002f60201b60201c565b60006001819055506064600281905550620001a8565b6200004182826200004560201b60201c565b5050565b6200005782826200013660201b60201c565b6200013257600160008084815260200190815260200160002060000160008373ffffffffffffffffffffffffffffffffffffffff1673ffffffffffffffffffffffffffffffffffffffff16815260200190815260200160002060006101000a81548160ff021916908315150217905550620000d7620001a060201b60201c565b73ffffffffffffffffffffffffffffffffffffffff168173ffffffffffffffffffffffffffffffffffffffff16837f2f8788117e7eff1d82e926ec794901d17c78024a50270940304540a733656f0d60405160405180910390a45b5050565b600080600084815260200190815260200160002060000160008373ffffffffffffffffffffffffffffffffffffffff1673ffffffffffffffffffffffffffffffffffffffff16815260200190815260200160002060009054906101000a900460ff16905092915050565b600033905090565b614a2380620001b86000396000f3fe6080604052600436106101d85760003560e01c80634f06118411610102578063a217fddf11610095578063dbae6b6511610064578063dbae6b651461069c578063f0bd87cc146106c5578063f3943970146106f0578063fd6e67051461071b576101d8565b8063a217fddf146105e6578063cc6877f314610611578063d2c6ff5914610657578063d547741f14610673576101d8565b8063722bacaa116100d1578063722bacaa1461051a57806390d306571461054357806391d148541461056c578063957476af146105a9576101d8565b80634f061184146104585780636735b3a71461049f5780636c008cd3146104c85780636ce1dd98146104f1576101d8565b8063204d79231161017a57806336568abe1161014957806336568abe146103bf57806340fcbf74146103e8578063430f0259146104045780634c2857901461042d576101d8565b8063204d7923146103035780632115e7bf1461032e578063248a9ca3146103595780632f2ff15d14610396576101d8565b80630f8360ac116101b65780630f8360ac1461026c5780631417051814610295578063189578c8146102be5780631e61cb43146102e7576101d8565b806301ffc9a7146101dd578063032f2d481461021a578063035d3b0714610243575b600080fd5b3480156101e957600080fd5b5061020460048036038101906101ff9190613a60565b610744565b6040516102119190613aa8565b60405180910390f35b34801561022657600080fd5b50610241600480360381019061023c9190613c67565b6107be565b005b34801561024f57600080fd5b5061026a60048036038101906102659190613cf9565b61097f565b005b34801561027857600080fd5b50610293600480360381019061028e9190613d39565b610b48565b005b3480156102a157600080fd5b506102bc60048036038101906102b79190613d39565b610cf5565b005b3480156102ca57600080fd5b506102e560048036038101906102e09190613d66565b610e1a565b005b61030160048036038101906102fc9190613d39565b611078565b005b34801561030f57600080fd5b50610318611395565b6040516103259190613e4e565b60405180910390f35b34801561033a57600080fd5b506103436113b9565b6040516103509190613e4e565b60405180910390f35b34801561036557600080fd5b50610380600480360381019061037b9190613e95565b6113dd565b60405161038d9190613e4e565b60405180910390f35b3480156103a257600080fd5b506103bd60048036038101906103b89190613ec2565b6113fc565b005b3480156103cb57600080fd5b506103e660048036038101906103e19190613ec2565b611425565b005b61040260048036038101906103fd9190613d39565b6114a8565b005b34801561041057600080fd5b5061042b60048036038101906104269190613d39565b611759565b005b34801561043957600080fd5b50610442611906565b60405161044f9190613e4e565b60405180910390f35b34801561046457600080fd5b5061047f600480360381019061047a9190613d39565b61192a565b6040516104969b9a9998979695949392919061401f565b60405180910390f35b3480156104ab57600080fd5b506104c660048036038101906104c19190613c67565b611db1565b005b3480156104d457600080fd5b506104ef60048036038101906104ea9190613d39565b611f72565b005b3480156104fd57600080fd5b50610518600480360381019061051391906140df565b61211f565b005b34801561052657600080fd5b50610541600480360381019061053c9190613d39565b6125a8565b005b34801561054f57600080fd5b5061056a60048036038101906105659190613d39565b612690565b005b34801561057857600080fd5b50610593600480360381019061058e9190613ec2565b6127af565b6040516105a09190613aa8565b60405180910390f35b3480156105b557600080fd5b506105d060048036038101906105cb9190613c67565b612819565b6040516105dd9190613aa8565b60405180910390f35b3480156105f257600080fd5b506105fb6129e8565b6040516106089190613e4e565b60405180910390f35b34801561061d57600080fd5b5061063860048036038101906106339190613d39565b6129ef565b60405161064e9a99989796959493929190614208565b60405180910390f35b610671600480360381019061066c9190613d39565b612e11565b005b34801561067f57600080fd5b5061069a60048036038101906106959190613ec2565b6130f9565b005b3480156106a857600080fd5b506106c360048036038101906106be9190613d39565b613122565b005b3480156106d157600080fd5b506106da6132ce565b6040516106e79190613e4e565b60405180910390f35b3480156106fc57600080fd5b506107056132f2565b6040516107129190613e4e565b60405180910390f35b34801561072757600080fd5b50610742600480360381019061073d9190613d39565b613316565b005b60007f7965db0b000000000000000000000000000000000000000000000000000000007bffffffffffffffffffffffffffffffffffffffffffffffffffffffff1916827bffffffffffffffffffffffffffffffffffffffffffffffffffffffff191614806107b757506107b68261343b565b5b9050919050565b7ff309ffc42715a0bfccdfa0c4cac305505f15ab9b9262b7451ceea96c0cc35187828051906020012003610817576108167f7c6181838a71a779e445600d4c6ecbe16bacf2b3c5bda69c29fada66d1b645d1826130f9565b5b7f17c21644ceec3cd074affabc036a9ba81c877859652aa2cc2d3a8ad102bf97328280519060200120036108705761086f7f27da0df33edb39ead40f7084fea0d01eda6f679d5fa512a477172d5ff4220858826130f9565b5b7f85faced7bde13e1a7dad704b895f006e704f207617d68166b31ba2d79624862d8280519060200120036108c9576108c87ffbd454f36a7e1a388bd6fc3ab10d434aa4578f811acbbcf33afb1c697486313c826130f9565b5b7f27d5ccc46db01bfa5691ce092fe276221c6cd0aa6d05765b52c3ddecfa70421a828051906020012003610922576109217f2a5f906c256a5d799494fcd066e1f6c077689de1cdb65052a1624de4bace99bf826130f9565b5b7f46e0d1fa2be0423550e96859e7c25c6f3178358b189469f16373069e7f092a0a82805190602001200361097b5761097a7f288a15c4a15d470e4cd9cad2f113b91206b520c26dbd3dd74627f0c057baa19c826130f9565b5b5050565b81600480600681111561099557610994613f99565b5b6004600084815260200190815260200160002060040160009054906101000a900460ff1660068111156109cb576109ca613f99565b5b14610a0b576040517f08c379a0000000000000000000000000000000000000000000000000000000008152600401610a0290614305565b60405180910390fd5b6004600085815260200190815260200160002060080160009054906101000a900473ffffffffffffffffffffffffffffffffffffffff168073ffffffffffffffffffffffffffffffffffffffff163373ffffffffffffffffffffffffffffffffffffffff1614610ab0576040517f08c379a0000000000000000000000000000000000000000000000000000000008152600401610aa790614397565b60405180910390fd5b60056004600087815260200190815260200160002060040160006101000a81548160ff02191690836006811115610aea57610ae9613f99565b5b02179055508360046000878152602001908152602001600020600301819055507f6826140490b8e3cb7f1acaadc491af2c8803ed6a350ed83565db9fe625e1afe785604051610b3991906143b7565b60405180910390a15050505050565b806003806007811115610b5e57610b5d613f99565b5b6003600084815260200190815260200160002060040160009054906101000a900460ff166007811115610b9457610b93613f99565b5b14610bd4576040517f08c379a0000000000000000000000000000000000000000000000000000000008152600401610bcb9061441e565b60405180910390fd5b6003600084815260200190815260200160002060040160019054906101000a900473ffffffffffffffffffffffffffffffffffffffff168073ffffffffffffffffffffffffffffffffffffffff163373ffffffffffffffffffffffffffffffffffffffff1614610c79576040517f08c379a0000000000000000000000000000000000000000000000000000000008152600401610c7090614397565b60405180910390fd5b60046003600086815260200190815260200160002060040160006101000a81548160ff02191690836007811115610cb357610cb2613f99565b5b02179055507fb0f262e603193ef3ed2b0b01b78396d7870e77697078825ae3728169b4913d8584604051610ce791906143b7565b60405180910390a150505050565b806002806006811115610d0b57610d0a613f99565b5b6004600084815260200190815260200160002060040160009054906101000a900460ff166006811115610d4157610d40613f99565b5b14610d81576040517f08c379a0000000000000000000000000000000000000000000000000000000008152600401610d7890614305565b60405180910390fd5b336004600085815260200190815260200160002060070160006101000a81548173ffffffffffffffffffffffffffffffffffffffff021916908373ffffffffffffffffffffffffffffffffffffffff16021790555060036004600085815260200190815260200160002060040160006101000a81548160ff02191690836006811115610e1057610e0f613f99565b5b0217905550505050565b60018054610e28919061446d565b600181905550604051806101600160405280868152602001858152602001600154815260200184815260200160006007811115610e6857610e67613f99565b5b81526020013373ffffffffffffffffffffffffffffffffffffffff168152602001838152602001828152602001600073ffffffffffffffffffffffffffffffffffffffff168152602001600073ffffffffffffffffffffffffffffffffffffffff1681526020016000815250600360008681526020019081526020016000206000820151816000019080519060200190610f03929190613951565b5060208201518160010155604082015181600201556060820151816003015560808201518160040160006101000a81548160ff02191690836007811115610f4d57610f4c613f99565b5b021790555060a08201518160040160016101000a81548173ffffffffffffffffffffffffffffffffffffffff021916908373ffffffffffffffffffffffffffffffffffffffff16021790555060c0820151816005019080519060200190610fb5929190613951565b5060e0820151816006019080519060200190610fd2929190613951565b506101008201518160070160006101000a81548173ffffffffffffffffffffffffffffffffffffffff021916908373ffffffffffffffffffffffffffffffffffffffff1602179055506101208201518160080160006101000a81548173ffffffffffffffffffffffffffffffffffffffff021916908373ffffffffffffffffffffffffffffffffffffffff16021790555061014082015181600901559050505050505050565b80600280600781111561108e5761108d613f99565b5b6003600084815260200190815260200160002060040160009054906101000a900460ff1660078111156110c4576110c3613f99565b5b14611104576040517f08c379a00000000000000000000000000000000000000000000000000000000081526004016110fb9061441e565b60405180910390fd5b60036000848152602001908152602001600020600301548034101561115e576040517f08c379a000000000000000000000000000000000000000000000000000000000815260040161115590614535565b60405180910390fd5b836000339050600060036000888152602001908152602001600020600301549050816003600089815260200190815260200160002060080160006101000a81548173ffffffffffffffffffffffffffffffffffffffff021916908373ffffffffffffffffffffffffffffffffffffffff160217905550600380600089815260200190815260200160002060040160006101000a81548160ff0219169083600781111561120d5761120c613f99565b5b02179055506000611253600360008a815260200190815260200160002060040160019054906101000a900473ffffffffffffffffffffffffffffffffffffffff166134a5565b90508073ffffffffffffffffffffffffffffffffffffffff166108fc839081150290604051600060405180830381858888f1935050505015801561129b573d6000803e3d6000fd5b507f92f64ca637d023f354075a4be751b169c1a8a9ccb6d33cdd0cb3520543995727886040516112cb91906143b7565b60405180910390a1505050600060036000838152602001908152602001600020600301549050600081346112ff9190614555565b905060006113426003600086815260200190815260200160002060080160009054906101000a900473ffffffffffffffffffffffffffffffffffffffff166134a5565b90508073ffffffffffffffffffffffffffffffffffffffff166108fc839081150290604051600060405180830381858888f1935050505015801561138a573d6000803e3d6000fd5b505050505050505050565b7f288a15c4a15d470e4cd9cad2f113b91206b520c26dbd3dd74627f0c057baa19c81565b7f2a5f906c256a5d799494fcd066e1f6c077689de1cdb65052a1624de4bace99bf81565b6000806000838152602001908152602001600020600101549050919050565b611405826113dd565b611416816114116134af565b6134b7565b6114208383613554565b505050565b61142d6134af565b73ffffffffffffffffffffffffffffffffffffffff168173ffffffffffffffffffffffffffffffffffffffff161461149a576040517f08c379a0000000000000000000000000000000000000000000000000000000008152600401611491906145fb565b60405180910390fd5b6114a48282613634565b5050565b8060008060068111156114be576114bd613f99565b5b6004600084815260200190815260200160002060040160009054906101000a900460ff1660068111156114f4576114f3613f99565b5b14611534576040517f08c379a000000000000000000000000000000000000000000000000000000000815260040161152b90614305565b60405180910390fd5b60046000848152602001908152602001600020600301548034101561158e576040517f08c379a000000000000000000000000000000000000000000000000000000000815260040161158590614535565b60405180910390fd5b836000339050600060046000888152602001908152602001600020600301549050816004600089815260200190815260200160002060080160006101000a81548173ffffffffffffffffffffffffffffffffffffffff021916908373ffffffffffffffffffffffffffffffffffffffff16021790555060016004600089815260200190815260200160002060040160006101000a81548160ff0219169083600681111561163e5761163d613f99565b5b02179055506000611684600460008a815260200190815260200160002060040160019054906101000a900473ffffffffffffffffffffffffffffffffffffffff166134a5565b90508073ffffffffffffffffffffffffffffffffffffffff166108fc839081150290604051600060405180830381858888f193505050501580156116cc573d6000803e3d6000fd5b50505050600060046000838152602001908152602001600020600301549050600081346116f99190614555565b90506000611706336134a5565b90508073ffffffffffffffffffffffffffffffffffffffff166108fc839081150290604051600060405180830381858888f1935050505015801561174e573d6000803e3d6000fd5b505050505050505050565b80600180600681111561176f5761176e613f99565b5b6004600084815260200190815260200160002060040160009054906101000a900460ff1660068111156117a5576117a4613f99565b5b146117e5576040517f08c379a00000000000000000000000000000000000000000000000000000000081526004016117dc90614305565b60405180910390fd5b6004600084815260200190815260200160002060040160019054906101000a900473ffffffffffffffffffffffffffffffffffffffff168073ffffffffffffffffffffffffffffffffffffffff163373ffffffffffffffffffffffffffffffffffffffff161461188a576040517f08c379a000000000000000000000000000000000000000000000000000000000815260040161188190614397565b60405180910390fd5b60026004600086815260200190815260200160002060040160006101000a81548160ff021916908360068111156118c4576118c3613f99565b5b02179055507fb0f262e603193ef3ed2b0b01b78396d7870e77697078825ae3728169b4913d85846040516118f891906143b7565b60405180910390a150505050565b7f27da0df33edb39ead40f7084fea0d01eda6f679d5fa512a477172d5ff422085881565b60606000806000806060806000806000806000600460008e81526020019081526020016000206040518061018001604052908160008201805461196c9061464a565b80601f01602080910402602001604051908101604052809291908181526020018280546119989061464a565b80156119e55780601f106119ba576101008083540402835291602001916119e5565b820191906000526020600020905b8154815290600101906020018083116119c857829003601f168201915b505050505081526020016001820154815260200160028201548152602001600382015481526020016004820160009054906101000a900460ff166006811115611a3157611a30613f99565b5b6006811115611a4357611a42613f99565b5b81526020016004820160019054906101000a900473ffffffffffffffffffffffffffffffffffffffff1673ffffffffffffffffffffffffffffffffffffffff1673ffffffffffffffffffffffffffffffffffffffff168152602001600582018054611aad9061464a565b80601f0160208091040260200160405190810160405280929190818152602001828054611ad99061464a565b8015611b265780601f10611afb57610100808354040283529160200191611b26565b820191906000526020600020905b815481529060010190602001808311611b0957829003601f168201915b50505050508152602001600682018054611b3f9061464a565b80601f0160208091040260200160405190810160405280929190818152602001828054611b6b9061464a565b8015611bb85780601f10611b8d57610100808354040283529160200191611bb8565b820191906000526020600020905b815481529060010190602001808311611b9b57829003601f168201915b505050505081526020016007820160009054906101000a900473ffffffffffffffffffffffffffffffffffffffff1673ffffffffffffffffffffffffffffffffffffffff1673ffffffffffffffffffffffffffffffffffffffff1681526020016008820160009054906101000a900473ffffffffffffffffffffffffffffffffffffffff1673ffffffffffffffffffffffffffffffffffffffff1673ffffffffffffffffffffffffffffffffffffffff1681526020016009820160009054906101000a900473ffffffffffffffffffffffffffffffffffffffff1673ffffffffffffffffffffffffffffffffffffffff1673ffffffffffffffffffffffffffffffffffffffff168152602001600a820154815250509050604051806020016040528060008152508051906020012081600001518051906020012003611d32576040517f08c379a0000000000000000000000000000000000000000000000000000000008152600401611d29906146ed565b60405180910390fd5b80600001519b508b81604001519b508b82606001519b508b83608001519b508b8460a001519b508b8560c001519b508b8660e001519b508b8761010001519b508b8861012001519b508b8961014001519b508b8a61016001519b509b509b509b509b509b509b509b509b509b509b505091939597999b90929496989a50565b7ff309ffc42715a0bfccdfa0c4cac305505f15ab9b9262b7451ceea96c0cc35187828051906020012003611e0a57611e097f7c6181838a71a779e445600d4c6ecbe16bacf2b3c5bda69c29fada66d1b645d1826113fc565b5b7f17c21644ceec3cd074affabc036a9ba81c877859652aa2cc2d3a8ad102bf9732828051906020012003611e6357611e627f27da0df33edb39ead40f7084fea0d01eda6f679d5fa512a477172d5ff4220858826113fc565b5b7f85faced7bde13e1a7dad704b895f006e704f207617d68166b31ba2d79624862d828051906020012003611ebc57611ebb7ffbd454f36a7e1a388bd6fc3ab10d434aa4578f811acbbcf33afb1c697486313c826113fc565b5b7f27d5ccc46db01bfa5691ce092fe276221c6cd0aa6d05765b52c3ddecfa70421a828051906020012003611f1557611f147f2a5f906c256a5d799494fcd066e1f6c077689de1cdb65052a1624de4bace99bf826113fc565b5b7f46e0d1fa2be0423550e96859e7c25c6f3178358b189469f16373069e7f092a0a828051906020012003611f6e57611f6d7f288a15c4a15d470e4cd9cad2f113b91206b520c26dbd3dd74627f0c057baa19c826113fc565b5b5050565b806005806007811115611f8857611f87613f99565b5b6003600084815260200190815260200160002060040160009054906101000a900460ff166007811115611fbe57611fbd613f99565b5b14611ffe576040517f08c379a0000000000000000000000000000000000000000000000000000000008152600401611ff59061441e565b60405180910390fd5b6003600084815260200190815260200160002060070160009054906101000a900473ffffffffffffffffffffffffffffffffffffffff168073ffffffffffffffffffffffffffffffffffffffff163373ffffffffffffffffffffffffffffffffffffffff16146120a3576040517f08c379a000000000000000000000000000000000000000000000000000000000815260040161209a90614397565b60405180910390fd5b60066003600086815260200190815260200160002060040160006101000a81548160ff021916908360078111156120dd576120dc613f99565b5b02179055507ffcc296b8bdd64e3f1d1faadef50cb2d6550f645316330fe57cb1dd7e0612ead08460405161211191906143b7565b60405180910390a150505050565b84600680600781111561213557612134613f99565b5b6003600084815260200190815260200160002060040160009054906101000a900460ff16600781111561216b5761216a613f99565b5b146121ab576040517f08c379a00000000000000000000000000000000000000000000000000000000081526004016121a29061441e565b60405180910390fd5b6003600088815260200190815260200160002060080160009054906101000a900473ffffffffffffffffffffffffffffffffffffffff168073ffffffffffffffffffffffffffffffffffffffff163373ffffffffffffffffffffffffffffffffffffffff1614612250576040517f08c379a000000000000000000000000000000000000000000000000000000000815260040161224790614397565b60405180910390fd5b600160025461225f919061446d565b6002819055506007600360008a815260200190815260200160002060040160006101000a81548160ff0219169083600781111561229f5761229e613f99565b5b021790555086600360008a8152602001908152602001600020600901819055506040518061018001604052808a81526020018881526020016002548152602001878152602001600060068111156122f9576122f8613f99565b5b81526020013373ffffffffffffffffffffffffffffffffffffffff168152602001868152602001858152602001600073ffffffffffffffffffffffffffffffffffffffff168152602001600073ffffffffffffffffffffffffffffffffffffffff168152602001600073ffffffffffffffffffffffffffffffffffffffff168152602001898152506004600089815260200190815260200160002060008201518160000190805190602001906123b0929190613951565b5060208201518160010155604082015181600201556060820151816003015560808201518160040160006101000a81548160ff021916908360068111156123fa576123f9613f99565b5b021790555060a08201518160040160016101000a81548173ffffffffffffffffffffffffffffffffffffffff021916908373ffffffffffffffffffffffffffffffffffffffff16021790555060c0820151816005019080519060200190612462929190613951565b5060e082015181600601908051906020019061247f929190613951565b506101008201518160070160006101000a81548173ffffffffffffffffffffffffffffffffffffffff021916908373ffffffffffffffffffffffffffffffffffffffff1602179055506101208201518160080160006101000a81548173ffffffffffffffffffffffffffffffffffffffff021916908373ffffffffffffffffffffffffffffffffffffffff1602179055506101408201518160090160006101000a81548173ffffffffffffffffffffffffffffffffffffffff021916908373ffffffffffffffffffffffffffffffffffffffff16021790555061016082015181600a01559050507f9d1715437821cd9a90cba5d1a68995c308d9ad9afc754ed9a1cff429760796e68760405161259591906143b7565b60405180910390a1505050505050505050565b6003600082815260200190815260200160002060040160019054906101000a900473ffffffffffffffffffffffffffffffffffffffff168073ffffffffffffffffffffffffffffffffffffffff163373ffffffffffffffffffffffffffffffffffffffff161461264d576040517f08c379a000000000000000000000000000000000000000000000000000000000815260040161264490614397565b60405180910390fd5b60016003600084815260200190815260200160002060040160006101000a81548160ff0219169083600781111561268757612686613f99565b5b02179055505050565b6003600082815260200190815260200160002060040160019054906101000a900473ffffffffffffffffffffffffffffffffffffffff168073ffffffffffffffffffffffffffffffffffffffff163373ffffffffffffffffffffffffffffffffffffffff1614612735576040517f08c379a000000000000000000000000000000000000000000000000000000000815260040161272c90614397565b60405180910390fd5b7f8e55ccfc9778ff8eba1646d765cf1982537ce0f9257054a17b48aad7452501838260405161276491906143b7565b60405180910390a160026003600084815260200190815260200160002060040160006101000a81548160ff021916908360078111156127a6576127a5613f99565b5b02179055505050565b600080600084815260200190815260200160002060000160008373ffffffffffffffffffffffffffffffffffffffff1673ffffffffffffffffffffffffffffffffffffffff16815260200190815260200160002060009054906101000a900460ff16905092915050565b60007ff309ffc42715a0bfccdfa0c4cac305505f15ab9b9262b7451ceea96c0cc35187838051906020012003612876576128737f7c6181838a71a779e445600d4c6ecbe16bacf2b3c5bda69c29fada66d1b645d1836127af565b90505b7f17c21644ceec3cd074affabc036a9ba81c877859652aa2cc2d3a8ad102bf97328380519060200120036128d1576128ce7f27da0df33edb39ead40f7084fea0d01eda6f679d5fa512a477172d5ff4220858836127af565b90505b7f85faced7bde13e1a7dad704b895f006e704f207617d68166b31ba2d79624862d83805190602001200361292c576129297ffbd454f36a7e1a388bd6fc3ab10d434aa4578f811acbbcf33afb1c697486313c836127af565b90505b7f27d5ccc46db01bfa5691ce092fe276221c6cd0aa6d05765b52c3ddecfa70421a838051906020012003612987576129847f2a5f906c256a5d799494fcd066e1f6c077689de1cdb65052a1624de4bace99bf836127af565b90505b7f46e0d1fa2be0423550e96859e7c25c6f3178358b189469f16373069e7f092a0a8380519060200120036129e2576129df7f288a15c4a15d470e4cd9cad2f113b91206b520c26dbd3dd74627f0c057baa19c836127af565b90505b92915050565b6000801b81565b6060600080600080606080600080600080600360008d815260200190815260200160002060405180610160016040529081600082018054612a2f9061464a565b80601f0160208091040260200160405190810160405280929190818152602001828054612a5b9061464a565b8015612aa85780601f10612a7d57610100808354040283529160200191612aa8565b820191906000526020600020905b815481529060010190602001808311612a8b57829003601f168201915b505050505081526020016001820154815260200160028201548152602001600382015481526020016004820160009054906101000a900460ff166007811115612af457612af3613f99565b5b6007811115612b0657612b05613f99565b5b81526020016004820160019054906101000a900473ffffffffffffffffffffffffffffffffffffffff1673ffffffffffffffffffffffffffffffffffffffff1673ffffffffffffffffffffffffffffffffffffffff168152602001600582018054612b709061464a565b80601f0160208091040260200160405190810160405280929190818152602001828054612b9c9061464a565b8015612be95780601f10612bbe57610100808354040283529160200191612be9565b820191906000526020600020905b815481529060010190602001808311612bcc57829003601f168201915b50505050508152602001600682018054612c029061464a565b80601f0160208091040260200160405190810160405280929190818152602001828054612c2e9061464a565b8015612c7b5780601f10612c5057610100808354040283529160200191612c7b565b820191906000526020600020905b815481529060010190602001808311612c5e57829003601f168201915b505050505081526020016007820160009054906101000a900473ffffffffffffffffffffffffffffffffffffffff1673ffffffffffffffffffffffffffffffffffffffff1673ffffffffffffffffffffffffffffffffffffffff1681526020016008820160009054906101000a900473ffffffffffffffffffffffffffffffffffffffff1673ffffffffffffffffffffffffffffffffffffffff1673ffffffffffffffffffffffffffffffffffffffff1681526020016009820154815250509050604051806020016040528060008152508051906020012081600001518051906020012003612d9f576040517f08c379a0000000000000000000000000000000000000000000000000000000008152600401612d969061477f565b60405180910390fd5b80600001519a508a81604001519a508a82606001519a508a83608001519a508a8460a001519a508a8560c001519a508a8660e001519a508a8761010001519a508a8861012001519a508a8961014001519a509a509a509a509a509a509a509a509a509a50509193959799509193959799565b806005806006811115612e2757612e26613f99565b5b6004600084815260200190815260200160002060040160009054906101000a900460ff166006811115612e5d57612e5c613f99565b5b14612e9d576040517f08c379a0000000000000000000000000000000000000000000000000000000008152600401612e9490614305565b60405180910390fd5b600460008481526020019081526020016000206003015480341015612ef7576040517f08c379a0000000000000000000000000000000000000000000000000000000008152600401612eee90614535565b60405180910390fd5b836000339050600060046000888152602001908152602001600020600301549050816004600089815260200190815260200160002060090160006101000a81548173ffffffffffffffffffffffffffffffffffffffff021916908373ffffffffffffffffffffffffffffffffffffffff16021790555060066004600089815260200190815260200160002060040160006101000a81548160ff02191690836006811115612fa757612fa6613f99565b5b02179055506000612fed600460008a815260200190815260200160002060080160009054906101000a900473ffffffffffffffffffffffffffffffffffffffff166134a5565b90508073ffffffffffffffffffffffffffffffffffffffff166108fc839081150290604051600060405180830381858888f19350505050158015613035573d6000803e3d6000fd5b507f92f64ca637d023f354075a4be751b169c1a8a9ccb6d33cdd0cb35205439957278860405161306591906143b7565b60405180910390a1505050600060046000838152602001908152602001600020600301549050600081346130999190614555565b905060006130a6336134a5565b90508073ffffffffffffffffffffffffffffffffffffffff166108fc839081150290604051600060405180830381858888f193505050501580156130ee573d6000803e3d6000fd5b505050505050505050565b613102826113dd565b6131138161310e6134af565b6134b7565b61311d8383613634565b505050565b80600380600681111561313857613137613f99565b5b6004600084815260200190815260200160002060040160009054906101000a900460ff16600681111561316e5761316d613f99565b5b146131ae576040517f08c379a00000000000000000000000000000000000000000000000000000000081526004016131a590614305565b60405180910390fd5b6004600084815260200190815260200160002060070160009054906101000a900473ffffffffffffffffffffffffffffffffffffffff168073ffffffffffffffffffffffffffffffffffffffff163373ffffffffffffffffffffffffffffffffffffffff1614613253576040517f08c379a000000000000000000000000000000000000000000000000000000000815260040161324a90614397565b60405180910390fd5b600480600086815260200190815260200160002060040160006101000a81548160ff0219169083600681111561328c5761328b613f99565b5b02179055507ffcc296b8bdd64e3f1d1faadef50cb2d6550f645316330fe57cb1dd7e0612ead0846040516132c091906143b7565b60405180910390a150505050565b7ffbd454f36a7e1a388bd6fc3ab10d434aa4578f811acbbcf33afb1c697486313c81565b7f7c6181838a71a779e445600d4c6ecbe16bacf2b3c5bda69c29fada66d1b645d181565b80600480600781111561332c5761332b613f99565b5b6003600084815260200190815260200160002060040160009054906101000a900460ff16600781111561336257613361613f99565b5b146133a2576040517f08c379a00000000000000000000000000000000000000000000000000000000081526004016133999061441e565b60405180910390fd5b336003600085815260200190815260200160002060070160006101000a81548173ffffffffffffffffffffffffffffffffffffffff021916908373ffffffffffffffffffffffffffffffffffffffff16021790555060056003600085815260200190815260200160002060040160006101000a81548160ff0219169083600781111561343157613430613f99565b5b0217905550505050565b60007f01ffc9a7000000000000000000000000000000000000000000000000000000007bffffffffffffffffffffffffffffffffffffffffffffffffffffffff1916827bffffffffffffffffffffffffffffffffffffffffffffffffffffffff1916149050919050565b6000819050919050565b600033905090565b6134c182826127af565b613550576134e68173ffffffffffffffffffffffffffffffffffffffff166014613715565b6134f48360001c6020613715565b604051602001613505929190614873565b6040516020818303038152906040526040517f08c379a000000000000000000000000000000000000000000000000000000000815260040161354791906148ad565b60405180910390fd5b5050565b61355e82826127af565b61363057600160008084815260200190815260200160002060000160008373ffffffffffffffffffffffffffffffffffffffff1673ffffffffffffffffffffffffffffffffffffffff16815260200190815260200160002060006101000a81548160ff0219169083151502179055506135d56134af565b73ffffffffffffffffffffffffffffffffffffffff168173ffffffffffffffffffffffffffffffffffffffff16837f2f8788117e7eff1d82e926ec794901d17c78024a50270940304540a733656f0d60405160405180910390a45b5050565b61363e82826127af565b1561371157600080600084815260200190815260200160002060000160008373ffffffffffffffffffffffffffffffffffffffff1673ffffffffffffffffffffffffffffffffffffffff16815260200190815260200160002060006101000a81548160ff0219169083151502179055506136b66134af565b73ffffffffffffffffffffffffffffffffffffffff168173ffffffffffffffffffffffffffffffffffffffff16837ff6391f5c32d9c69d2a47ea670b442974b53935d1edc7fd64eb21e047a839171b60405160405180910390a45b5050565b60606000600283600261372891906148cf565b613732919061446d565b67ffffffffffffffff81111561374b5761374a613ade565b5b6040519080825280601f01601f19166020018201604052801561377d5781602001600182028036833780820191505090505b5090507f3000000000000000000000000000000000000000000000000000000000000000816000815181106137b5576137b4614929565b5b60200101907effffffffffffffffffffffffffffffffffffffffffffffffffffffffffffff1916908160001a9053507f78000000000000000000000000000000000000000000000000000000000000008160018151811061381957613818614929565b5b60200101907effffffffffffffffffffffffffffffffffffffffffffffffffffffffffffff1916908160001a9053506000600184600261385991906148cf565b613863919061446d565b90505b6001811115613903577f3031323334353637383961626364656600000000000000000000000000000000600f8616601081106138a5576138a4614929565b5b1a60f81b8282815181106138bc576138bb614929565b5b60200101907effffffffffffffffffffffffffffffffffffffffffffffffffffffffffffff1916908160001a905350600485901c9450806138fc90614958565b9050613866565b5060008414613947576040517f08c379a000000000000000000000000000000000000000000000000000000000815260040161393e906149cd565b60405180910390fd5b8091505092915050565b82805461395d9061464a565b90600052602060002090601f01602090048101928261397f57600085556139c6565b82601f1061399857805160ff19168380011785556139c6565b828001600101855582156139c6579182015b828111156139c55782518255916020019190600101906139aa565b5b5090506139d391906139d7565b5090565b5b808211156139f05760008160009055506001016139d8565b5090565b6000604051905090565b600080fd5b600080fd5b60007fffffffff0000000000000000000000000000000000000000000000000000000082169050919050565b613a3d81613a08565b8114613a4857600080fd5b50565b600081359050613a5a81613a34565b92915050565b600060208284031215613a7657613a756139fe565b5b6000613a8484828501613a4b565b91505092915050565b60008115159050919050565b613aa281613a8d565b82525050565b6000602082019050613abd6000830184613a99565b92915050565b600080fd5b600080fd5b6000601f19601f8301169050919050565b7f4e487b7100000000000000000000000000000000000000000000000000000000600052604160045260246000fd5b613b1682613acd565b810181811067ffffffffffffffff82111715613b3557613b34613ade565b5b80604052505050565b6000613b486139f4565b9050613b548282613b0d565b919050565b600067ffffffffffffffff821115613b7457613b73613ade565b5b613b7d82613acd565b9050602081019050919050565b82818337600083830152505050565b6000613bac613ba784613b59565b613b3e565b905082815260208101848484011115613bc857613bc7613ac8565b5b613bd3848285613b8a565b509392505050565b600082601f830112613bf057613bef613ac3565b5b8135613c00848260208601613b99565b91505092915050565b600073ffffffffffffffffffffffffffffffffffffffff82169050919050565b6000613c3482613c09565b9050919050565b613c4481613c29565b8114613c4f57600080fd5b50565b600081359050613c6181613c3b565b92915050565b60008060408385031215613c7e57613c7d6139fe565b5b600083013567ffffffffffffffff811115613c9c57613c9b613a03565b5b613ca885828601613bdb565b9250506020613cb985828601613c52565b9150509250929050565b6000819050919050565b613cd681613cc3565b8114613ce157600080fd5b50565b600081359050613cf381613ccd565b92915050565b60008060408385031215613d1057613d0f6139fe565b5b6000613d1e85828601613ce4565b9250506020613d2f85828601613ce4565b9150509250929050565b600060208284031215613d4f57613d4e6139fe565b5b6000613d5d84828501613ce4565b91505092915050565b600080600080600060a08688031215613d8257613d816139fe565b5b600086013567ffffffffffffffff811115613da057613d9f613a03565b5b613dac88828901613bdb565b9550506020613dbd88828901613ce4565b9450506040613dce88828901613ce4565b935050606086013567ffffffffffffffff811115613def57613dee613a03565b5b613dfb88828901613bdb565b925050608086013567ffffffffffffffff811115613e1c57613e1b613a03565b5b613e2888828901613bdb565b9150509295509295909350565b6000819050919050565b613e4881613e35565b82525050565b6000602082019050613e636000830184613e3f565b92915050565b613e7281613e35565b8114613e7d57600080fd5b50565b600081359050613e8f81613e69565b92915050565b600060208284031215613eab57613eaa6139fe565b5b6000613eb984828501613e80565b91505092915050565b60008060408385031215613ed957613ed86139fe565b5b6000613ee785828601613e80565b9250506020613ef885828601613c52565b9150509250929050565b600081519050919050565b600082825260208201905092915050565b60005b83811015613f3c578082015181840152602081019050613f21565b83811115613f4b576000848401525b50505050565b6000613f5c82613f02565b613f668185613f0d565b9350613f76818560208601613f1e565b613f7f81613acd565b840191505092915050565b613f9381613cc3565b82525050565b7f4e487b7100000000000000000000000000000000000000000000000000000000600052602160045260246000fd5b60078110613fd957613fd8613f99565b5b50565b6000819050613fea82613fc8565b919050565b6000613ffa82613fdc565b9050919050565b61400a81613fef565b82525050565b61401981613c29565b82525050565b600061016082019050818103600083015261403a818e613f51565b9050614049602083018d613f8a565b614056604083018c613f8a565b614063606083018b614001565b614070608083018a614010565b81810360a08301526140828189613f51565b905081810360c08301526140968188613f51565b90506140a560e0830187614010565b6140b3610100830186614010565b6140c1610120830185614010565b6140cf610140830184613f8a565b9c9b505050505050505050505050565b60008060008060008060c087890312156140fc576140fb6139fe565b5b600087013567ffffffffffffffff81111561411a57614119613a03565b5b61412689828a01613bdb565b965050602061413789828a01613ce4565b955050604061414889828a01613ce4565b945050606061415989828a01613ce4565b935050608087013567ffffffffffffffff81111561417a57614179613a03565b5b61418689828a01613bdb565b92505060a087013567ffffffffffffffff8111156141a7576141a6613a03565b5b6141b389828a01613bdb565b9150509295509295509295565b600881106141d1576141d0613f99565b5b50565b60008190506141e2826141c0565b919050565b60006141f2826141d4565b9050919050565b614202816141e7565b82525050565b6000610140820190508181036000830152614223818d613f51565b9050614232602083018c613f8a565b61423f604083018b613f8a565b61424c606083018a6141f9565b6142596080830189614010565b81810360a083015261426b8188613f51565b905081810360c083015261427f8187613f51565b905061428e60e0830186614010565b61429c610100830185614010565b6142aa610120830184613f8a565b9b9a5050505050505050505050565b7f54686520746f6675207374617465206973206e6f7420636f7272656374000000600082015250565b60006142ef601d83613f0d565b91506142fa826142b9565b602082019050919050565b6000602082019050818103600083015261431e816142e2565b9050919050565b7f546865206d6573736167652073656e646572206973206e6f742074686520657860008201527f7065637465642061646472657373000000000000000000000000000000000000602082015250565b6000614381602e83613f0d565b915061438c82614325565b604082019050919050565b600060208201905081810360008301526143b081614374565b9050919050565b60006020820190506143cc6000830184613f8a565b92915050565b7f54686520736f79207374617465206973206e6f7420636f727265637400000000600082015250565b6000614408601c83613f0d565b9150614413826143d2565b602082019050919050565b60006020820190508181036000830152614437816143fb565b9050919050565b7f4e487b7100000000000000000000000000000000000000000000000000000000600052601160045260246000fd5b600061447882613cc3565b915061448383613cc3565b9250827fffffffffffffffffffffffffffffffffffffffffffffffffffffffffffffffff038211156144b8576144b761443e565b5b828201905092915050565b7f546865206d65737361676520646f6573206e6f7420636f6e7461696e20656e6f60008201527f7567682045746865720000000000000000000000000000000000000000000000602082015250565b600061451f602983613f0d565b915061452a826144c3565b604082019050919050565b6000602082019050818103600083015261454e81614512565b9050919050565b600061456082613cc3565b915061456b83613cc3565b92508282101561457e5761457d61443e565b5b828203905092915050565b7f416363657373436f6e74726f6c3a2063616e206f6e6c792072656e6f756e636560008201527f20726f6c657320666f722073656c660000000000000000000000000000000000602082015250565b60006145e5602f83613f0d565b91506145f082614589565b604082019050919050565b60006020820190508181036000830152614614816145d8565b9050919050565b7f4e487b7100000000000000000000000000000000000000000000000000000000600052602260045260246000fd5b6000600282049050600182168061466257607f821691505b6020821081036146755761467461461b565b5b50919050565b7f5175657269656420746f667520696e666f20666f72206e6f6e6578697374656e60008201527f7420555043000000000000000000000000000000000000000000000000000000602082015250565b60006146d7602583613f0d565b91506146e28261467b565b604082019050919050565b60006020820190508181036000830152614706816146ca565b9050919050565b7f5175657269656420736f7920696e666f20666f72206e6f6e6578697374656e7460008201527f2055504300000000000000000000000000000000000000000000000000000000602082015250565b6000614769602483613f0d565b91506147748261470d565b604082019050919050565b600060208201905081810360008301526147988161475c565b9050919050565b600081905092915050565b7f416363657373436f6e74726f6c3a206163636f756e7420000000000000000000600082015250565b60006147e060178361479f565b91506147eb826147aa565b601782019050919050565b600061480182613f02565b61480b818561479f565b935061481b818560208601613f1e565b80840191505092915050565b7f206973206d697373696e6720726f6c6520000000000000000000000000000000600082015250565b600061485d60118361479f565b915061486882614827565b601182019050919050565b600061487e826147d3565b915061488a82856147f6565b915061489582614850565b91506148a182846147f6565b91508190509392505050565b600060208201905081810360008301526148c78184613f51565b905092915050565b60006148da82613cc3565b91506148e583613cc3565b9250817fffffffffffffffffffffffffffffffffffffffffffffffffffffffffffffffff048311821515161561491e5761491d61443e565b5b828202905092915050565b7f4e487b7100000000000000000000000000000000000000000000000000000000600052603260045260246000fd5b600061496382613cc3565b9150600082036149765761497561443e565b5b600182039050919050565b7f537472696e67733a20686578206c656e67746820696e73756666696369656e74600082015250565b60006149b7602083613f0d565b91506149c282614981565b602082019050919050565b600060208201905081810360008301526149e6816149aa565b905091905056fea26469706673582212201b2fe04df8ef42a3093a138c6ca8fd997de0d5cf16af46d977b8c66a61903b4d64736f6c634300080d0033",
  "immutableReferences": {},
  "source": "// SPDX-License-Identifier: UNLICENSED\npragma solidity ^0.8.13;\n\nimport \"@openzeppelin/contracts/access/AccessControl.sol\";\n\n// Define the contract 'SupplyChain'\ncontract SupplyChain is AccessControl {\n    // Holds all functions and structs\n\n    //address owner;\n    uint skuCountSoy;\n    uint skuCountTofu;\n\n    // Roles within the tofu supply chain\n    bytes32 public constant FARMER_ROLE = keccak256(\"FARMER_ROLE\");\n    bytes32 public constant TOFUPRODUCER_ROLE = keccak256(\"TOFUPRODUCER_ROLE\");\n    bytes32 public constant DISTRIBUTOR_ROLE = keccak256(\"DISTRIBUTOR_ROLE\");\n    bytes32 public constant RETAILER_ROLE = keccak256(\"RETAILER_ROLE\");\n    bytes32 public constant CUSTOMER_ROLE = keccak256(\"CUSTOMER_ROLE\");\n\n    // Enums for soy/tofu states\n    enum soyState {Planted, Ripe, Harvested, Ordered, ReadyForShipping, Shipping, Delivered, Used}\n    enum tofuState {Produced, Ordered, ReadyForShipping, Shipping, Delivered, OnSale, Sold}\n\n    // Soy. name, upc, price, state, seller, buyer\n    struct Soy {\n        string  name;\n        uint  upc;\n        uint sku;\n        uint  price;\n        soyState  state;\n        address  farmer;       \n        string originLatitude;\n        string originLongitude;\n        address distributor;\n        address  buyer;         // Tofu Company\n        uint toTofuUpc;\n    }\n\n    // Tofu. name, upc, price, state, seller, buyer\n    struct Tofu {\n        string  name;\n        uint  upc;\n        uint sku;\n        uint  price;\n        tofuState  state;\n        address  producer;      // Tofu Company\n        string originLatitude;\n        string originLongitude;\n        address  distributor;\n        address retailer;\n        address buyer;          // Final customer in retail store\n        uint fromSoyUpc;\n    }\n\n    // Map the UPC to a unit of soy/tofu.\n    mapping (uint => Soy) soys;\n    mapping (uint => Tofu) tofus;\n\n    // Events\n    event Harvested(uint upc);\n    event Produced(uint upc);\n    event ReadyForShipping(uint upc);\n    event Delivered(uint upc);\n    event OnSale(uint upc);\n    event Sold(uint upc);\n\n    constructor() payable {\n        //owner = msg.sender;\n        _setupRole(DEFAULT_ADMIN_ROLE, msg.sender);\n        skuCountSoy = 0;\n        skuCountTofu = 100;\n    }\n\n    // Get soy info \n    function getSoy(uint _soyUpc) public view returns (\n        string memory  name,\n        uint sku,\n        uint  price,\n        soyState  state,\n        address  farmer,       \n        string memory originLatitude,\n        string memory originLongitude,\n        address distributor,\n        address  buyer,         \n        uint toTofuUpc\n    ) {\n        Soy memory queriedSoy = soys[_soyUpc];\n        require(keccak256(bytes(queriedSoy.name)) != keccak256(bytes(\"\")), \"Queried soy info for nonexistent UPC\"); // Thanks to Greg Mikeska: https://ethereum.stackexchange.com/a/11754\n        return (\n            name = queriedSoy.name,\n            sku = queriedSoy.sku,\n            price = queriedSoy.price,\n            state = queriedSoy.state,\n            farmer = queriedSoy.farmer,\n            originLatitude = queriedSoy.originLatitude,\n            originLongitude = queriedSoy.originLongitude,\n            distributor = queriedSoy.distributor,\n            buyer = queriedSoy.buyer,\n            toTofuUpc = queriedSoy.toTofuUpc\n        );\n    }\n\n    // Get tofu info \n    function getTofu(uint _tofuUpc) public view returns (\n            string memory name,\n            uint sku,\n            uint  price,\n            tofuState  state,\n            address  producer,      \n            string memory originLatitude,\n            string memory originLongitude,\n            address  distributor,\n            address retailer,\n            address buyer,          \n            uint fromSoyUpc\n        ) {\n        Tofu memory queriedTofu = tofus[_tofuUpc];\n        require(keccak256(bytes(queriedTofu.name)) != keccak256(bytes(\"\")), \"Queried tofu info for nonexistent UPC\"); // Thanks to Greg Mikeska: https://ethereum.stackexchange.com/a/11754\n        return (\n            name = queriedTofu.name,\n            sku = queriedTofu.sku,\n            price = queriedTofu.price,\n            state = queriedTofu.state,\n            producer = queriedTofu.producer,\n            originLatitude = queriedTofu.originLatitude,\n            originLongitude = queriedTofu.originLongitude,\n            distributor = queriedTofu.distributor,\n            retailer = queriedTofu.retailer,\n            buyer = queriedTofu.buyer,\n            fromSoyUpc = queriedTofu.fromSoyUpc\n        );\n    }\n\n\n    // See if msg.sender == owner of the contract\n    /*\n    modifier onlyOwner() {\n        require(msg.sender == owner, \"Only the owner can call this function\");\n        _;\n    }\n    */\n\n    // Verify the Caller\n    modifier verifyCaller (address _address) {\n        require(msg.sender == _address, \"The message sender is not the expected address\");\n        _;\n    }\n\n    // Check if the paid amount is sufficient to cover the price\n    modifier paidEnough(uint _price) {\n        require(msg.value >= _price, \"The message does not contain enough Ether\");\n        _;\n    }\n\n    // Check if a unit of soy has a certain state\n    modifier checkSoyState(uint _upc, soyState _state) {\n        require(soys[_upc].state == _state, \"The soy state is not correct\");\n        _;\n    }\n\n    // Check if a unit of tofu has a certain state\n    modifier checkTofuState(uint _upc, tofuState _state) {\n        require(tofus[_upc].state == _state, \"The tofu state is not correct\");\n        _;\n    }\n\n    // Checks the price and refunds the remaining balance\n    modifier checkSoyValue(uint _upc) {\n        _;\n        uint _price = soys[_upc].price;\n        uint amountToRefund = msg.value - _price;\n        address payable buyerAddressPayable = _make_payable(soys[_upc].buyer);\n        buyerAddressPayable.transfer(amountToRefund);\n    }\n\n    modifier checkTofuValue(uint _upc) {\n        _;\n        uint _price = tofus[_upc].price;\n        uint amountToRefund = msg.value - _price;\n        \n        /* // Not useful since retailer and buyer are two entities to whom this modifier appliers (buy from farmer vs. buy from retailer)\n        address payable buyerAddressPayable = _make_payable(tofus[_upc].buyer);\n        buyerAddressPayable.transfer(amountToRefund);\n        */\n        address payable senderAddressPayable = _make_payable(msg.sender);\n        senderAddressPayable.transfer(amountToRefund);\n        \n    }\n\n    // Function that allows you to convert an address into a payable address\n    function _make_payable(address x) internal pure returns (address payable) {\n        return payable(x); // According to k06a's answer: https://ethereum.stackexchange.com/a/65694\n    }\n\n    // Access Control function\n    function addRole(string memory _role, address _newMember) public {\n        if (keccak256(bytes(_role)) == keccak256(\"FARMER\")) {\n            grantRole(FARMER_ROLE, _newMember);\n        } \n        if (keccak256(bytes(_role)) == keccak256(\"TOFUPRODUCER\")) {\n            grantRole(TOFUPRODUCER_ROLE, _newMember);\n        } \n        if (keccak256(bytes(_role)) == keccak256(\"DISTRIBUTOR\")) {\n            grantRole(DISTRIBUTOR_ROLE, _newMember);\n        } \n        if (keccak256(bytes(_role)) == keccak256(\"RETAILER\")) {\n            grantRole(RETAILER_ROLE, _newMember);\n        } \n        if (keccak256(bytes(_role)) == keccak256(\"CUSTOMER\")) {\n            grantRole(CUSTOMER_ROLE, _newMember);\n        } \n    }\n\n    function removeRole(string memory _role, address _oldMember) public {\n        if (keccak256(bytes(_role)) == keccak256(\"FARMER\")) {\n            revokeRole(FARMER_ROLE, _oldMember);\n        } \n        if (keccak256(bytes(_role)) == keccak256(\"TOFUPRODUCER\")) {\n            revokeRole(TOFUPRODUCER_ROLE, _oldMember);\n        } \n        if (keccak256(bytes(_role)) == keccak256(\"DISTRIBUTOR\")) {\n            revokeRole(DISTRIBUTOR_ROLE, _oldMember);\n        } \n        if (keccak256(bytes(_role)) == keccak256(\"RETAILER\")) {\n            revokeRole(RETAILER_ROLE, _oldMember);\n        } \n        if (keccak256(bytes(_role)) == keccak256(\"CUSTOMER\")) {\n            revokeRole(CUSTOMER_ROLE, _oldMember);\n        } \n    }\n\n    function isRole(string memory _role, address _member) public view returns (bool bHasRole) {\n        if (keccak256(bytes(_role)) == keccak256(\"FARMER\")) {\n            bHasRole = hasRole(FARMER_ROLE, _member);\n        } \n        if (keccak256(bytes(_role)) == keccak256(\"TOFUPRODUCER\")) {\n            bHasRole = hasRole(TOFUPRODUCER_ROLE, _member);\n        } \n        if (keccak256(bytes(_role)) == keccak256(\"DISTRIBUTOR\")) {\n            bHasRole = hasRole(DISTRIBUTOR_ROLE, _member);\n        } \n        if (keccak256(bytes(_role)) == keccak256(\"RETAILER\")) {\n            bHasRole = hasRole(RETAILER_ROLE, _member);\n        } \n        if (keccak256(bytes(_role)) == keccak256(\"CUSTOMER\")) {\n            bHasRole = hasRole(CUSTOMER_ROLE, _member);\n        } \n    }\n\n\n    function plantSoy(\n            string memory _name,\n            uint _upc,\n            uint _price,\n            string memory _lat,\n            string memory _long) public \n            {\n            //onlyRole(FARMER_ROLE) {\n        // Increment sku\n        skuCountSoy = skuCountSoy + 1;\n\n        // Add the new soy into inventory and mark it as planted\n        soys[_upc] = Soy(\n            {\n                name: _name, \n                upc: _upc,\n                sku: skuCountSoy, \n                price: _price, \n                state: soyState.Planted, \n                farmer: msg.sender, \n                originLatitude: _lat,\n                originLongitude: _long,\n                distributor: address(0),\n                buyer: address(0), \n                toTofuUpc: 0\n            });\n    }\n\n    // When checking the soy, the farmer finds out that the soy is ripe (because of their experience, farmers don't check their soy prematurely)\n    function checkSoy(uint _upc) public \n        verifyCaller(soys[_upc].farmer) {\n        \n        soys[_upc].state = soyState.Ripe;\n    }\n\n    // The farmers have to harvest their soy\n    function harvestSoy(uint _upc) public \n        verifyCaller(soys[_upc].farmer) {\n        // Emit event to notify potential buyers\n        emit Harvested(_upc);\n\n        soys[_upc].state = soyState.Harvested;\n    }\n\n    // orderSoy allows to order one unit of soy from the farmer\n    function orderSoy(uint _upc) public payable\n        // Call modifier to check if upc is for sale\n        checkSoyState(_upc, soyState.Harvested)\n        // Call modifier to check if buyer has paid enough\n        paidEnough(soys[_upc].price)\n        // Call modifier to verify that sender is a tofu producer\n        //onlyRole(TOFUPRODUCER_ROLE)\n        // Call modifier to send any excess ether back to buyer\n        checkSoyValue(_upc) {\n\n        address buyer = msg.sender;\n        uint  price = soys[_upc].price;\n        // Update buyer\n        soys[_upc].buyer = buyer;\n        // Update state\n        soys[_upc].state = soyState.Ordered;\n        // Transfer money to farmer\n        address payable farmerAddressPayable = _make_payable(soys[_upc].farmer);\n        farmerAddressPayable.transfer(price);\n        // emit the appropriate event\n        emit Sold(_upc);\n    }\n\n    // The farmer has to ship the soy\n    function shipSoy(uint _upc) public \n        checkSoyState(_upc, soyState.Ordered) \n        verifyCaller(soys[_upc].farmer) {\n\n        soys[_upc].state = soyState.ReadyForShipping;\n\n        emit ReadyForShipping(_upc);\n    }\n\n    function fetchSoy(uint _upc) public\n        //onlyRole(DISTRIBUTOR_ROLE)\n        checkSoyState(_upc, soyState.ReadyForShipping) {\n\n        soys[_upc].distributor = msg.sender;\n        soys[_upc].state = soyState.Shipping;\n    }\n\n    function deliverSoy(uint _upc) public \n        checkSoyState(_upc, soyState.Shipping)\n        verifyCaller(soys[_upc].distributor) {\n\n        soys[_upc].state = soyState.Delivered;\n\n        emit Delivered(_upc);\n        \n    }\n\n    // The tofu company calls makeTofu whenever they produce a unit of tofu from soy\n    function makeTofu(\n            string memory _name, \n            uint _soyUpc, \n            uint _upc, \n            uint _price,\n            string memory _lat,\n            string memory _long) public \n            checkSoyState(_soyUpc, soyState.Delivered) \n            verifyCaller(soys[_soyUpc].buyer) {\n\n        // Increment sku for tofu\n        skuCountTofu = skuCountTofu + 1;\n\n        soys[_soyUpc].state = soyState.Used;\n        soys[_soyUpc].toTofuUpc = _upc;\n\n        // Add newly produced tofu and link it to soy it came from\n        tofus[_upc] = Tofu(\n            {\n                name: _name, \n                upc: _upc,\n                sku: skuCountTofu, \n                price: _price, \n                state: tofuState.Produced, \n                producer: msg.sender, \n                originLatitude: _lat,\n                originLongitude: _long,\n                distributor: address(0), \n                retailer: address(0), \n                buyer: address(0), \n                fromSoyUpc: _soyUpc\n            });\n        // Emit event\n        emit Produced(_upc);\n    }\n\n    // The retailer can order tofu using orderTofu()\n    function orderTofu(uint _upc) public payable \n        checkTofuState(_upc, tofuState.Produced)\n        //onlyRole(RETAILER_ROLE)\n        paidEnough(tofus[_upc].price)  \n        checkTofuValue(_upc) {\n        \n        address retailer = msg.sender;\n        uint price = tofus[_upc].price;\n        // Update retailer\n        tofus[_upc].retailer = retailer;\n        // Update state\n        tofus[_upc].state = tofuState.Ordered;\n        // Transfer money to producer\n        address payable producerAddressPayable = _make_payable(tofus[_upc].producer);\n        producerAddressPayable.transfer(price);\n    }\n\n    // The tofu company has to ship the tofu\n    function shipTofu(uint _upc) public \n        checkTofuState(_upc, tofuState.Ordered) \n        verifyCaller(tofus[_upc].producer) {\n\n        tofus[_upc].state = tofuState.ReadyForShipping;\n\n        emit ReadyForShipping(_upc);\n    }\n\n    function fetchTofu(uint _upc) public\n        checkTofuState(_upc, tofuState.ReadyForShipping)\n        {\n\n        tofus[_upc].distributor = msg.sender;\n        tofus[_upc].state = tofuState.Shipping;\n    }\n\n    function deliverTofu(uint _upc) public \n        checkTofuState(_upc, tofuState.Shipping)\n        verifyCaller(tofus[_upc].distributor) {\n\n        tofus[_upc].state = tofuState.Delivered;\n\n        emit Delivered(_upc);\n        \n    }\n\n    function putTofuOnSale(uint _upc, uint _price) public \n        checkTofuState(_upc, tofuState.Delivered)\n        verifyCaller(tofus[_upc].retailer) {\n\n        tofus[_upc].state = tofuState.OnSale;\n        tofus[_upc].price = _price;\n\n        emit OnSale(_upc);\n    }\n\n    // buyTofu allows to buy one unit of tofu from the retailer\n    function buyTofu(uint _upc) public payable\n        checkTofuState(_upc, tofuState.OnSale)\n        //onlyRole(CUSTOMER_ROLE)\n        paidEnough(tofus[_upc].price)\n        checkTofuValue(_upc) {\n\n        address buyer = msg.sender;\n        uint  price = tofus[_upc].price;\n        // Update buyer\n        tofus[_upc].buyer = buyer;\n        // Update state\n        tofus[_upc].state = tofuState.Sold;\n        // Transfer money to retailer\n        address payable retailerAddressPayable = _make_payable(tofus[_upc].retailer);\n        retailerAddressPayable.transfer(price);\n        // emit the appropriate event\n        emit Sold(_upc);\n    }\n\n}\n",
  "sourcePath": "/home/haefner/Documents/30_Arbeit/2022_ND_Blockchain/Project3_SupplyChainApplication/project3/contracts/TofuSupplyChain.sol",
  "compiler": {
    "name": "solc",
    "version": "0.8.13+commit.abaa5c0e.Emscripten.clang"
  },
  "schemaVersion": "3.4.6",
  "updatedAt": "2022-04-17T18:09:09.466Z",
  "networkType": "ethereum",
  "devdoc": {
    "kind": "dev",
    "methods": {
      "getRoleAdmin(bytes32)": {
        "details": "Returns the admin role that controls `role`. See {grantRole} and {revokeRole}. To change a role's admin, use {_setRoleAdmin}."
      },
      "grantRole(bytes32,address)": {
        "details": "Grants `role` to `account`. If `account` had not been already granted `role`, emits a {RoleGranted} event. Requirements: - the caller must have ``role``'s admin role."
      },
      "hasRole(bytes32,address)": {
        "details": "Returns `true` if `account` has been granted `role`."
      },
      "renounceRole(bytes32,address)": {
        "details": "Revokes `role` from the calling account. Roles are often managed via {grantRole} and {revokeRole}: this function's purpose is to provide a mechanism for accounts to lose their privileges if they are compromised (such as when a trusted device is misplaced). If the calling account had been revoked `role`, emits a {RoleRevoked} event. Requirements: - the caller must be `account`."
      },
      "revokeRole(bytes32,address)": {
        "details": "Revokes `role` from `account`. If `account` had been granted `role`, emits a {RoleRevoked} event. Requirements: - the caller must have ``role``'s admin role."
      },
      "supportsInterface(bytes4)": {
        "details": "See {IERC165-supportsInterface}."
      }
    },
    "version": 1
  },
  "userdoc": {
    "kind": "user",
    "methods": {},
    "version": 1
  }
}