{
  "contractName": "TofuSupplyChain",
  "abi": [
    {
      "inputs": [],
      "stateMutability": "payable",
      "type": "constructor"
    },
    {
      "anonymous": false,
      "inputs": [
        {
          "indexed": false,
          "internalType": "uint256",
          "name": "sku",
          "type": "uint256"
        }
      ],
      "name": "Delivered",
      "type": "event"
    },
    {
      "anonymous": false,
      "inputs": [
        {
          "indexed": false,
          "internalType": "uint256",
          "name": "sku",
          "type": "uint256"
        }
      ],
      "name": "Harvested",
      "type": "event"
    },
    {
      "anonymous": false,
      "inputs": [
        {
          "indexed": false,
          "internalType": "uint256",
          "name": "sku",
          "type": "uint256"
        }
      ],
      "name": "OnSale",
      "type": "event"
    },
    {
      "anonymous": false,
      "inputs": [
        {
          "indexed": false,
          "internalType": "uint256",
          "name": "sku",
          "type": "uint256"
        }
      ],
      "name": "Produced",
      "type": "event"
    },
    {
      "anonymous": false,
      "inputs": [
        {
          "indexed": false,
          "internalType": "uint256",
          "name": "sku",
          "type": "uint256"
        }
      ],
      "name": "ReadyForShipping",
      "type": "event"
    },
    {
      "anonymous": false,
      "inputs": [
        {
          "indexed": false,
          "internalType": "uint256",
          "name": "sku",
          "type": "uint256"
        }
      ],
      "name": "Sold",
      "type": "event"
    },
    {
      "inputs": [
        {
          "internalType": "uint256",
          "name": "_soySku",
          "type": "uint256"
        }
      ],
      "name": "getSoy",
      "outputs": [
        {
          "components": [
            {
              "internalType": "string",
              "name": "name",
              "type": "string"
            },
            {
              "internalType": "uint256",
              "name": "sku",
              "type": "uint256"
            },
            {
              "internalType": "uint256",
              "name": "price",
              "type": "uint256"
            },
            {
              "internalType": "enum TofuSupplyChain.soyState",
              "name": "state",
              "type": "uint8"
            },
            {
              "internalType": "address",
              "name": "seller",
              "type": "address"
            },
            {
              "internalType": "address",
              "name": "distributor",
              "type": "address"
            },
            {
              "internalType": "address",
              "name": "buyer",
              "type": "address"
            },
            {
              "internalType": "uint256",
              "name": "toTofuSku",
              "type": "uint256"
            }
          ],
          "internalType": "struct TofuSupplyChain.Soy",
          "name": "",
          "type": "tuple"
        }
      ],
      "stateMutability": "view",
      "type": "function"
    },
    {
      "inputs": [
        {
          "internalType": "uint256",
          "name": "_tofuSku",
          "type": "uint256"
        }
      ],
      "name": "getTofu",
      "outputs": [
        {
          "components": [
            {
              "internalType": "string",
              "name": "name",
              "type": "string"
            },
            {
              "internalType": "uint256",
              "name": "sku",
              "type": "uint256"
            },
            {
              "internalType": "uint256",
              "name": "price",
              "type": "uint256"
            },
            {
              "internalType": "enum TofuSupplyChain.tofuState",
              "name": "state",
              "type": "uint8"
            },
            {
              "internalType": "address",
              "name": "producer",
              "type": "address"
            },
            {
              "internalType": "address",
              "name": "distributor",
              "type": "address"
            },
            {
              "internalType": "address",
              "name": "retailer",
              "type": "address"
            },
            {
              "internalType": "address",
              "name": "buyer",
              "type": "address"
            },
            {
              "internalType": "uint256",
              "name": "fromSoySku",
              "type": "uint256"
            }
          ],
          "internalType": "struct TofuSupplyChain.Tofu",
          "name": "",
          "type": "tuple"
        }
      ],
      "stateMutability": "view",
      "type": "function"
    },
    {
      "inputs": [
        {
          "internalType": "string",
          "name": "_name",
          "type": "string"
        },
        {
          "internalType": "uint256",
          "name": "_price",
          "type": "uint256"
        }
      ],
      "name": "plantSoy",
      "outputs": [],
      "stateMutability": "nonpayable",
      "type": "function"
    },
    {
      "inputs": [
        {
          "internalType": "uint256",
          "name": "_sku",
          "type": "uint256"
        }
      ],
      "name": "checkSoy",
      "outputs": [],
      "stateMutability": "nonpayable",
      "type": "function"
    },
    {
      "inputs": [
        {
          "internalType": "uint256",
          "name": "_sku",
          "type": "uint256"
        }
      ],
      "name": "harvestSoy",
      "outputs": [],
      "stateMutability": "nonpayable",
      "type": "function"
    },
    {
      "inputs": [
        {
          "internalType": "uint256",
          "name": "_sku",
          "type": "uint256"
        }
      ],
      "name": "orderSoy",
      "outputs": [],
      "stateMutability": "payable",
      "type": "function"
    },
    {
      "inputs": [
        {
          "internalType": "uint256",
          "name": "_sku",
          "type": "uint256"
        }
      ],
      "name": "shipSoy",
      "outputs": [],
      "stateMutability": "nonpayable",
      "type": "function"
    },
    {
      "inputs": [
        {
          "internalType": "uint256",
          "name": "_sku",
          "type": "uint256"
        }
      ],
      "name": "fetchSoy",
      "outputs": [],
      "stateMutability": "nonpayable",
      "type": "function"
    },
    {
      "inputs": [
        {
          "internalType": "uint256",
          "name": "_sku",
          "type": "uint256"
        }
      ],
      "name": "deliverSoy",
      "outputs": [],
      "stateMutability": "nonpayable",
      "type": "function"
    },
    {
      "inputs": [
        {
          "internalType": "string",
          "name": "_name",
          "type": "string"
        },
        {
          "internalType": "uint256",
          "name": "_soySku",
          "type": "uint256"
        },
        {
          "internalType": "uint256",
          "name": "_price",
          "type": "uint256"
        }
      ],
      "name": "makeTofu",
      "outputs": [],
      "stateMutability": "nonpayable",
      "type": "function"
    },
    {
      "inputs": [
        {
          "internalType": "uint256",
          "name": "_sku",
          "type": "uint256"
        }
      ],
      "name": "orderTofu",
      "outputs": [],
      "stateMutability": "payable",
      "type": "function"
    },
    {
      "inputs": [
        {
          "internalType": "uint256",
          "name": "_sku",
          "type": "uint256"
        }
      ],
      "name": "shipTofu",
      "outputs": [],
      "stateMutability": "nonpayable",
      "type": "function"
    },
    {
      "inputs": [
        {
          "internalType": "uint256",
          "name": "_sku",
          "type": "uint256"
        }
      ],
      "name": "fetchTofu",
      "outputs": [],
      "stateMutability": "nonpayable",
      "type": "function"
    },
    {
      "inputs": [
        {
          "internalType": "uint256",
          "name": "_sku",
          "type": "uint256"
        }
      ],
      "name": "deliverTofu",
      "outputs": [],
      "stateMutability": "nonpayable",
      "type": "function"
    },
    {
      "inputs": [
        {
          "internalType": "uint256",
          "name": "_sku",
          "type": "uint256"
        }
      ],
      "name": "putTofuOnSale",
      "outputs": [],
      "stateMutability": "nonpayable",
      "type": "function"
    },
    {
      "inputs": [
        {
          "internalType": "uint256",
          "name": "_sku",
          "type": "uint256"
        }
      ],
      "name": "buyTofu",
      "outputs": [],
      "stateMutability": "payable",
      "type": "function"
    }
  ],
  "bytecode": "0x6080604052336000806101000a81548173ffffffffffffffffffffffffffffffffffffffff021916908373ffffffffffffffffffffffffffffffffffffffff16021790555060006001819055506064600281905550612fb7806100636000396000f3fe6080604052600436106100f35760003560e01c8063722bacaa1161008a578063d2c6ff5911610059578063d2c6ff59146102f2578063dbae6b651461030e578063f6243ee614610337578063fd6e670514610360576100f3565b8063722bacaa1461023a57806384ce3bbb1461026357806390d306571461028c578063cc6877f3146102b5576100f3565b8063430f0259116100c6578063430f0259146101825780634f061184146101ab57806369bed1a1146101e85780636c008cd314610211576100f3565b80630f8360ac146100f857806314170518146101215780631e61cb431461014a57806340fcbf7414610166575b600080fd5b34801561010457600080fd5b5061011f600480360381019061011a919061257f565b610389565b005b34801561012d57600080fd5b506101486004803603810190610143919061257f565b610536565b005b610164600480360381019061015f919061257f565b61065b565b005b610180600480360381019061017b919061257f565b610978565b005b34801561018e57600080fd5b506101a960048036038101906101a4919061257f565b610c29565b005b3480156101b757600080fd5b506101d260048036038101906101cd919061257f565b610dd6565b6040516101df91906127d1565b60405180910390f35b3480156101f457600080fd5b5061020f600480360381019061020a919061257f565b6110b0565b005b34801561021d57600080fd5b506102386004803603810190610233919061257f565b61125d565b005b34801561024657600080fd5b50610261600480360381019061025c919061257f565b61140a565b005b34801561026f57600080fd5b5061028a60048036038101906102859190612928565b61144c565b005b34801561029857600080fd5b506102b360048036038101906102ae919061257f565b61187f565b005b3480156102c157600080fd5b506102dc60048036038101906102d7919061257f565b6118f8565b6040516102e99190612a8f565b60405180910390f35b61030c6004803603810190610307919061257f565b611b7c565b005b34801561031a57600080fd5b506103356004803603810190610330919061257f565b611e64565b005b34801561034357600080fd5b5061035e60048036038101906103599190612ab1565b612010565b005b34801561036c57600080fd5b506103876004803603810190610382919061257f565b612214565b005b80600380600781111561039f5761039e612654565b5b6003600084815260200190815260200160002060030160009054906101000a900460ff1660078111156103d5576103d4612654565b5b14610415576040517f08c379a000000000000000000000000000000000000000000000000000000000815260040161040c90612b6a565b60405180910390fd5b6003600084815260200190815260200160002060030160019054906101000a900473ffffffffffffffffffffffffffffffffffffffff168073ffffffffffffffffffffffffffffffffffffffff163373ffffffffffffffffffffffffffffffffffffffff16146104ba576040517f08c379a00000000000000000000000000000000000000000000000000000000081526004016104b190612bfc565b60405180910390fd5b60046003600086815260200190815260200160002060030160006101000a81548160ff021916908360078111156104f4576104f3612654565b5b02179055507fb0f262e603193ef3ed2b0b01b78396d7870e77697078825ae3728169b4913d85846040516105289190612c2b565b60405180910390a150505050565b80600280600681111561054c5761054b612654565b5b6004600084815260200190815260200160002060030160009054906101000a900460ff16600681111561058257610581612654565b5b146105c2576040517f08c379a00000000000000000000000000000000000000000000000000000000081526004016105b990612c92565b60405180910390fd5b336004600085815260200190815260200160002060040160006101000a81548173ffffffffffffffffffffffffffffffffffffffff021916908373ffffffffffffffffffffffffffffffffffffffff16021790555060036004600085815260200190815260200160002060030160006101000a81548160ff0219169083600681111561065157610650612654565b5b0217905550505050565b80600280600781111561067157610670612654565b5b6003600084815260200190815260200160002060030160009054906101000a900460ff1660078111156106a7576106a6612654565b5b146106e7576040517f08c379a00000000000000000000000000000000000000000000000000000000081526004016106de90612b6a565b60405180910390fd5b600360008481526020019081526020016000206002015480341015610741576040517f08c379a000000000000000000000000000000000000000000000000000000000815260040161073890612d24565b60405180910390fd5b836000339050600060036000888152602001908152602001600020600201549050816003600089815260200190815260200160002060050160006101000a81548173ffffffffffffffffffffffffffffffffffffffff021916908373ffffffffffffffffffffffffffffffffffffffff160217905550600380600089815260200190815260200160002060030160006101000a81548160ff021916908360078111156107f0576107ef612654565b5b02179055506000610836600360008a815260200190815260200160002060030160019054906101000a900473ffffffffffffffffffffffffffffffffffffffff16612339565b90508073ffffffffffffffffffffffffffffffffffffffff166108fc839081150290604051600060405180830381858888f1935050505015801561087e573d6000803e3d6000fd5b507f92f64ca637d023f354075a4be751b169c1a8a9ccb6d33cdd0cb3520543995727886040516108ae9190612c2b565b60405180910390a1505050600060036000838152602001908152602001600020600201549050600081346108e29190612d73565b905060006109256003600086815260200190815260200160002060050160009054906101000a900473ffffffffffffffffffffffffffffffffffffffff16612339565b90508073ffffffffffffffffffffffffffffffffffffffff166108fc839081150290604051600060405180830381858888f1935050505015801561096d573d6000803e3d6000fd5b505050505050505050565b80600080600681111561098e5761098d612654565b5b6004600084815260200190815260200160002060030160009054906101000a900460ff1660068111156109c4576109c3612654565b5b14610a04576040517f08c379a00000000000000000000000000000000000000000000000000000000081526004016109fb90612c92565b60405180910390fd5b600460008481526020019081526020016000206002015480341015610a5e576040517f08c379a0000000000000000000000000000000000000000000000000000000008152600401610a5590612d24565b60405180910390fd5b836000339050600060046000888152602001908152602001600020600201549050816004600089815260200190815260200160002060050160006101000a81548173ffffffffffffffffffffffffffffffffffffffff021916908373ffffffffffffffffffffffffffffffffffffffff16021790555060016004600089815260200190815260200160002060030160006101000a81548160ff02191690836006811115610b0e57610b0d612654565b5b02179055506000610b54600460008a815260200190815260200160002060030160019054906101000a900473ffffffffffffffffffffffffffffffffffffffff16612339565b90508073ffffffffffffffffffffffffffffffffffffffff166108fc839081150290604051600060405180830381858888f19350505050158015610b9c573d6000803e3d6000fd5b5050505060006004600083815260200190815260200160002060020154905060008134610bc99190612d73565b90506000610bd633612339565b90508073ffffffffffffffffffffffffffffffffffffffff166108fc839081150290604051600060405180830381858888f19350505050158015610c1e573d6000803e3d6000fd5b505050505050505050565b806001806006811115610c3f57610c3e612654565b5b6004600084815260200190815260200160002060030160009054906101000a900460ff166006811115610c7557610c74612654565b5b14610cb5576040517f08c379a0000000000000000000000000000000000000000000000000000000008152600401610cac90612c92565b60405180910390fd5b6004600084815260200190815260200160002060030160019054906101000a900473ffffffffffffffffffffffffffffffffffffffff168073ffffffffffffffffffffffffffffffffffffffff163373ffffffffffffffffffffffffffffffffffffffff1614610d5a576040517f08c379a0000000000000000000000000000000000000000000000000000000008152600401610d5190612bfc565b60405180910390fd5b60026004600086815260200190815260200160002060030160006101000a81548160ff02191690836006811115610d9457610d93612654565b5b02179055507fb0f262e603193ef3ed2b0b01b78396d7870e77697078825ae3728169b4913d8584604051610dc89190612c2b565b60405180910390a150505050565b610dde612343565b60006004600084815260200190815260200160002060405180610120016040529081600082018054610e0f90612dd6565b80601f0160208091040260200160405190810160405280929190818152602001828054610e3b90612dd6565b8015610e885780601f10610e5d57610100808354040283529160200191610e88565b820191906000526020600020905b815481529060010190602001808311610e6b57829003601f168201915b5050505050815260200160018201548152602001600282015481526020016003820160009054906101000a900460ff166006811115610eca57610ec9612654565b5b6006811115610edc57610edb612654565b5b81526020016003820160019054906101000a900473ffffffffffffffffffffffffffffffffffffffff1673ffffffffffffffffffffffffffffffffffffffff1673ffffffffffffffffffffffffffffffffffffffff1681526020016004820160009054906101000a900473ffffffffffffffffffffffffffffffffffffffff1673ffffffffffffffffffffffffffffffffffffffff1673ffffffffffffffffffffffffffffffffffffffff1681526020016005820160009054906101000a900473ffffffffffffffffffffffffffffffffffffffff1673ffffffffffffffffffffffffffffffffffffffff1673ffffffffffffffffffffffffffffffffffffffff1681526020016006820160009054906101000a900473ffffffffffffffffffffffffffffffffffffffff1673ffffffffffffffffffffffffffffffffffffffff1673ffffffffffffffffffffffffffffffffffffffff16815260200160078201548152505090506040518060200160405280600081525080519060200120816000015180519060200120036110a7576040517f08c379a000000000000000000000000000000000000000000000000000000000815260040161109e90612e79565b60405180910390fd5b80915050919050565b8060048060068111156110c6576110c5612654565b5b6004600084815260200190815260200160002060030160009054906101000a900460ff1660068111156110fc576110fb612654565b5b1461113c576040517f08c379a000000000000000000000000000000000000000000000000000000000815260040161113390612c92565b60405180910390fd5b6004600084815260200190815260200160002060050160009054906101000a900473ffffffffffffffffffffffffffffffffffffffff168073ffffffffffffffffffffffffffffffffffffffff163373ffffffffffffffffffffffffffffffffffffffff16146111e1576040517f08c379a00000000000000000000000000000000000000000000000000000000081526004016111d890612bfc565b60405180910390fd5b60056004600086815260200190815260200160002060030160006101000a81548160ff0219169083600681111561121b5761121a612654565b5b02179055507f6826140490b8e3cb7f1acaadc491af2c8803ed6a350ed83565db9fe625e1afe78460405161124f9190612c2b565b60405180910390a150505050565b80600580600781111561127357611272612654565b5b6003600084815260200190815260200160002060030160009054906101000a900460ff1660078111156112a9576112a8612654565b5b146112e9576040517f08c379a00000000000000000000000000000000000000000000000000000000081526004016112e090612b6a565b60405180910390fd5b6003600084815260200190815260200160002060040160009054906101000a900473ffffffffffffffffffffffffffffffffffffffff168073ffffffffffffffffffffffffffffffffffffffff163373ffffffffffffffffffffffffffffffffffffffff161461138e576040517f08c379a000000000000000000000000000000000000000000000000000000000815260040161138590612bfc565b60405180910390fd5b60066003600086815260200190815260200160002060030160006101000a81548160ff021916908360078111156113c8576113c7612654565b5b02179055507ffcc296b8bdd64e3f1d1faadef50cb2d6550f645316330fe57cb1dd7e0612ead0846040516113fc9190612c2b565b60405180910390a150505050565b60016003600083815260200190815260200160002060030160006101000a81548160ff0219169083600781111561144457611443612654565b5b021790555050565b81600680600781111561146257611461612654565b5b6003600084815260200190815260200160002060030160009054906101000a900460ff16600781111561149857611497612654565b5b146114d8576040517f08c379a00000000000000000000000000000000000000000000000000000000081526004016114cf90612b6a565b60405180910390fd5b6003600085815260200190815260200160002060050160009054906101000a900473ffffffffffffffffffffffffffffffffffffffff168073ffffffffffffffffffffffffffffffffffffffff163373ffffffffffffffffffffffffffffffffffffffff161461157d576040517f08c379a000000000000000000000000000000000000000000000000000000000815260040161157490612bfc565b60405180910390fd5b600160025461158c9190612e99565b60028190555060076003600087815260200190815260200160002060030160006101000a81548160ff021916908360078111156115cc576115cb612654565b5b0217905550600254600360008781526020019081526020016000206006018190555060405180610120016040528087815260200160025481526020018581526020016000600681111561162257611621612654565b5b81526020013373ffffffffffffffffffffffffffffffffffffffff168152602001600073ffffffffffffffffffffffffffffffffffffffff168152602001600073ffffffffffffffffffffffffffffffffffffffff168152602001600073ffffffffffffffffffffffffffffffffffffffff1681526020018681525060046000600254815260200190815260200160002060008201518160000190805190602001906116cf9291906123f9565b50602082015181600101556040820151816002015560608201518160030160006101000a81548160ff0219169083600681111561170f5761170e612654565b5b021790555060808201518160030160016101000a81548173ffffffffffffffffffffffffffffffffffffffff021916908373ffffffffffffffffffffffffffffffffffffffff16021790555060a08201518160040160006101000a81548173ffffffffffffffffffffffffffffffffffffffff021916908373ffffffffffffffffffffffffffffffffffffffff16021790555060c08201518160050160006101000a81548173ffffffffffffffffffffffffffffffffffffffff021916908373ffffffffffffffffffffffffffffffffffffffff16021790555060e08201518160060160006101000a81548173ffffffffffffffffffffffffffffffffffffffff021916908373ffffffffffffffffffffffffffffffffffffffff16021790555061010082015181600701559050507f9d1715437821cd9a90cba5d1a68995c308d9ad9afc754ed9a1cff429760796e660025460405161186f9190612c2b565b60405180910390a1505050505050565b7f8e55ccfc9778ff8eba1646d765cf1982537ce0f9257054a17b48aad745250183816040516118ae9190612c2b565b60405180910390a160026003600083815260200190815260200160002060030160006101000a81548160ff021916908360078111156118f0576118ef612654565b5b021790555050565b61190061247f565b6000600360008481526020019081526020016000206040518061010001604052908160008201805461193190612dd6565b80601f016020809104026020016040519081016040528092919081815260200182805461195d90612dd6565b80156119aa5780601f1061197f576101008083540402835291602001916119aa565b820191906000526020600020905b81548152906001019060200180831161198d57829003601f168201915b5050505050815260200160018201548152602001600282015481526020016003820160009054906101000a900460ff1660078111156119ec576119eb612654565b5b60078111156119fe576119fd612654565b5b81526020016003820160019054906101000a900473ffffffffffffffffffffffffffffffffffffffff1673ffffffffffffffffffffffffffffffffffffffff1673ffffffffffffffffffffffffffffffffffffffff1681526020016004820160009054906101000a900473ffffffffffffffffffffffffffffffffffffffff1673ffffffffffffffffffffffffffffffffffffffff1673ffffffffffffffffffffffffffffffffffffffff1681526020016005820160009054906101000a900473ffffffffffffffffffffffffffffffffffffffff1673ffffffffffffffffffffffffffffffffffffffff1673ffffffffffffffffffffffffffffffffffffffff1681526020016006820154815250509050604051806020016040528060008152508051906020012081600001518051906020012003611b73576040517f08c379a0000000000000000000000000000000000000000000000000000000008152600401611b6a90612f61565b60405180910390fd5b80915050919050565b806005806006811115611b9257611b91612654565b5b6004600084815260200190815260200160002060030160009054906101000a900460ff166006811115611bc857611bc7612654565b5b14611c08576040517f08c379a0000000000000000000000000000000000000000000000000000000008152600401611bff90612c92565b60405180910390fd5b600460008481526020019081526020016000206002015480341015611c62576040517f08c379a0000000000000000000000000000000000000000000000000000000008152600401611c5990612d24565b60405180910390fd5b836000339050600060046000888152602001908152602001600020600201549050816004600089815260200190815260200160002060060160006101000a81548173ffffffffffffffffffffffffffffffffffffffff021916908373ffffffffffffffffffffffffffffffffffffffff16021790555060066004600089815260200190815260200160002060030160006101000a81548160ff02191690836006811115611d1257611d11612654565b5b02179055506000611d58600460008a815260200190815260200160002060050160009054906101000a900473ffffffffffffffffffffffffffffffffffffffff16612339565b90508073ffffffffffffffffffffffffffffffffffffffff166108fc839081150290604051600060405180830381858888f19350505050158015611da0573d6000803e3d6000fd5b507f92f64ca637d023f354075a4be751b169c1a8a9ccb6d33cdd0cb352054399572788604051611dd09190612c2b565b60405180910390a150505060006004600083815260200190815260200160002060020154905060008134611e049190612d73565b90506000611e1133612339565b90508073ffffffffffffffffffffffffffffffffffffffff166108fc839081150290604051600060405180830381858888f19350505050158015611e59573d6000803e3d6000fd5b505050505050505050565b806003806006811115611e7a57611e79612654565b5b6004600084815260200190815260200160002060030160009054906101000a900460ff166006811115611eb057611eaf612654565b5b14611ef0576040517f08c379a0000000000000000000000000000000000000000000000000000000008152600401611ee790612c92565b60405180910390fd5b6004600084815260200190815260200160002060040160009054906101000a900473ffffffffffffffffffffffffffffffffffffffff168073ffffffffffffffffffffffffffffffffffffffff163373ffffffffffffffffffffffffffffffffffffffff1614611f95576040517f08c379a0000000000000000000000000000000000000000000000000000000008152600401611f8c90612bfc565b60405180910390fd5b600480600086815260200190815260200160002060030160006101000a81548160ff02191690836006811115611fce57611fcd612654565b5b02179055507ffcc296b8bdd64e3f1d1faadef50cb2d6550f645316330fe57cb1dd7e0612ead0846040516120029190612c2b565b60405180910390a150505050565b6001805461201e9190612e99565b60018190555060405180610100016040528083815260200160015481526020018281526020016000600781111561205857612057612654565b5b81526020013373ffffffffffffffffffffffffffffffffffffffff168152602001600073ffffffffffffffffffffffffffffffffffffffff168152602001600073ffffffffffffffffffffffffffffffffffffffff168152602001600081525060036000600154815260200190815260200160002060008201518160000190805190602001906120e99291906123f9565b50602082015181600101556040820151816002015560608201518160030160006101000a81548160ff0219169083600781111561212957612128612654565b5b021790555060808201518160030160016101000a81548173ffffffffffffffffffffffffffffffffffffffff021916908373ffffffffffffffffffffffffffffffffffffffff16021790555060a08201518160040160006101000a81548173ffffffffffffffffffffffffffffffffffffffff021916908373ffffffffffffffffffffffffffffffffffffffff16021790555060c08201518160050160006101000a81548173ffffffffffffffffffffffffffffffffffffffff021916908373ffffffffffffffffffffffffffffffffffffffff16021790555060e082015181600601559050505050565b80600480600781111561222a57612229612654565b5b6003600084815260200190815260200160002060030160009054906101000a900460ff1660078111156122605761225f612654565b5b146122a0576040517f08c379a000000000000000000000000000000000000000000000000000000000815260040161229790612b6a565b60405180910390fd5b336003600085815260200190815260200160002060040160006101000a81548173ffffffffffffffffffffffffffffffffffffffff021916908373ffffffffffffffffffffffffffffffffffffffff16021790555060056003600085815260200190815260200160002060030160006101000a81548160ff0219169083600781111561232f5761232e612654565b5b0217905550505050565b6000819050919050565b6040518061012001604052806060815260200160008152602001600081526020016000600681111561237857612377612654565b5b8152602001600073ffffffffffffffffffffffffffffffffffffffff168152602001600073ffffffffffffffffffffffffffffffffffffffff168152602001600073ffffffffffffffffffffffffffffffffffffffff168152602001600073ffffffffffffffffffffffffffffffffffffffff168152602001600081525090565b82805461240590612dd6565b90600052602060002090601f016020900481019282612427576000855561246e565b82601f1061244057805160ff191683800117855561246e565b8280016001018555821561246e579182015b8281111561246d578251825591602001919060010190612452565b5b50905061247b9190612518565b5090565b604051806101000160405280606081526020016000815260200160008152602001600060078111156124b4576124b3612654565b5b8152602001600073ffffffffffffffffffffffffffffffffffffffff168152602001600073ffffffffffffffffffffffffffffffffffffffff168152602001600073ffffffffffffffffffffffffffffffffffffffff168152602001600081525090565b5b80821115612531576000816000905550600101612519565b5090565b6000604051905090565b600080fd5b600080fd5b6000819050919050565b61255c81612549565b811461256757600080fd5b50565b60008135905061257981612553565b92915050565b6000602082840312156125955761259461253f565b5b60006125a38482850161256a565b91505092915050565b600081519050919050565b600082825260208201905092915050565b60005b838110156125e65780820151818401526020810190506125cb565b838111156125f5576000848401525b50505050565b6000601f19601f8301169050919050565b6000612617826125ac565b61262181856125b7565b93506126318185602086016125c8565b61263a816125fb565b840191505092915050565b61264e81612549565b82525050565b7f4e487b7100000000000000000000000000000000000000000000000000000000600052602160045260246000fd5b6007811061269457612693612654565b5b50565b60008190506126a582612683565b919050565b60006126b582612697565b9050919050565b6126c5816126aa565b82525050565b600073ffffffffffffffffffffffffffffffffffffffff82169050919050565b60006126f6826126cb565b9050919050565b612706816126eb565b82525050565b600061012083016000830151848203600086015261272a828261260c565b915050602083015161273f6020860182612645565b5060408301516127526040860182612645565b50606083015161276560608601826126bc565b50608083015161277860808601826126fd565b5060a083015161278b60a08601826126fd565b5060c083015161279e60c08601826126fd565b5060e08301516127b160e08601826126fd565b506101008301516127c6610100860182612645565b508091505092915050565b600060208201905081810360008301526127eb818461270c565b905092915050565b600080fd5b600080fd5b7f4e487b7100000000000000000000000000000000000000000000000000000000600052604160045260246000fd5b612835826125fb565b810181811067ffffffffffffffff82111715612854576128536127fd565b5b80604052505050565b6000612867612535565b9050612873828261282c565b919050565b600067ffffffffffffffff821115612893576128926127fd565b5b61289c826125fb565b9050602081019050919050565b82818337600083830152505050565b60006128cb6128c684612878565b61285d565b9050828152602081018484840111156128e7576128e66127f8565b5b6128f28482856128a9565b509392505050565b600082601f83011261290f5761290e6127f3565b5b813561291f8482602086016128b8565b91505092915050565b6000806000606084860312156129415761294061253f565b5b600084013567ffffffffffffffff81111561295f5761295e612544565b5b61296b868287016128fa565b935050602061297c8682870161256a565b925050604061298d8682870161256a565b9150509250925092565b600881106129a8576129a7612654565b5b50565b60008190506129b982612997565b919050565b60006129c9826129ab565b9050919050565b6129d9816129be565b82525050565b60006101008301600083015184820360008601526129fd828261260c565b9150506020830151612a126020860182612645565b506040830151612a256040860182612645565b506060830151612a3860608601826129d0565b506080830151612a4b60808601826126fd565b5060a0830151612a5e60a08601826126fd565b5060c0830151612a7160c08601826126fd565b5060e0830151612a8460e0860182612645565b508091505092915050565b60006020820190508181036000830152612aa981846129df565b905092915050565b60008060408385031215612ac857612ac761253f565b5b600083013567ffffffffffffffff811115612ae657612ae5612544565b5b612af2858286016128fa565b9250506020612b038582860161256a565b9150509250929050565b600082825260208201905092915050565b7f54686520736f79207374617465206973206e6f7420636f727265637400000000600082015250565b6000612b54601c83612b0d565b9150612b5f82612b1e565b602082019050919050565b60006020820190508181036000830152612b8381612b47565b9050919050565b7f546865206d6573736167652073656e646572206973206e6f742074686520657860008201527f7065637465642061646472657373000000000000000000000000000000000000602082015250565b6000612be6602e83612b0d565b9150612bf182612b8a565b604082019050919050565b60006020820190508181036000830152612c1581612bd9565b9050919050565b612c2581612549565b82525050565b6000602082019050612c406000830184612c1c565b92915050565b7f54686520746f6675207374617465206973206e6f7420636f7272656374000000600082015250565b6000612c7c601d83612b0d565b9150612c8782612c46565b602082019050919050565b60006020820190508181036000830152612cab81612c6f565b9050919050565b7f546865206d65737361676520646f6573206e6f7420636f6e7461696e20656e6f60008201527f7567682045746865720000000000000000000000000000000000000000000000602082015250565b6000612d0e602983612b0d565b9150612d1982612cb2565b604082019050919050565b60006020820190508181036000830152612d3d81612d01565b9050919050565b7f4e487b7100000000000000000000000000000000000000000000000000000000600052601160045260246000fd5b6000612d7e82612549565b9150612d8983612549565b925082821015612d9c57612d9b612d44565b5b828203905092915050565b7f4e487b7100000000000000000000000000000000000000000000000000000000600052602260045260246000fd5b60006002820490506001821680612dee57607f821691505b602082108103612e0157612e00612da7565b5b50919050565b7f5175657269656420746f667520696e666f20666f72206e6f6e6578697374656e60008201527f7420534b55000000000000000000000000000000000000000000000000000000602082015250565b6000612e63602583612b0d565b9150612e6e82612e07565b604082019050919050565b60006020820190508181036000830152612e9281612e56565b9050919050565b6000612ea482612549565b9150612eaf83612549565b9250827fffffffffffffffffffffffffffffffffffffffffffffffffffffffffffffffff03821115612ee457612ee3612d44565b5b828201905092915050565b7f5175657269656420736f7920696e666f20666f72206e6f6e6578697374656e7460008201527f20534b5500000000000000000000000000000000000000000000000000000000602082015250565b6000612f4b602483612b0d565b9150612f5682612eef565b604082019050919050565b60006020820190508181036000830152612f7a81612f3e565b905091905056fea2646970667358221220c82e3cd41e21efb5d7eeea2f8a85c156ada868e99efb2bd74a5ab41f7011cca464736f6c634300080d0033",
  "immutableReferences": {},
  "source": "// SPDX-License-Identifier: UNLICENSED\npragma solidity ^0.8.13;\n\n// Define the contract 'TofuSupplyChain'\ncontract TofuSupplyChain {\n    // Holds all functions and structs\n\n    address owner;\n    uint skuCountSoy;\n    uint skuCountTofu;\n\n    // Enums for soy/tofu states\n    enum soyState {Planted, Ripe, Harvested, Ordered, ReadyForShipping, Shipping, Delivered, Used}\n    enum tofuState {Produced, Ordered, ReadyForShipping, Shipping, Delivered, OnSale, Sold}\n\n    // Soy. name, sku, price, state, seller, buyer\n    struct Soy {\n        string  name;\n        uint  sku;\n        uint  price;\n        soyState  state;\n        address  seller;        // Farmer\n        address distributor;\n        address  buyer;         // Tofu Company\n        uint toTofuSku;\n    }\n\n    // Tofu. name, sku, price, state, seller, buyer\n    struct Tofu {\n        string  name;\n        uint  sku;\n        uint  price;\n        tofuState  state;\n        address  producer;      // Tofu Company\n        address  distributor;\n        address retailer;\n        address buyer;          // Final customer in retail store\n        uint fromSoySku;\n    }\n\n    // Map the SKU to a unit of soy/tofu.\n    mapping (uint => Soy) soys;\n    mapping (uint => Tofu) tofus;\n\n    // Events\n    event Harvested(uint sku);\n    event Produced(uint sku);\n    event ReadyForShipping(uint sku);\n    event Delivered(uint sku);\n    event OnSale(uint sku);\n    event Sold(uint sku);\n\n    constructor() payable {\n        owner = msg.sender;\n        skuCountSoy = 0;\n        skuCountTofu = 100;\n    }\n\n    // Get soy info\n    function getSoy(uint _soySku) public view returns (Soy memory) {\n        Soy memory queriedSoy = soys[_soySku];\n        require(keccak256(bytes(queriedSoy.name)) != keccak256(bytes(\"\")), \"Queried soy info for nonexistent SKU\"); // Thanks to Greg Mikeska: https://ethereum.stackexchange.com/a/11754\n        return queriedSoy;\n    }\n\n    // Get tofu info\n    function getTofu(uint _tofuSku) public view returns (Tofu memory) {\n        Tofu memory queriedTofu = tofus[_tofuSku];\n        require(keccak256(bytes(queriedTofu.name)) != keccak256(bytes(\"\")), \"Queried tofu info for nonexistent SKU\"); // Thanks to Greg Mikeska: https://ethereum.stackexchange.com/a/11754\n        return queriedTofu;\n    }\n\n\n    // See if msg.sender == owner of the contract\n    modifier onlyOwner() {\n        require(msg.sender == owner, \"Only the owner can call this function\");\n        _;\n    }\n\n    // Verify the Caller\n    modifier verifyCaller (address _address) {\n        require(msg.sender == _address, \"The message sender is not the expected address\");\n        _;\n    }\n\n    // Check if the paid amount is sufficient to cover the price\n    modifier paidEnough(uint _price) {\n        require(msg.value >= _price, \"The message does not contain enough Ether\");\n        _;\n    }\n\n    // Check if a unit of soy has a certain state\n    modifier checkSoyState(uint _sku, soyState _state) {\n        require(soys[_sku].state == _state, \"The soy state is not correct\");\n        _;\n    }\n\n    // Check if a unit of tofu has a certain state\n    modifier checkTofuState(uint _sku, tofuState _state) {\n        require(tofus[_sku].state == _state, \"The tofu state is not correct\");\n        _;\n    }\n\n    // Checks the price and refunds the remaining balance\n    modifier checkSoyValue(uint _sku) {\n        _;\n        uint _price = soys[_sku].price;\n        uint amountToRefund = msg.value - _price;\n        address payable buyerAddressPayable = _make_payable(soys[_sku].buyer);\n        buyerAddressPayable.transfer(amountToRefund);\n    }\n\n    modifier checkTofuValue(uint _sku) {\n        _;\n        uint _price = tofus[_sku].price;\n        uint amountToRefund = msg.value - _price;\n        \n        /* // Not useful since retailer and buyer are two entities to whom this modifier appliers (buy from farmer vs. buy from retailer)\n        address payable buyerAddressPayable = _make_payable(tofus[_sku].buyer);\n        buyerAddressPayable.transfer(amountToRefund);\n        */\n        address payable senderAddressPayable = _make_payable(msg.sender);\n        senderAddressPayable.transfer(amountToRefund);\n        \n    }\n\n    // Function that allows you to convert an address into a payable address\n    function _make_payable(address x) internal pure returns (address payable) {\n        return payable(x); // According to k06a's answer: https://ethereum.stackexchange.com/a/65694\n    }\n\n    function plantSoy(string memory _name, uint _price) public {\n        // Increment sku\n        skuCountSoy = skuCountSoy + 1;\n\n        // Add the new soy into inventory and mark it as planted\n        soys[skuCountSoy] = Soy(\n            {\n                name: _name, \n                sku: skuCountSoy, \n                price: _price, \n                state: soyState.Planted, \n                seller: msg.sender, \n                distributor: address(0),\n                buyer: address(0), \n                toTofuSku: 0\n            });\n    }\n\n    // When checking the soy, the farmer finds out that the soy is ripe (because of their experience, farmers don't check their soy prematurely)\n    function checkSoy(uint _sku) public {\n        soys[_sku].state = soyState.Ripe;\n    }\n\n    // The farmers have to harvest their soy\n    function harvestSoy(uint _sku) public {\n        // Emit event to notify potential buyers\n        emit Harvested(_sku);\n\n        soys[_sku].state = soyState.Harvested;\n    }\n\n    // orderSoy allows to order one unit of soy from the farmer\n    function orderSoy(uint _sku) public payable\n        // Call modifier to check if sku is for sale\n        checkSoyState(_sku, soyState.Harvested)\n        // Call modifer to check if buyer has paid enough\n        paidEnough(soys[_sku].price)\n        // Call modifer to send any excess ether back to buyer\n        checkSoyValue(_sku) {\n\n        address buyer = msg.sender;\n        uint  price = soys[_sku].price;\n        // Update buyer\n        soys[_sku].buyer = buyer;\n        // Update state\n        soys[_sku].state = soyState.Ordered;\n        // Transfer money to seller\n        address payable sellerAddressPayable = _make_payable(soys[_sku].seller);\n        sellerAddressPayable.transfer(price);\n        // emit the appropriate event\n        emit Sold(_sku);\n    }\n\n    // The farmer has to ship the soy\n    function shipSoy(uint _sku) public \n        checkSoyState(_sku, soyState.Ordered) \n        verifyCaller(soys[_sku].seller) {\n\n        soys[_sku].state = soyState.ReadyForShipping;\n\n        emit ReadyForShipping(_sku);\n    }\n\n    function fetchSoy(uint _sku) public\n        checkSoyState(_sku, soyState.ReadyForShipping) {\n\n        soys[_sku].distributor = msg.sender;\n        soys[_sku].state = soyState.Shipping;\n    }\n\n    function deliverSoy(uint _sku) public \n        checkSoyState(_sku, soyState.Shipping)\n        verifyCaller(soys[_sku].distributor) {\n\n        soys[_sku].state = soyState.Delivered;\n\n        emit Delivered(_sku);\n        \n    }\n\n    // The tofu company calls makeTofu whenever they produce a unit of tofu from soy\n    function makeTofu(string memory _name, uint _soySku, uint _price) public \n        checkSoyState(_soySku, soyState.Delivered) \n        verifyCaller(soys[_soySku].buyer) {\n        // Increment sku for tofu\n        skuCountTofu = skuCountTofu + 1;\n\n        soys[_soySku].state = soyState.Used;\n        soys[_soySku].toTofuSku = skuCountTofu;\n\n        // Add newly produced tofu and link it to soy it came from\n        tofus[skuCountTofu] = Tofu(\n            {\n                name: _name, \n                sku: skuCountTofu, \n                price: _price, \n                state: tofuState.Produced, \n                producer: msg.sender, \n                distributor: address(0), \n                retailer: address(0), \n                buyer: address(0), \n                fromSoySku: _soySku\n            });\n        // Emit event\n        emit Produced(skuCountTofu);\n    }\n\n    // The retailer can order tofu using orderTofu()\n    function orderTofu(uint _sku) public payable \n        checkTofuState(_sku, tofuState.Produced)\n        paidEnough(tofus[_sku].price)  \n        checkTofuValue(_sku) {\n        \n        address retailer = msg.sender;\n        uint price = tofus[_sku].price;\n        // Update retailer\n        tofus[_sku].retailer = retailer;\n        // Update state\n        tofus[_sku].state = tofuState.Ordered;\n        // Transfer money to seller\n        address payable producerAddressPayable = _make_payable(tofus[_sku].producer);\n        producerAddressPayable.transfer(price);\n    }\n\n    // The tofu company has to ship the tofu\n    function shipTofu(uint _sku) public \n        checkTofuState(_sku, tofuState.Ordered) \n        verifyCaller(tofus[_sku].producer) {\n\n        tofus[_sku].state = tofuState.ReadyForShipping;\n\n        emit ReadyForShipping(_sku);\n    }\n\n    function fetchTofu(uint _sku) public\n        checkTofuState(_sku, tofuState.ReadyForShipping)\n        {\n\n        tofus[_sku].distributor = msg.sender;\n        tofus[_sku].state = tofuState.Shipping;\n    }\n\n    function deliverTofu(uint _sku) public \n        checkTofuState(_sku, tofuState.Shipping)\n        verifyCaller(tofus[_sku].distributor) {\n\n        tofus[_sku].state = tofuState.Delivered;\n\n        emit Delivered(_sku);\n        \n    }\n\n    function putTofuOnSale(uint _sku) public \n        checkTofuState(_sku, tofuState.Delivered)\n        verifyCaller(tofus[_sku].retailer) {\n\n        tofus[_sku].state = tofuState.OnSale;\n\n        emit OnSale(_sku);\n    }\n\n    // buyTofu allows to buy one unit of tofu from the retailer\n    function buyTofu(uint _sku) public payable\n        // Call modifier to check if sku is for sale\n        checkTofuState(_sku, tofuState.OnSale)\n        // Call modifer to check if buyer has paid enough\n        paidEnough(tofus[_sku].price)\n        // Call modifer to send any excess ether back to buyer\n        checkTofuValue(_sku) {\n\n        address buyer = msg.sender;\n        uint  price = tofus[_sku].price;\n        // Update buyer\n        tofus[_sku].buyer = buyer;\n        // Update state\n        tofus[_sku].state = tofuState.Sold;\n        // Transfer money to seller\n        address payable retailerAddressPayable = _make_payable(tofus[_sku].retailer);\n        retailerAddressPayable.transfer(price);\n        // emit the appropriate event\n        emit Sold(_sku);\n    }\n}\n",
  "sourcePath": "/home/haefner/Documents/30_Arbeit/2022_ND_Blockchain/Project3_SupplyChainApplication/project3/contracts/TofuSupplyChain.sol",
  "compiler": {
    "name": "solc",
    "version": "0.8.13+commit.abaa5c0e.Emscripten.clang"
  },
  "schemaVersion": "3.4.6",
  "updatedAt": "2022-04-14T14:38:04.500Z",
  "devdoc": {
    "kind": "dev",
    "methods": {},
    "version": 1
  },
  "userdoc": {
    "kind": "user",
    "methods": {},
    "version": 1
  }
}